{
	"StructType.sol": {
		"StructType": {
			"abi": [
				{
					"inputs": [
						{
							"internalType": "string",
							"name": "name",
							"type": "string"
						},
						{
							"internalType": "string",
							"name": "gender",
							"type": "string"
						},
						{
							"internalType": "uint256",
							"name": "age",
							"type": "uint256"
						}
					],
					"name": "initial",
					"outputs": [],
					"stateMutability": "nonpayable",
					"type": "function"
				},
				{
					"inputs": [],
					"name": "person",
					"outputs": [
						{
							"internalType": "string",
							"name": "name",
							"type": "string"
						},
						{
							"internalType": "string",
							"name": "gender",
							"type": "string"
						},
						{
							"internalType": "uint256",
							"name": "age",
							"type": "uint256"
						}
					],
					"stateMutability": "view",
					"type": "function"
				}
			],
			"devdoc": {
				"kind": "dev",
				"methods": {},
				"version": 1
			},
			"evm": {
				"assembly": "    /* \"StructType.sol\":65:382  contract StructType {... */\n  mstore(0x40, 0x80)\n  callvalue\n  dup1\n  iszero\n  tag_1\n  jumpi\n  0x00\n  dup1\n  revert\ntag_1:\n  pop\n  dataSize(sub_0)\n  dup1\n  dataOffset(sub_0)\n  0x00\n  codecopy\n  0x00\n  return\nstop\n\nsub_0: assembly {\n        /* \"StructType.sol\":65:382  contract StructType {... */\n      mstore(0x40, 0x80)\n      callvalue\n      dup1\n      iszero\n      tag_1\n      jumpi\n      0x00\n      dup1\n      revert\n    tag_1:\n      pop\n      jumpi(tag_2, lt(calldatasize, 0x04))\n      shr(0xe0, calldataload(0x00))\n      dup1\n      0x77ec2b55\n      eq\n      tag_3\n      jumpi\n      dup1\n      0xef46b77c\n      eq\n      tag_4\n      jumpi\n    tag_2:\n      0x00\n      dup1\n      revert\n        /* \"StructType.sol\":180:200  Person public person */\n    tag_3:\n      tag_5\n      tag_6\n      jump\t// in\n    tag_5:\n      mload(0x40)\n      tag_7\n      swap4\n      swap3\n      swap2\n      swap1\n      tag_8\n      jump\t// in\n    tag_7:\n      mload(0x40)\n      dup1\n      swap2\n      sub\n      swap1\n      return\n        /* \"StructType.sol\":207:380  function initial(string calldata name, string calldata gender, uint age) public {... */\n    tag_4:\n      tag_9\n      0x04\n      dup1\n      calldatasize\n      sub\n      dup2\n      add\n      swap1\n      tag_10\n      swap2\n      swap1\n      tag_11\n      jump\t// in\n    tag_10:\n      tag_12\n      jump\t// in\n    tag_9:\n      stop\n        /* \"StructType.sol\":180:200  Person public person */\n    tag_6:\n      0x00\n      dup1\n      0x00\n      add\n      dup1\n      sload\n      tag_13\n      swap1\n      tag_14\n      jump\t// in\n    tag_13:\n      dup1\n      0x1f\n      add\n      0x20\n      dup1\n      swap2\n      div\n      mul\n      0x20\n      add\n      mload(0x40)\n      swap1\n      dup2\n      add\n      0x40\n      mstore\n      dup1\n      swap3\n      swap2\n      swap1\n      dup2\n      dup2\n      mstore\n      0x20\n      add\n      dup3\n      dup1\n      sload\n      tag_15\n      swap1\n      tag_14\n      jump\t// in\n    tag_15:\n      dup1\n      iszero\n      tag_16\n      jumpi\n      dup1\n      0x1f\n      lt\n      tag_17\n      jumpi\n      0x0100\n      dup1\n      dup4\n      sload\n      div\n      mul\n      dup4\n      mstore\n      swap2\n      0x20\n      add\n      swap2\n      jump(tag_16)\n    tag_17:\n      dup3\n      add\n      swap2\n      swap1\n      0x00\n      mstore\n      keccak256(0x00, 0x20)\n      swap1\n    tag_18:\n      dup2\n      sload\n      dup2\n      mstore\n      swap1\n      0x01\n      add\n      swap1\n      0x20\n      add\n      dup1\n      dup4\n      gt\n      tag_18\n      jumpi\n      dup3\n      swap1\n      sub\n      0x1f\n      and\n      dup3\n      add\n      swap2\n    tag_16:\n      pop\n      pop\n      pop\n      pop\n      pop\n      swap1\n      dup1\n      0x01\n      add\n      dup1\n      sload\n      tag_19\n      swap1\n      tag_14\n      jump\t// in\n    tag_19:\n      dup1\n      0x1f\n      add\n      0x20\n      dup1\n      swap2\n      div\n      mul\n      0x20\n      add\n      mload(0x40)\n      swap1\n      dup2\n      add\n      0x40\n      mstore\n      dup1\n      swap3\n      swap2\n      swap1\n      dup2\n      dup2\n      mstore\n      0x20\n      add\n      dup3\n      dup1\n      sload\n      tag_20\n      swap1\n      tag_14\n      jump\t// in\n    tag_20:\n      dup1\n      iszero\n      tag_21\n      jumpi\n      dup1\n      0x1f\n      lt\n      tag_22\n      jumpi\n      0x0100\n      dup1\n      dup4\n      sload\n      div\n      mul\n      dup4\n      mstore\n      swap2\n      0x20\n      add\n      swap2\n      jump(tag_21)\n    tag_22:\n      dup3\n      add\n      swap2\n      swap1\n      0x00\n      mstore\n      keccak256(0x00, 0x20)\n      swap1\n    tag_23:\n      dup2\n      sload\n      dup2\n      mstore\n      swap1\n      0x01\n      add\n      swap1\n      0x20\n      add\n      dup1\n      dup4\n      gt\n      tag_23\n      jumpi\n      dup3\n      swap1\n      sub\n      0x1f\n      and\n      dup3\n      add\n      swap2\n    tag_21:\n      pop\n      pop\n      pop\n      pop\n      pop\n      swap1\n      dup1\n      0x02\n      add\n      sload\n      swap1\n      pop\n      dup4\n      jump\t// out\n        /* \"StructType.sol\":207:380  function initial(string calldata name, string calldata gender, uint age) public {... */\n    tag_12:\n        /* \"StructType.sol\":311:315  name */\n      dup5\n      dup5\n        /* \"StructType.sol\":297:303  person */\n      0x00\n        /* \"StructType.sol\":297:308  person.name */\n      dup1\n      add\n        /* \"StructType.sol\":297:315  person.name = name */\n      swap2\n      swap1\n      tag_25\n      swap3\n      swap2\n      swap1\n      tag_26\n      jump\t// in\n    tag_25:\n      pop\n        /* \"StructType.sol\":341:347  gender */\n      dup3\n      dup3\n        /* \"StructType.sol\":325:331  person */\n      0x00\n        /* \"StructType.sol\":325:338  person.gender */\n      0x01\n      add\n        /* \"StructType.sol\":325:347  person.gender = gender */\n      swap2\n      swap1\n      tag_27\n      swap3\n      swap2\n      swap1\n      tag_26\n      jump\t// in\n    tag_27:\n      pop\n        /* \"StructType.sol\":370:373  age */\n      dup1\n        /* \"StructType.sol\":357:363  person */\n      0x00\n        /* \"StructType.sol\":357:367  person.age */\n      0x02\n      add\n        /* \"StructType.sol\":357:373  person.age = age */\n      dup2\n      swap1\n      sstore\n      pop\n        /* \"StructType.sol\":207:380  function initial(string calldata name, string calldata gender, uint age) public {... */\n      pop\n      pop\n      pop\n      pop\n      pop\n      jump\t// out\n    tag_26:\n      dup3\n      dup1\n      sload\n      tag_28\n      swap1\n      tag_14\n      jump\t// in\n    tag_28:\n      swap1\n      0x00\n      mstore\n      keccak256(0x00, 0x20)\n      swap1\n      0x1f\n      add\n      0x20\n      swap1\n      div\n      dup2\n      add\n      swap3\n      dup3\n      tag_30\n      jumpi\n      0x00\n      dup6\n      sstore\n      jump(tag_29)\n    tag_30:\n      dup3\n      0x1f\n      lt\n      tag_31\n      jumpi\n      dup1\n      calldataload\n      not(0xff)\n      and\n      dup4\n      dup1\n      add\n      or\n      dup6\n      sstore\n      jump(tag_29)\n    tag_31:\n      dup3\n      dup1\n      add\n      0x01\n      add\n      dup6\n      sstore\n      dup3\n      iszero\n      tag_29\n      jumpi\n      swap2\n      dup3\n      add\n    tag_32:\n      dup3\n      dup2\n      gt\n      iszero\n      tag_33\n      jumpi\n      dup3\n      calldataload\n      dup3\n      sstore\n      swap2\n      0x20\n      add\n      swap2\n      swap1\n      0x01\n      add\n      swap1\n      jump(tag_32)\n    tag_33:\n    tag_29:\n      pop\n      swap1\n      pop\n      tag_34\n      swap2\n      swap1\n      tag_35\n      jump\t// in\n    tag_34:\n      pop\n      swap1\n      jump\t// out\n    tag_35:\n    tag_36:\n      dup1\n      dup3\n      gt\n      iszero\n      tag_37\n      jumpi\n      0x00\n      dup2\n      0x00\n      swap1\n      sstore\n      pop\n      0x01\n      add\n      jump(tag_36)\n    tag_37:\n      pop\n      swap1\n      jump\t// out\n        /* \"#utility.yul\":21:574   */\n    tag_39:\n        /* \"#utility.yul\":79:87   */\n      0x00\n        /* \"#utility.yul\":89:95   */\n      dup1\n        /* \"#utility.yul\":139:142   */\n      dup4\n        /* \"#utility.yul\":132:136   */\n      0x1f\n        /* \"#utility.yul\":124:130   */\n      dup5\n        /* \"#utility.yul\":120:137   */\n      add\n        /* \"#utility.yul\":116:143   */\n      slt\n        /* \"#utility.yul\":106:228   */\n      tag_41\n      jumpi\n        /* \"#utility.yul\":147:226   */\n      tag_42\n      tag_43\n      jump\t// in\n    tag_42:\n        /* \"#utility.yul\":106:228   */\n    tag_41:\n        /* \"#utility.yul\":260:266   */\n      dup3\n        /* \"#utility.yul\":247:267   */\n      calldataload\n        /* \"#utility.yul\":237:267   */\n      swap1\n      pop\n        /* \"#utility.yul\":290:308   */\n      0xffffffffffffffff\n        /* \"#utility.yul\":282:288   */\n      dup2\n        /* \"#utility.yul\":279:309   */\n      gt\n        /* \"#utility.yul\":276:393   */\n      iszero\n      tag_44\n      jumpi\n        /* \"#utility.yul\":312:391   */\n      tag_45\n      tag_46\n      jump\t// in\n    tag_45:\n        /* \"#utility.yul\":276:393   */\n    tag_44:\n        /* \"#utility.yul\":426:430   */\n      0x20\n        /* \"#utility.yul\":418:424   */\n      dup4\n        /* \"#utility.yul\":414:431   */\n      add\n        /* \"#utility.yul\":402:431   */\n      swap2\n      pop\n        /* \"#utility.yul\":480:483   */\n      dup4\n        /* \"#utility.yul\":472:476   */\n      0x01\n        /* \"#utility.yul\":464:470   */\n      dup3\n        /* \"#utility.yul\":460:477   */\n      mul\n        /* \"#utility.yul\":450:458   */\n      dup4\n        /* \"#utility.yul\":446:478   */\n      add\n        /* \"#utility.yul\":443:484   */\n      gt\n        /* \"#utility.yul\":440:568   */\n      iszero\n      tag_47\n      jumpi\n        /* \"#utility.yul\":487:566   */\n      tag_48\n      tag_49\n      jump\t// in\n    tag_48:\n        /* \"#utility.yul\":440:568   */\n    tag_47:\n        /* \"#utility.yul\":21:574   */\n      swap3\n      pop\n      swap3\n      swap1\n      pop\n      jump\t// out\n        /* \"#utility.yul\":580:719   */\n    tag_50:\n        /* \"#utility.yul\":626:631   */\n      0x00\n        /* \"#utility.yul\":664:670   */\n      dup2\n        /* \"#utility.yul\":651:671   */\n      calldataload\n        /* \"#utility.yul\":642:671   */\n      swap1\n      pop\n        /* \"#utility.yul\":680:713   */\n      tag_52\n        /* \"#utility.yul\":707:712   */\n      dup2\n        /* \"#utility.yul\":680:713   */\n      tag_53\n      jump\t// in\n    tag_52:\n        /* \"#utility.yul\":580:719   */\n      swap3\n      swap2\n      pop\n      pop\n      jump\t// out\n        /* \"#utility.yul\":725:1744   */\n    tag_11:\n        /* \"#utility.yul\":826:832   */\n      0x00\n        /* \"#utility.yul\":834:840   */\n      dup1\n        /* \"#utility.yul\":842:848   */\n      0x00\n        /* \"#utility.yul\":850:856   */\n      dup1\n        /* \"#utility.yul\":858:864   */\n      0x00\n        /* \"#utility.yul\":907:909   */\n      0x60\n        /* \"#utility.yul\":895:904   */\n      dup7\n        /* \"#utility.yul\":886:893   */\n      dup9\n        /* \"#utility.yul\":882:905   */\n      sub\n        /* \"#utility.yul\":878:910   */\n      slt\n        /* \"#utility.yul\":875:994   */\n      iszero\n      tag_55\n      jumpi\n        /* \"#utility.yul\":913:992   */\n      tag_56\n      tag_57\n      jump\t// in\n    tag_56:\n        /* \"#utility.yul\":875:994   */\n    tag_55:\n        /* \"#utility.yul\":1061:1062   */\n      0x00\n        /* \"#utility.yul\":1050:1059   */\n      dup7\n        /* \"#utility.yul\":1046:1063   */\n      add\n        /* \"#utility.yul\":1033:1064   */\n      calldataload\n        /* \"#utility.yul\":1091:1109   */\n      0xffffffffffffffff\n        /* \"#utility.yul\":1083:1089   */\n      dup2\n        /* \"#utility.yul\":1080:1110   */\n      gt\n        /* \"#utility.yul\":1077:1194   */\n      iszero\n      tag_58\n      jumpi\n        /* \"#utility.yul\":1113:1192   */\n      tag_59\n      tag_60\n      jump\t// in\n    tag_59:\n        /* \"#utility.yul\":1077:1194   */\n    tag_58:\n        /* \"#utility.yul\":1226:1291   */\n      tag_61\n        /* \"#utility.yul\":1283:1290   */\n      dup9\n        /* \"#utility.yul\":1274:1280   */\n      dup3\n        /* \"#utility.yul\":1263:1272   */\n      dup10\n        /* \"#utility.yul\":1259:1281   */\n      add\n        /* \"#utility.yul\":1226:1291   */\n      tag_39\n      jump\t// in\n    tag_61:\n        /* \"#utility.yul\":1208:1291   */\n      swap6\n      pop\n      swap6\n      pop\n        /* \"#utility.yul\":1004:1301   */\n      pop\n        /* \"#utility.yul\":1368:1370   */\n      0x20\n        /* \"#utility.yul\":1357:1366   */\n      dup7\n        /* \"#utility.yul\":1353:1371   */\n      add\n        /* \"#utility.yul\":1340:1372   */\n      calldataload\n        /* \"#utility.yul\":1399:1417   */\n      0xffffffffffffffff\n        /* \"#utility.yul\":1391:1397   */\n      dup2\n        /* \"#utility.yul\":1388:1418   */\n      gt\n        /* \"#utility.yul\":1385:1502   */\n      iszero\n      tag_62\n      jumpi\n        /* \"#utility.yul\":1421:1500   */\n      tag_63\n      tag_60\n      jump\t// in\n    tag_63:\n        /* \"#utility.yul\":1385:1502   */\n    tag_62:\n        /* \"#utility.yul\":1534:1599   */\n      tag_64\n        /* \"#utility.yul\":1591:1598   */\n      dup9\n        /* \"#utility.yul\":1582:1588   */\n      dup3\n        /* \"#utility.yul\":1571:1580   */\n      dup10\n        /* \"#utility.yul\":1567:1589   */\n      add\n        /* \"#utility.yul\":1534:1599   */\n      tag_39\n      jump\t// in\n    tag_64:\n        /* \"#utility.yul\":1516:1599   */\n      swap4\n      pop\n      swap4\n      pop\n        /* \"#utility.yul\":1311:1609   */\n      pop\n        /* \"#utility.yul\":1648:1650   */\n      0x40\n        /* \"#utility.yul\":1674:1727   */\n      tag_65\n        /* \"#utility.yul\":1719:1726   */\n      dup9\n        /* \"#utility.yul\":1710:1716   */\n      dup3\n        /* \"#utility.yul\":1699:1708   */\n      dup10\n        /* \"#utility.yul\":1695:1717   */\n      add\n        /* \"#utility.yul\":1674:1727   */\n      tag_50\n      jump\t// in\n    tag_65:\n        /* \"#utility.yul\":1664:1727   */\n      swap2\n      pop\n        /* \"#utility.yul\":1619:1737   */\n      pop\n        /* \"#utility.yul\":725:1744   */\n      swap3\n      swap6\n      pop\n      swap3\n      swap6\n      swap1\n      swap4\n      pop\n      jump\t// out\n        /* \"#utility.yul\":1750:2114   */\n    tag_66:\n        /* \"#utility.yul\":1838:1841   */\n      0x00\n        /* \"#utility.yul\":1866:1905   */\n      tag_68\n        /* \"#utility.yul\":1899:1904   */\n      dup3\n        /* \"#utility.yul\":1866:1905   */\n      tag_69\n      jump\t// in\n    tag_68:\n        /* \"#utility.yul\":1921:1992   */\n      tag_70\n        /* \"#utility.yul\":1985:1991   */\n      dup2\n        /* \"#utility.yul\":1980:1983   */\n      dup6\n        /* \"#utility.yul\":1921:1992   */\n      tag_71\n      jump\t// in\n    tag_70:\n        /* \"#utility.yul\":1914:1992   */\n      swap4\n      pop\n        /* \"#utility.yul\":2001:2053   */\n      tag_72\n        /* \"#utility.yul\":2046:2052   */\n      dup2\n        /* \"#utility.yul\":2041:2044   */\n      dup6\n        /* \"#utility.yul\":2034:2038   */\n      0x20\n        /* \"#utility.yul\":2027:2032   */\n      dup7\n        /* \"#utility.yul\":2023:2039   */\n      add\n        /* \"#utility.yul\":2001:2053   */\n      tag_73\n      jump\t// in\n    tag_72:\n        /* \"#utility.yul\":2078:2107   */\n      tag_74\n        /* \"#utility.yul\":2100:2106   */\n      dup2\n        /* \"#utility.yul\":2078:2107   */\n      tag_75\n      jump\t// in\n    tag_74:\n        /* \"#utility.yul\":2073:2076   */\n      dup5\n        /* \"#utility.yul\":2069:2108   */\n      add\n        /* \"#utility.yul\":2062:2108   */\n      swap2\n      pop\n        /* \"#utility.yul\":1842:2114   */\n      pop\n        /* \"#utility.yul\":1750:2114   */\n      swap3\n      swap2\n      pop\n      pop\n      jump\t// out\n        /* \"#utility.yul\":2120:2238   */\n    tag_76:\n        /* \"#utility.yul\":2207:2231   */\n      tag_78\n        /* \"#utility.yul\":2225:2230   */\n      dup2\n        /* \"#utility.yul\":2207:2231   */\n      tag_79\n      jump\t// in\n    tag_78:\n        /* \"#utility.yul\":2202:2205   */\n      dup3\n        /* \"#utility.yul\":2195:2232   */\n      mstore\n        /* \"#utility.yul\":2120:2238   */\n      pop\n      pop\n      jump\t// out\n        /* \"#utility.yul\":2244:2868   */\n    tag_8:\n        /* \"#utility.yul\":2433:2437   */\n      0x00\n        /* \"#utility.yul\":2471:2473   */\n      0x60\n        /* \"#utility.yul\":2460:2469   */\n      dup3\n        /* \"#utility.yul\":2456:2474   */\n      add\n        /* \"#utility.yul\":2448:2474   */\n      swap1\n      pop\n        /* \"#utility.yul\":2520:2529   */\n      dup2\n        /* \"#utility.yul\":2514:2518   */\n      dup2\n        /* \"#utility.yul\":2510:2530   */\n      sub\n        /* \"#utility.yul\":2506:2507   */\n      0x00\n        /* \"#utility.yul\":2495:2504   */\n      dup4\n        /* \"#utility.yul\":2491:2508   */\n      add\n        /* \"#utility.yul\":2484:2531   */\n      mstore\n        /* \"#utility.yul\":2548:2626   */\n      tag_81\n        /* \"#utility.yul\":2621:2625   */\n      dup2\n        /* \"#utility.yul\":2612:2618   */\n      dup7\n        /* \"#utility.yul\":2548:2626   */\n      tag_66\n      jump\t// in\n    tag_81:\n        /* \"#utility.yul\":2540:2626   */\n      swap1\n      pop\n        /* \"#utility.yul\":2673:2682   */\n      dup2\n        /* \"#utility.yul\":2667:2671   */\n      dup2\n        /* \"#utility.yul\":2663:2683   */\n      sub\n        /* \"#utility.yul\":2658:2660   */\n      0x20\n        /* \"#utility.yul\":2647:2656   */\n      dup4\n        /* \"#utility.yul\":2643:2661   */\n      add\n        /* \"#utility.yul\":2636:2684   */\n      mstore\n        /* \"#utility.yul\":2701:2779   */\n      tag_82\n        /* \"#utility.yul\":2774:2778   */\n      dup2\n        /* \"#utility.yul\":2765:2771   */\n      dup6\n        /* \"#utility.yul\":2701:2779   */\n      tag_66\n      jump\t// in\n    tag_82:\n        /* \"#utility.yul\":2693:2779   */\n      swap1\n      pop\n        /* \"#utility.yul\":2789:2861   */\n      tag_83\n        /* \"#utility.yul\":2857:2859   */\n      0x40\n        /* \"#utility.yul\":2846:2855   */\n      dup4\n        /* \"#utility.yul\":2842:2860   */\n      add\n        /* \"#utility.yul\":2833:2839   */\n      dup5\n        /* \"#utility.yul\":2789:2861   */\n      tag_76\n      jump\t// in\n    tag_83:\n        /* \"#utility.yul\":2244:2868   */\n      swap5\n      swap4\n      pop\n      pop\n      pop\n      pop\n      jump\t// out\n        /* \"#utility.yul\":2955:3054   */\n    tag_69:\n        /* \"#utility.yul\":3007:3013   */\n      0x00\n        /* \"#utility.yul\":3041:3046   */\n      dup2\n        /* \"#utility.yul\":3035:3047   */\n      mload\n        /* \"#utility.yul\":3025:3047   */\n      swap1\n      pop\n        /* \"#utility.yul\":2955:3054   */\n      swap2\n      swap1\n      pop\n      jump\t// out\n        /* \"#utility.yul\":3060:3229   */\n    tag_71:\n        /* \"#utility.yul\":3144:3155   */\n      0x00\n        /* \"#utility.yul\":3178:3184   */\n      dup3\n        /* \"#utility.yul\":3173:3176   */\n      dup3\n        /* \"#utility.yul\":3166:3185   */\n      mstore\n        /* \"#utility.yul\":3218:3222   */\n      0x20\n        /* \"#utility.yul\":3213:3216   */\n      dup3\n        /* \"#utility.yul\":3209:3223   */\n      add\n        /* \"#utility.yul\":3194:3223   */\n      swap1\n      pop\n        /* \"#utility.yul\":3060:3229   */\n      swap3\n      swap2\n      pop\n      pop\n      jump\t// out\n        /* \"#utility.yul\":3235:3312   */\n    tag_79:\n        /* \"#utility.yul\":3272:3279   */\n      0x00\n        /* \"#utility.yul\":3301:3306   */\n      dup2\n        /* \"#utility.yul\":3290:3306   */\n      swap1\n      pop\n        /* \"#utility.yul\":3235:3312   */\n      swap2\n      swap1\n      pop\n      jump\t// out\n        /* \"#utility.yul\":3318:3625   */\n    tag_73:\n        /* \"#utility.yul\":3386:3387   */\n      0x00\n        /* \"#utility.yul\":3396:3509   */\n    tag_90:\n        /* \"#utility.yul\":3410:3416   */\n      dup4\n        /* \"#utility.yul\":3407:3408   */\n      dup2\n        /* \"#utility.yul\":3404:3417   */\n      lt\n        /* \"#utility.yul\":3396:3509   */\n      iszero\n      tag_92\n      jumpi\n        /* \"#utility.yul\":3495:3496   */\n      dup1\n        /* \"#utility.yul\":3490:3493   */\n      dup3\n        /* \"#utility.yul\":3486:3497   */\n      add\n        /* \"#utility.yul\":3480:3498   */\n      mload\n        /* \"#utility.yul\":3476:3477   */\n      dup2\n        /* \"#utility.yul\":3471:3474   */\n      dup5\n        /* \"#utility.yul\":3467:3478   */\n      add\n        /* \"#utility.yul\":3460:3499   */\n      mstore\n        /* \"#utility.yul\":3432:3434   */\n      0x20\n        /* \"#utility.yul\":3429:3430   */\n      dup2\n        /* \"#utility.yul\":3425:3435   */\n      add\n        /* \"#utility.yul\":3420:3435   */\n      swap1\n      pop\n        /* \"#utility.yul\":3396:3509   */\n      jump(tag_90)\n    tag_92:\n        /* \"#utility.yul\":3527:3533   */\n      dup4\n        /* \"#utility.yul\":3524:3525   */\n      dup2\n        /* \"#utility.yul\":3521:3534   */\n      gt\n        /* \"#utility.yul\":3518:3619   */\n      iszero\n      tag_93\n      jumpi\n        /* \"#utility.yul\":3607:3608   */\n      0x00\n        /* \"#utility.yul\":3598:3604   */\n      dup5\n        /* \"#utility.yul\":3593:3596   */\n      dup5\n        /* \"#utility.yul\":3589:3605   */\n      add\n        /* \"#utility.yul\":3582:3609   */\n      mstore\n        /* \"#utility.yul\":3518:3619   */\n    tag_93:\n        /* \"#utility.yul\":3367:3625   */\n      pop\n        /* \"#utility.yul\":3318:3625   */\n      pop\n      pop\n      pop\n      jump\t// out\n        /* \"#utility.yul\":3631:3951   */\n    tag_14:\n        /* \"#utility.yul\":3675:3681   */\n      0x00\n        /* \"#utility.yul\":3712:3713   */\n      0x02\n        /* \"#utility.yul\":3706:3710   */\n      dup3\n        /* \"#utility.yul\":3702:3714   */\n      div\n        /* \"#utility.yul\":3692:3714   */\n      swap1\n      pop\n        /* \"#utility.yul\":3759:3760   */\n      0x01\n        /* \"#utility.yul\":3753:3757   */\n      dup3\n        /* \"#utility.yul\":3749:3761   */\n      and\n        /* \"#utility.yul\":3780:3798   */\n      dup1\n        /* \"#utility.yul\":3770:3851   */\n      tag_95\n      jumpi\n        /* \"#utility.yul\":3836:3840   */\n      0x7f\n        /* \"#utility.yul\":3828:3834   */\n      dup3\n        /* \"#utility.yul\":3824:3841   */\n      and\n        /* \"#utility.yul\":3814:3841   */\n      swap2\n      pop\n        /* \"#utility.yul\":3770:3851   */\n    tag_95:\n        /* \"#utility.yul\":3898:3900   */\n      0x20\n        /* \"#utility.yul\":3890:3896   */\n      dup3\n        /* \"#utility.yul\":3887:3901   */\n      lt\n        /* \"#utility.yul\":3867:3885   */\n      dup2\n        /* \"#utility.yul\":3864:3902   */\n      eq\n        /* \"#utility.yul\":3861:3945   */\n      iszero\n      tag_96\n      jumpi\n        /* \"#utility.yul\":3917:3935   */\n      tag_97\n      tag_98\n      jump\t// in\n    tag_97:\n        /* \"#utility.yul\":3861:3945   */\n    tag_96:\n        /* \"#utility.yul\":3682:3951   */\n      pop\n        /* \"#utility.yul\":3631:3951   */\n      swap2\n      swap1\n      pop\n      jump\t// out\n        /* \"#utility.yul\":3957:4137   */\n    tag_98:\n        /* \"#utility.yul\":4005:4082   */\n      0x4e487b7100000000000000000000000000000000000000000000000000000000\n        /* \"#utility.yul\":4002:4003   */\n      0x00\n        /* \"#utility.yul\":3995:4083   */\n      mstore\n        /* \"#utility.yul\":4102:4106   */\n      0x22\n        /* \"#utility.yul\":4099:4100   */\n      0x04\n        /* \"#utility.yul\":4092:4107   */\n      mstore\n        /* \"#utility.yul\":4126:4130   */\n      0x24\n        /* \"#utility.yul\":4123:4124   */\n      0x00\n        /* \"#utility.yul\":4116:4131   */\n      revert\n        /* \"#utility.yul\":4143:4260   */\n    tag_46:\n        /* \"#utility.yul\":4252:4253   */\n      0x00\n        /* \"#utility.yul\":4249:4250   */\n      dup1\n        /* \"#utility.yul\":4242:4254   */\n      revert\n        /* \"#utility.yul\":4266:4383   */\n    tag_43:\n        /* \"#utility.yul\":4375:4376   */\n      0x00\n        /* \"#utility.yul\":4372:4373   */\n      dup1\n        /* \"#utility.yul\":4365:4377   */\n      revert\n        /* \"#utility.yul\":4389:4506   */\n    tag_49:\n        /* \"#utility.yul\":4498:4499   */\n      0x00\n        /* \"#utility.yul\":4495:4496   */\n      dup1\n        /* \"#utility.yul\":4488:4500   */\n      revert\n        /* \"#utility.yul\":4512:4629   */\n    tag_60:\n        /* \"#utility.yul\":4621:4622   */\n      0x00\n        /* \"#utility.yul\":4618:4619   */\n      dup1\n        /* \"#utility.yul\":4611:4623   */\n      revert\n        /* \"#utility.yul\":4635:4752   */\n    tag_57:\n        /* \"#utility.yul\":4744:4745   */\n      0x00\n        /* \"#utility.yul\":4741:4742   */\n      dup1\n        /* \"#utility.yul\":4734:4746   */\n      revert\n        /* \"#utility.yul\":4758:4860   */\n    tag_75:\n        /* \"#utility.yul\":4799:4805   */\n      0x00\n        /* \"#utility.yul\":4850:4852   */\n      0x1f\n        /* \"#utility.yul\":4846:4853   */\n      not\n        /* \"#utility.yul\":4841:4843   */\n      0x1f\n        /* \"#utility.yul\":4834:4839   */\n      dup4\n        /* \"#utility.yul\":4830:4844   */\n      add\n        /* \"#utility.yul\":4826:4854   */\n      and\n        /* \"#utility.yul\":4816:4854   */\n      swap1\n      pop\n        /* \"#utility.yul\":4758:4860   */\n      swap2\n      swap1\n      pop\n      jump\t// out\n        /* \"#utility.yul\":4866:4988   */\n    tag_53:\n        /* \"#utility.yul\":4939:4963   */\n      tag_107\n        /* \"#utility.yul\":4957:4962   */\n      dup2\n        /* \"#utility.yul\":4939:4963   */\n      tag_79\n      jump\t// in\n    tag_107:\n        /* \"#utility.yul\":4932:4937   */\n      dup2\n        /* \"#utility.yul\":4929:4964   */\n      eq\n        /* \"#utility.yul\":4919:4982   */\n      tag_108\n      jumpi\n        /* \"#utility.yul\":4978:4979   */\n      0x00\n        /* \"#utility.yul\":4975:4976   */\n      dup1\n        /* \"#utility.yul\":4968:4980   */\n      revert\n        /* \"#utility.yul\":4919:4982   */\n    tag_108:\n        /* \"#utility.yul\":4866:4988   */\n      pop\n      jump\t// out\n\n    auxdata: 0xa26469706673582212201c9688c3e73c25db23a36506ee89f819e2823a0621c38b097c44c8883c1e109e64736f6c63430008070033\n}\n",
				"bytecode": {
					"linkReferences": {},
					"object": "608060405234801561001057600080fd5b5061053a806100206000396000f3fe608060405234801561001057600080fd5b50600436106100365760003560e01c806377ec2b551461003b578063ef46b77c1461005b575b600080fd5b610043610077565b604051610052939291906103c4565b60405180910390f35b610075600480360381019061007091906102e7565b61019f565b005b600080600001805461008890610462565b80601f01602080910402602001604051908101604052809291908181526020018280546100b490610462565b80156101015780601f106100d657610100808354040283529160200191610101565b820191906000526020600020905b8154815290600101906020018083116100e457829003601f168201915b50505050509080600101805461011690610462565b80601f016020809104026020016040519081016040528092919081815260200182805461014290610462565b801561018f5780601f106101645761010080835404028352916020019161018f565b820191906000526020600020905b81548152906001019060200180831161017257829003601f168201915b5050505050908060020154905083565b84846000800191906101b29291906101d9565b508282600060010191906101c79291906101d9565b50806000600201819055505050505050565b8280546101e590610462565b90600052602060002090601f016020900481019282610207576000855561024e565b82601f1061022057803560ff191683800117855561024e565b8280016001018555821561024e579182015b8281111561024d578235825591602001919060010190610232565b5b50905061025b919061025f565b5090565b5b80821115610278576000816000905550600101610260565b5090565b60008083601f840112610292576102916104c8565b5b8235905067ffffffffffffffff8111156102af576102ae6104c3565b5b6020830191508360018202830111156102cb576102ca6104cd565b5b9250929050565b6000813590506102e1816104ed565b92915050565b600080600080600060608688031215610303576103026104d7565b5b600086013567ffffffffffffffff811115610321576103206104d2565b5b61032d8882890161027c565b9550955050602086013567ffffffffffffffff8111156103505761034f6104d2565b5b61035c8882890161027c565b9350935050604061036f888289016102d2565b9150509295509295909350565b600061038782610409565b6103918185610414565b93506103a181856020860161042f565b6103aa816104dc565b840191505092915050565b6103be81610425565b82525050565b600060608201905081810360008301526103de818661037c565b905081810360208301526103f2818561037c565b905061040160408301846103b5565b949350505050565b600081519050919050565b600082825260208201905092915050565b6000819050919050565b60005b8381101561044d578082015181840152602081019050610432565b8381111561045c576000848401525b50505050565b6000600282049050600182168061047a57607f821691505b6020821081141561048e5761048d610494565b5b50919050565b7f4e487b7100000000000000000000000000000000000000000000000000000000600052602260045260246000fd5b600080fd5b600080fd5b600080fd5b600080fd5b600080fd5b6000601f19601f8301169050919050565b6104f681610425565b811461050157600080fd5b5056fea26469706673582212201c9688c3e73c25db23a36506ee89f819e2823a0621c38b097c44c8883c1e109e64736f6c63430008070033",
					"opcodes": "PUSH1 0x80 PUSH1 0x40 MSTORE CALLVALUE DUP1 ISZERO PUSH2 0x10 JUMPI PUSH1 0x0 DUP1 REVERT JUMPDEST POP PUSH2 0x53A DUP1 PUSH2 0x20 PUSH1 0x0 CODECOPY PUSH1 0x0 RETURN INVALID PUSH1 0x80 PUSH1 0x40 MSTORE CALLVALUE DUP1 ISZERO PUSH2 0x10 JUMPI PUSH1 0x0 DUP1 REVERT JUMPDEST POP PUSH1 0x4 CALLDATASIZE LT PUSH2 0x36 JUMPI PUSH1 0x0 CALLDATALOAD PUSH1 0xE0 SHR DUP1 PUSH4 0x77EC2B55 EQ PUSH2 0x3B JUMPI DUP1 PUSH4 0xEF46B77C EQ PUSH2 0x5B JUMPI JUMPDEST PUSH1 0x0 DUP1 REVERT JUMPDEST PUSH2 0x43 PUSH2 0x77 JUMP JUMPDEST PUSH1 0x40 MLOAD PUSH2 0x52 SWAP4 SWAP3 SWAP2 SWAP1 PUSH2 0x3C4 JUMP JUMPDEST PUSH1 0x40 MLOAD DUP1 SWAP2 SUB SWAP1 RETURN JUMPDEST PUSH2 0x75 PUSH1 0x4 DUP1 CALLDATASIZE SUB DUP2 ADD SWAP1 PUSH2 0x70 SWAP2 SWAP1 PUSH2 0x2E7 JUMP JUMPDEST PUSH2 0x19F JUMP JUMPDEST STOP JUMPDEST PUSH1 0x0 DUP1 PUSH1 0x0 ADD DUP1 SLOAD PUSH2 0x88 SWAP1 PUSH2 0x462 JUMP JUMPDEST DUP1 PUSH1 0x1F ADD PUSH1 0x20 DUP1 SWAP2 DIV MUL PUSH1 0x20 ADD PUSH1 0x40 MLOAD SWAP1 DUP2 ADD PUSH1 0x40 MSTORE DUP1 SWAP3 SWAP2 SWAP1 DUP2 DUP2 MSTORE PUSH1 0x20 ADD DUP3 DUP1 SLOAD PUSH2 0xB4 SWAP1 PUSH2 0x462 JUMP JUMPDEST DUP1 ISZERO PUSH2 0x101 JUMPI DUP1 PUSH1 0x1F LT PUSH2 0xD6 JUMPI PUSH2 0x100 DUP1 DUP4 SLOAD DIV MUL DUP4 MSTORE SWAP2 PUSH1 0x20 ADD SWAP2 PUSH2 0x101 JUMP JUMPDEST DUP3 ADD SWAP2 SWAP1 PUSH1 0x0 MSTORE PUSH1 0x20 PUSH1 0x0 KECCAK256 SWAP1 JUMPDEST DUP2 SLOAD DUP2 MSTORE SWAP1 PUSH1 0x1 ADD SWAP1 PUSH1 0x20 ADD DUP1 DUP4 GT PUSH2 0xE4 JUMPI DUP3 SWAP1 SUB PUSH1 0x1F AND DUP3 ADD SWAP2 JUMPDEST POP POP POP POP POP SWAP1 DUP1 PUSH1 0x1 ADD DUP1 SLOAD PUSH2 0x116 SWAP1 PUSH2 0x462 JUMP JUMPDEST DUP1 PUSH1 0x1F ADD PUSH1 0x20 DUP1 SWAP2 DIV MUL PUSH1 0x20 ADD PUSH1 0x40 MLOAD SWAP1 DUP2 ADD PUSH1 0x40 MSTORE DUP1 SWAP3 SWAP2 SWAP1 DUP2 DUP2 MSTORE PUSH1 0x20 ADD DUP3 DUP1 SLOAD PUSH2 0x142 SWAP1 PUSH2 0x462 JUMP JUMPDEST DUP1 ISZERO PUSH2 0x18F JUMPI DUP1 PUSH1 0x1F LT PUSH2 0x164 JUMPI PUSH2 0x100 DUP1 DUP4 SLOAD DIV MUL DUP4 MSTORE SWAP2 PUSH1 0x20 ADD SWAP2 PUSH2 0x18F JUMP JUMPDEST DUP3 ADD SWAP2 SWAP1 PUSH1 0x0 MSTORE PUSH1 0x20 PUSH1 0x0 KECCAK256 SWAP1 JUMPDEST DUP2 SLOAD DUP2 MSTORE SWAP1 PUSH1 0x1 ADD SWAP1 PUSH1 0x20 ADD DUP1 DUP4 GT PUSH2 0x172 JUMPI DUP3 SWAP1 SUB PUSH1 0x1F AND DUP3 ADD SWAP2 JUMPDEST POP POP POP POP POP SWAP1 DUP1 PUSH1 0x2 ADD SLOAD SWAP1 POP DUP4 JUMP JUMPDEST DUP5 DUP5 PUSH1 0x0 DUP1 ADD SWAP2 SWAP1 PUSH2 0x1B2 SWAP3 SWAP2 SWAP1 PUSH2 0x1D9 JUMP JUMPDEST POP DUP3 DUP3 PUSH1 0x0 PUSH1 0x1 ADD SWAP2 SWAP1 PUSH2 0x1C7 SWAP3 SWAP2 SWAP1 PUSH2 0x1D9 JUMP JUMPDEST POP DUP1 PUSH1 0x0 PUSH1 0x2 ADD DUP2 SWAP1 SSTORE POP POP POP POP POP POP JUMP JUMPDEST DUP3 DUP1 SLOAD PUSH2 0x1E5 SWAP1 PUSH2 0x462 JUMP JUMPDEST SWAP1 PUSH1 0x0 MSTORE PUSH1 0x20 PUSH1 0x0 KECCAK256 SWAP1 PUSH1 0x1F ADD PUSH1 0x20 SWAP1 DIV DUP2 ADD SWAP3 DUP3 PUSH2 0x207 JUMPI PUSH1 0x0 DUP6 SSTORE PUSH2 0x24E JUMP JUMPDEST DUP3 PUSH1 0x1F LT PUSH2 0x220 JUMPI DUP1 CALLDATALOAD PUSH1 0xFF NOT AND DUP4 DUP1 ADD OR DUP6 SSTORE PUSH2 0x24E JUMP JUMPDEST DUP3 DUP1 ADD PUSH1 0x1 ADD DUP6 SSTORE DUP3 ISZERO PUSH2 0x24E JUMPI SWAP2 DUP3 ADD JUMPDEST DUP3 DUP2 GT ISZERO PUSH2 0x24D JUMPI DUP3 CALLDATALOAD DUP3 SSTORE SWAP2 PUSH1 0x20 ADD SWAP2 SWAP1 PUSH1 0x1 ADD SWAP1 PUSH2 0x232 JUMP JUMPDEST JUMPDEST POP SWAP1 POP PUSH2 0x25B SWAP2 SWAP1 PUSH2 0x25F JUMP JUMPDEST POP SWAP1 JUMP JUMPDEST JUMPDEST DUP1 DUP3 GT ISZERO PUSH2 0x278 JUMPI PUSH1 0x0 DUP2 PUSH1 0x0 SWAP1 SSTORE POP PUSH1 0x1 ADD PUSH2 0x260 JUMP JUMPDEST POP SWAP1 JUMP JUMPDEST PUSH1 0x0 DUP1 DUP4 PUSH1 0x1F DUP5 ADD SLT PUSH2 0x292 JUMPI PUSH2 0x291 PUSH2 0x4C8 JUMP JUMPDEST JUMPDEST DUP3 CALLDATALOAD SWAP1 POP PUSH8 0xFFFFFFFFFFFFFFFF DUP2 GT ISZERO PUSH2 0x2AF JUMPI PUSH2 0x2AE PUSH2 0x4C3 JUMP JUMPDEST JUMPDEST PUSH1 0x20 DUP4 ADD SWAP2 POP DUP4 PUSH1 0x1 DUP3 MUL DUP4 ADD GT ISZERO PUSH2 0x2CB JUMPI PUSH2 0x2CA PUSH2 0x4CD JUMP JUMPDEST JUMPDEST SWAP3 POP SWAP3 SWAP1 POP JUMP JUMPDEST PUSH1 0x0 DUP2 CALLDATALOAD SWAP1 POP PUSH2 0x2E1 DUP2 PUSH2 0x4ED JUMP JUMPDEST SWAP3 SWAP2 POP POP JUMP JUMPDEST PUSH1 0x0 DUP1 PUSH1 0x0 DUP1 PUSH1 0x0 PUSH1 0x60 DUP7 DUP9 SUB SLT ISZERO PUSH2 0x303 JUMPI PUSH2 0x302 PUSH2 0x4D7 JUMP JUMPDEST JUMPDEST PUSH1 0x0 DUP7 ADD CALLDATALOAD PUSH8 0xFFFFFFFFFFFFFFFF DUP2 GT ISZERO PUSH2 0x321 JUMPI PUSH2 0x320 PUSH2 0x4D2 JUMP JUMPDEST JUMPDEST PUSH2 0x32D DUP9 DUP3 DUP10 ADD PUSH2 0x27C JUMP JUMPDEST SWAP6 POP SWAP6 POP POP PUSH1 0x20 DUP7 ADD CALLDATALOAD PUSH8 0xFFFFFFFFFFFFFFFF DUP2 GT ISZERO PUSH2 0x350 JUMPI PUSH2 0x34F PUSH2 0x4D2 JUMP JUMPDEST JUMPDEST PUSH2 0x35C DUP9 DUP3 DUP10 ADD PUSH2 0x27C JUMP JUMPDEST SWAP4 POP SWAP4 POP POP PUSH1 0x40 PUSH2 0x36F DUP9 DUP3 DUP10 ADD PUSH2 0x2D2 JUMP JUMPDEST SWAP2 POP POP SWAP3 SWAP6 POP SWAP3 SWAP6 SWAP1 SWAP4 POP JUMP JUMPDEST PUSH1 0x0 PUSH2 0x387 DUP3 PUSH2 0x409 JUMP JUMPDEST PUSH2 0x391 DUP2 DUP6 PUSH2 0x414 JUMP JUMPDEST SWAP4 POP PUSH2 0x3A1 DUP2 DUP6 PUSH1 0x20 DUP7 ADD PUSH2 0x42F JUMP JUMPDEST PUSH2 0x3AA DUP2 PUSH2 0x4DC JUMP JUMPDEST DUP5 ADD SWAP2 POP POP SWAP3 SWAP2 POP POP JUMP JUMPDEST PUSH2 0x3BE DUP2 PUSH2 0x425 JUMP JUMPDEST DUP3 MSTORE POP POP JUMP JUMPDEST PUSH1 0x0 PUSH1 0x60 DUP3 ADD SWAP1 POP DUP2 DUP2 SUB PUSH1 0x0 DUP4 ADD MSTORE PUSH2 0x3DE DUP2 DUP7 PUSH2 0x37C JUMP JUMPDEST SWAP1 POP DUP2 DUP2 SUB PUSH1 0x20 DUP4 ADD MSTORE PUSH2 0x3F2 DUP2 DUP6 PUSH2 0x37C JUMP JUMPDEST SWAP1 POP PUSH2 0x401 PUSH1 0x40 DUP4 ADD DUP5 PUSH2 0x3B5 JUMP JUMPDEST SWAP5 SWAP4 POP POP POP POP JUMP JUMPDEST PUSH1 0x0 DUP2 MLOAD SWAP1 POP SWAP2 SWAP1 POP JUMP JUMPDEST PUSH1 0x0 DUP3 DUP3 MSTORE PUSH1 0x20 DUP3 ADD SWAP1 POP SWAP3 SWAP2 POP POP JUMP JUMPDEST PUSH1 0x0 DUP2 SWAP1 POP SWAP2 SWAP1 POP JUMP JUMPDEST PUSH1 0x0 JUMPDEST DUP4 DUP2 LT ISZERO PUSH2 0x44D JUMPI DUP1 DUP3 ADD MLOAD DUP2 DUP5 ADD MSTORE PUSH1 0x20 DUP2 ADD SWAP1 POP PUSH2 0x432 JUMP JUMPDEST DUP4 DUP2 GT ISZERO PUSH2 0x45C JUMPI PUSH1 0x0 DUP5 DUP5 ADD MSTORE JUMPDEST POP POP POP POP JUMP JUMPDEST PUSH1 0x0 PUSH1 0x2 DUP3 DIV SWAP1 POP PUSH1 0x1 DUP3 AND DUP1 PUSH2 0x47A JUMPI PUSH1 0x7F DUP3 AND SWAP2 POP JUMPDEST PUSH1 0x20 DUP3 LT DUP2 EQ ISZERO PUSH2 0x48E JUMPI PUSH2 0x48D PUSH2 0x494 JUMP JUMPDEST JUMPDEST POP SWAP2 SWAP1 POP JUMP JUMPDEST PUSH32 0x4E487B7100000000000000000000000000000000000000000000000000000000 PUSH1 0x0 MSTORE PUSH1 0x22 PUSH1 0x4 MSTORE PUSH1 0x24 PUSH1 0x0 REVERT JUMPDEST PUSH1 0x0 DUP1 REVERT JUMPDEST PUSH1 0x0 DUP1 REVERT JUMPDEST PUSH1 0x0 DUP1 REVERT JUMPDEST PUSH1 0x0 DUP1 REVERT JUMPDEST PUSH1 0x0 DUP1 REVERT JUMPDEST PUSH1 0x0 PUSH1 0x1F NOT PUSH1 0x1F DUP4 ADD AND SWAP1 POP SWAP2 SWAP1 POP JUMP JUMPDEST PUSH2 0x4F6 DUP2 PUSH2 0x425 JUMP JUMPDEST DUP2 EQ PUSH2 0x501 JUMPI PUSH1 0x0 DUP1 REVERT JUMPDEST POP JUMP INVALID LOG2 PUSH5 0x6970667358 0x22 SLT KECCAK256 SHR SWAP7 DUP9 0xC3 0xE7 EXTCODECOPY 0x25 0xDB 0x23 LOG3 PUSH6 0x6EE89F819E2 DUP3 GASPRICE MOD 0x21 0xC3 DUP12 MULMOD PUSH29 0x44C8883C1E109E64736F6C634300080700330000000000000000000000 "
				},
				"gasEstimates": {
					"creation": {
						"codeDepositCost": "267600",
						"executionCost": "306",
						"totalCost": "267906"
					},
					"external": {
						"initial(string,string,uint256)": "infinite",
						"person()": "infinite"
					}
				},
				"methodIdentifiers": {
					"initial(string,string,uint256)": "ef46b77c",
					"person()": "77ec2b55"
				}
			},
			"storageLayout": {
				"storage": [
					{
						"astId": 11,
						"contract": "StructType.sol:StructType",
						"label": "person",
						"offset": 0,
						"slot": "0",
						"type": "t_struct(Person)8_storage"
					}
				],
				"types": {
					"t_string_storage": {
						"encoding": "bytes",
						"label": "string",
						"numberOfBytes": "32"
					},
					"t_struct(Person)8_storage": {
						"encoding": "inplace",
						"label": "struct StructType.Person",
						"members": [
							{
								"astId": 3,
								"contract": "StructType.sol:StructType",
								"label": "name",
								"offset": 0,
								"slot": "0",
								"type": "t_string_storage"
							},
							{
								"astId": 5,
								"contract": "StructType.sol:StructType",
								"label": "gender",
								"offset": 0,
								"slot": "1",
								"type": "t_string_storage"
							},
							{
								"astId": 7,
								"contract": "StructType.sol:StructType",
								"label": "age",
								"offset": 0,
								"slot": "2",
								"type": "t_uint256"
							}
						],
						"numberOfBytes": "96"
					},
					"t_uint256": {
						"encoding": "inplace",
						"label": "uint256",
						"numberOfBytes": "32"
					}
				}
			},
			"userdoc": {
				"kind": "user",
				"methods": {},
				"version": 1
			}
		}
	}
}