{
	"StoreType.sol": {
		"Counter": {
			"abi": [
				{
					"inputs": [],
					"name": "start",
					"outputs": [
						{
							"internalType": "uint256",
							"name": "sum",
							"type": "uint256"
						}
					],
					"stateMutability": "pure",
					"type": "function"
				}
			],
			"devdoc": {
				"kind": "dev",
				"methods": {},
				"version": 1
			},
			"evm": {
				"assembly": "    /* \"StoreType.sol\":702:1234  contract Counter {... */\n  mstore(0x40, 0x80)\n  callvalue\n  dup1\n  iszero\n  tag_1\n  jumpi\n  0x00\n  dup1\n  revert\ntag_1:\n  pop\n  dataSize(sub_0)\n  dup1\n  dataOffset(sub_0)\n  0x00\n  codecopy\n  0x00\n  return\nstop\n\nsub_0: assembly {\n        /* \"StoreType.sol\":702:1234  contract Counter {... */\n      mstore(0x40, 0x80)\n      callvalue\n      dup1\n      iszero\n      tag_1\n      jumpi\n      0x00\n      dup1\n      revert\n    tag_1:\n      pop\n      jumpi(tag_2, lt(calldatasize, 0x04))\n      shr(0xe0, calldataload(0x00))\n      dup1\n      0xbe9a6555\n      eq\n      tag_3\n      jumpi\n    tag_2:\n      0x00\n      dup1\n      revert\n        /* \"StoreType.sol\":725:1232  function start() external pure returns (uint sum) {... */\n    tag_3:\n      tag_4\n      tag_5\n      jump\t// in\n    tag_4:\n      mload(0x40)\n      tag_6\n      swap2\n      swap1\n      tag_7\n      jump\t// in\n    tag_6:\n      mload(0x40)\n      dup1\n      swap2\n      sub\n      swap1\n      return\n    tag_5:\n        /* \"StoreType.sol\":765:773  uint sum */\n      0x00\n        /* \"StoreType.sol\":785:792  uint a1 */\n      dup1\n        /* \"StoreType.sol\":795:796  1 */\n      0x01\n        /* \"StoreType.sol\":785:796  uint a1 = 1 */\n      swap1\n      pop\n        /* \"StoreType.sol\":806:813  uint a2 */\n      0x00\n        /* \"StoreType.sol\":816:817  1 */\n      0x01\n        /* \"StoreType.sol\":806:817  uint a2 = 1 */\n      swap1\n      pop\n        /* \"StoreType.sol\":827:834  uint a3 */\n      0x00\n        /* \"StoreType.sol\":837:838  1 */\n      0x01\n        /* \"StoreType.sol\":827:838  uint a3 = 1 */\n      swap1\n      pop\n        /* \"StoreType.sol\":848:855  uint a4 */\n      0x00\n        /* \"StoreType.sol\":858:859  1 */\n      0x01\n        /* \"StoreType.sol\":848:859  uint a4 = 1 */\n      swap1\n      pop\n        /* \"StoreType.sol\":869:876  uint a5 */\n      0x00\n        /* \"StoreType.sol\":879:880  1 */\n      0x01\n        /* \"StoreType.sol\":869:880  uint a5 = 1 */\n      swap1\n      pop\n        /* \"StoreType.sol\":1223:1225  a5 */\n      dup1\n        /* \"StoreType.sol\":1220:1222  a4 */\n      dup3\n        /* \"StoreType.sol\":1217:1219  a3 */\n      dup5\n        /* \"StoreType.sol\":1214:1216  a2 */\n      dup7\n        /* \"StoreType.sol\":1211:1213  a1 */\n      dup9\n        /* \"StoreType.sol\":1211:1216  a1+a2 */\n      tag_9\n      swap2\n      swap1\n      tag_10\n      jump\t// in\n    tag_9:\n        /* \"StoreType.sol\":1211:1219  a1+a2+a3 */\n      tag_11\n      swap2\n      swap1\n      tag_10\n      jump\t// in\n    tag_11:\n        /* \"StoreType.sol\":1211:1222  a1+a2+a3+a4 */\n      tag_12\n      swap2\n      swap1\n      tag_10\n      jump\t// in\n    tag_12:\n        /* \"StoreType.sol\":1211:1225  a1+a2+a3+a4+a5 */\n      tag_13\n      swap2\n      swap1\n      tag_10\n      jump\t// in\n    tag_13:\n        /* \"StoreType.sol\":1205:1225  sum = a1+a2+a3+a4+a5 */\n      swap6\n      pop\n        /* \"StoreType.sol\":775:1232  {... */\n      pop\n      pop\n      pop\n      pop\n      pop\n        /* \"StoreType.sol\":725:1232  function start() external pure returns (uint sum) {... */\n      swap1\n      jump\t// out\n        /* \"#utility.yul\":7:125   */\n    tag_15:\n        /* \"#utility.yul\":94:118   */\n      tag_17\n        /* \"#utility.yul\":112:117   */\n      dup2\n        /* \"#utility.yul\":94:118   */\n      tag_18\n      jump\t// in\n    tag_17:\n        /* \"#utility.yul\":89:92   */\n      dup3\n        /* \"#utility.yul\":82:119   */\n      mstore\n        /* \"#utility.yul\":7:125   */\n      pop\n      pop\n      jump\t// out\n        /* \"#utility.yul\":131:353   */\n    tag_7:\n        /* \"#utility.yul\":224:228   */\n      0x00\n        /* \"#utility.yul\":262:264   */\n      0x20\n        /* \"#utility.yul\":251:260   */\n      dup3\n        /* \"#utility.yul\":247:265   */\n      add\n        /* \"#utility.yul\":239:265   */\n      swap1\n      pop\n        /* \"#utility.yul\":275:346   */\n      tag_20\n        /* \"#utility.yul\":343:344   */\n      0x00\n        /* \"#utility.yul\":332:341   */\n      dup4\n        /* \"#utility.yul\":328:345   */\n      add\n        /* \"#utility.yul\":319:325   */\n      dup5\n        /* \"#utility.yul\":275:346   */\n      tag_15\n      jump\t// in\n    tag_20:\n        /* \"#utility.yul\":131:353   */\n      swap3\n      swap2\n      pop\n      pop\n      jump\t// out\n        /* \"#utility.yul\":359:664   */\n    tag_10:\n        /* \"#utility.yul\":399:402   */\n      0x00\n        /* \"#utility.yul\":418:438   */\n      tag_22\n        /* \"#utility.yul\":436:437   */\n      dup3\n        /* \"#utility.yul\":418:438   */\n      tag_18\n      jump\t// in\n    tag_22:\n        /* \"#utility.yul\":413:438   */\n      swap2\n      pop\n        /* \"#utility.yul\":452:472   */\n      tag_23\n        /* \"#utility.yul\":470:471   */\n      dup4\n        /* \"#utility.yul\":452:472   */\n      tag_18\n      jump\t// in\n    tag_23:\n        /* \"#utility.yul\":447:472   */\n      swap3\n      pop\n        /* \"#utility.yul\":606:607   */\n      dup3\n        /* \"#utility.yul\":538:604   */\n      0xffffffffffffffffffffffffffffffffffffffffffffffffffffffffffffffff\n        /* \"#utility.yul\":534:608   */\n      sub\n        /* \"#utility.yul\":531:532   */\n      dup3\n        /* \"#utility.yul\":528:609   */\n      gt\n        /* \"#utility.yul\":525:632   */\n      iszero\n      tag_24\n      jumpi\n        /* \"#utility.yul\":612:630   */\n      tag_25\n      tag_26\n      jump\t// in\n    tag_25:\n        /* \"#utility.yul\":525:632   */\n    tag_24:\n        /* \"#utility.yul\":656:657   */\n      dup3\n        /* \"#utility.yul\":653:654   */\n      dup3\n        /* \"#utility.yul\":649:658   */\n      add\n        /* \"#utility.yul\":642:658   */\n      swap1\n      pop\n        /* \"#utility.yul\":359:664   */\n      swap3\n      swap2\n      pop\n      pop\n      jump\t// out\n        /* \"#utility.yul\":670:747   */\n    tag_18:\n        /* \"#utility.yul\":707:714   */\n      0x00\n        /* \"#utility.yul\":736:741   */\n      dup2\n        /* \"#utility.yul\":725:741   */\n      swap1\n      pop\n        /* \"#utility.yul\":670:747   */\n      swap2\n      swap1\n      pop\n      jump\t// out\n        /* \"#utility.yul\":753:933   */\n    tag_26:\n        /* \"#utility.yul\":801:878   */\n      0x4e487b7100000000000000000000000000000000000000000000000000000000\n        /* \"#utility.yul\":798:799   */\n      0x00\n        /* \"#utility.yul\":791:879   */\n      mstore\n        /* \"#utility.yul\":898:902   */\n      0x11\n        /* \"#utility.yul\":895:896   */\n      0x04\n        /* \"#utility.yul\":888:903   */\n      mstore\n        /* \"#utility.yul\":922:926   */\n      0x24\n        /* \"#utility.yul\":919:920   */\n      0x00\n        /* \"#utility.yul\":912:927   */\n      revert\n\n    auxdata: 0xa2646970667358221220caaf3739d109e68071e99d1480e8894dc309d70d00e4a3d06f098756f942c06d64736f6c63430008070033\n}\n",
				"bytecode": {
					"linkReferences": {},
					"object": "608060405234801561001057600080fd5b50610193806100206000396000f3fe608060405234801561001057600080fd5b506004361061002b5760003560e01c8063be9a655514610030575b600080fd5b61003861004e565b60405161004591906100b3565b60405180910390f35b60008060019050600060019050600060019050600060019050600060019050808284868861007c91906100ce565b61008691906100ce565b61009091906100ce565b61009a91906100ce565b9550505050505090565b6100ad81610124565b82525050565b60006020820190506100c860008301846100a4565b92915050565b60006100d982610124565b91506100e483610124565b9250827fffffffffffffffffffffffffffffffffffffffffffffffffffffffffffffffff038211156101195761011861012e565b5b828201905092915050565b6000819050919050565b7f4e487b7100000000000000000000000000000000000000000000000000000000600052601160045260246000fdfea2646970667358221220caaf3739d109e68071e99d1480e8894dc309d70d00e4a3d06f098756f942c06d64736f6c63430008070033",
					"opcodes": "PUSH1 0x80 PUSH1 0x40 MSTORE CALLVALUE DUP1 ISZERO PUSH2 0x10 JUMPI PUSH1 0x0 DUP1 REVERT JUMPDEST POP PUSH2 0x193 DUP1 PUSH2 0x20 PUSH1 0x0 CODECOPY PUSH1 0x0 RETURN INVALID PUSH1 0x80 PUSH1 0x40 MSTORE CALLVALUE DUP1 ISZERO PUSH2 0x10 JUMPI PUSH1 0x0 DUP1 REVERT JUMPDEST POP PUSH1 0x4 CALLDATASIZE LT PUSH2 0x2B JUMPI PUSH1 0x0 CALLDATALOAD PUSH1 0xE0 SHR DUP1 PUSH4 0xBE9A6555 EQ PUSH2 0x30 JUMPI JUMPDEST PUSH1 0x0 DUP1 REVERT JUMPDEST PUSH2 0x38 PUSH2 0x4E JUMP JUMPDEST PUSH1 0x40 MLOAD PUSH2 0x45 SWAP2 SWAP1 PUSH2 0xB3 JUMP JUMPDEST PUSH1 0x40 MLOAD DUP1 SWAP2 SUB SWAP1 RETURN JUMPDEST PUSH1 0x0 DUP1 PUSH1 0x1 SWAP1 POP PUSH1 0x0 PUSH1 0x1 SWAP1 POP PUSH1 0x0 PUSH1 0x1 SWAP1 POP PUSH1 0x0 PUSH1 0x1 SWAP1 POP PUSH1 0x0 PUSH1 0x1 SWAP1 POP DUP1 DUP3 DUP5 DUP7 DUP9 PUSH2 0x7C SWAP2 SWAP1 PUSH2 0xCE JUMP JUMPDEST PUSH2 0x86 SWAP2 SWAP1 PUSH2 0xCE JUMP JUMPDEST PUSH2 0x90 SWAP2 SWAP1 PUSH2 0xCE JUMP JUMPDEST PUSH2 0x9A SWAP2 SWAP1 PUSH2 0xCE JUMP JUMPDEST SWAP6 POP POP POP POP POP POP SWAP1 JUMP JUMPDEST PUSH2 0xAD DUP2 PUSH2 0x124 JUMP JUMPDEST DUP3 MSTORE POP POP JUMP JUMPDEST PUSH1 0x0 PUSH1 0x20 DUP3 ADD SWAP1 POP PUSH2 0xC8 PUSH1 0x0 DUP4 ADD DUP5 PUSH2 0xA4 JUMP JUMPDEST SWAP3 SWAP2 POP POP JUMP JUMPDEST PUSH1 0x0 PUSH2 0xD9 DUP3 PUSH2 0x124 JUMP JUMPDEST SWAP2 POP PUSH2 0xE4 DUP4 PUSH2 0x124 JUMP JUMPDEST SWAP3 POP DUP3 PUSH32 0xFFFFFFFFFFFFFFFFFFFFFFFFFFFFFFFFFFFFFFFFFFFFFFFFFFFFFFFFFFFFFFFF SUB DUP3 GT ISZERO PUSH2 0x119 JUMPI PUSH2 0x118 PUSH2 0x12E JUMP JUMPDEST JUMPDEST DUP3 DUP3 ADD SWAP1 POP SWAP3 SWAP2 POP POP JUMP JUMPDEST PUSH1 0x0 DUP2 SWAP1 POP SWAP2 SWAP1 POP JUMP JUMPDEST PUSH32 0x4E487B7100000000000000000000000000000000000000000000000000000000 PUSH1 0x0 MSTORE PUSH1 0x11 PUSH1 0x4 MSTORE PUSH1 0x24 PUSH1 0x0 REVERT INVALID LOG2 PUSH5 0x6970667358 0x22 SLT KECCAK256 0xCA 0xAF CALLDATACOPY CODECOPY 0xD1 MULMOD 0xE6 DUP1 PUSH18 0xE99D1480E8894DC309D70D00E4A3D06F0987 JUMP 0xF9 TIMESTAMP 0xC0 PUSH14 0x64736F6C63430008070033000000 "
				},
				"gasEstimates": {
					"creation": {
						"codeDepositCost": "80600",
						"executionCost": "129",
						"totalCost": "80729"
					},
					"external": {
						"start()": "infinite"
					}
				},
				"methodIdentifiers": {
					"start()": "be9a6555"
				}
			},
			"storageLayout": {
				"storage": [],
				"types": null
			},
			"userdoc": {
				"kind": "user",
				"methods": {},
				"version": 1
			}
		}
	}
}