{
	"ArrayType.sol": {
		"ArrayType3": {
			"abi": [
				{
					"inputs": [
						{
							"internalType": "uint256",
							"name": "x",
							"type": "uint256"
						}
					],
					"name": "setArr",
					"outputs": [],
					"stateMutability": "nonpayable",
					"type": "function"
				},
				{
					"inputs": [],
					"name": "showArr",
					"outputs": [
						{
							"internalType": "uint256[2][2]",
							"name": "",
							"type": "uint256[2][2]"
						}
					],
					"stateMutability": "view",
					"type": "function"
				}
			],
			"devdoc": {
				"kind": "dev",
				"methods": {},
				"version": 1
			},
			"evm": {
				"assembly": "    /* \"ArrayType.sol\":880:1100  contract ArrayType3 {... */\n  mstore(0x40, 0x80)\n    /* \"ArrayType.sol\":906:939  uint[2][2] arr = [[1, 2], [2, 3]] */\n  mload(0x40)\n  dup1\n  0x40\n  add\n  0x40\n  mstore\n  dup1\n  mload(0x40)\n  dup1\n  0x40\n  add\n  0x40\n  mstore\n  dup1\n    /* \"ArrayType.sol\":925:926  1 */\n  0x01\n    /* \"ArrayType.sol\":906:939  uint[2][2] arr = [[1, 2], [2, 3]] */\n  0xff\n  and\n  dup2\n  mstore\n  0x20\n  add\n    /* \"ArrayType.sol\":928:929  2 */\n  0x02\n    /* \"ArrayType.sol\":906:939  uint[2][2] arr = [[1, 2], [2, 3]] */\n  0xff\n  and\n  dup2\n  mstore\n  pop\n  dup2\n  mstore\n  0x20\n  add\n  mload(0x40)\n  dup1\n  0x40\n  add\n  0x40\n  mstore\n  dup1\n    /* \"ArrayType.sol\":933:934  2 */\n  0x02\n    /* \"ArrayType.sol\":906:939  uint[2][2] arr = [[1, 2], [2, 3]] */\n  0xff\n  and\n  dup2\n  mstore\n  0x20\n  add\n    /* \"ArrayType.sol\":936:937  3 */\n  0x03\n    /* \"ArrayType.sol\":906:939  uint[2][2] arr = [[1, 2], [2, 3]] */\n  0xff\n  and\n  dup2\n  mstore\n  pop\n  dup2\n  mstore\n  pop\n  0x00\n  swap1\n  0x02\n  tag_1\n  swap3\n  swap2\n  swap1\n  tag_2\n  jump\t// in\ntag_1:\n  pop\n    /* \"ArrayType.sol\":880:1100  contract ArrayType3 {... */\n  callvalue\n  dup1\n  iszero\n  tag_3\n  jumpi\n  0x00\n  dup1\n  revert\ntag_3:\n  pop\n  jump(tag_4)\ntag_2:\n  dup3\n  0x02\n  dup1\n  mul\n  dup2\n  add\n  swap3\n  dup3\n  iszero\n  tag_5\n  jumpi\n  swap2\n  0x20\n  mul\n  dup3\n  add\ntag_6:\n  dup3\n  dup2\n  gt\n  iszero\n  tag_7\n  jumpi\n  dup3\n  mload\n  dup3\n  swap1\n  0x02\n  tag_8\n  swap3\n  swap2\n  swap1\n  tag_9\n  jump\t// in\ntag_8:\n  pop\n  swap2\n  0x20\n  add\n  swap2\n  swap1\n  0x02\n  add\n  swap1\n  jump(tag_6)\ntag_7:\ntag_5:\n  pop\n  swap1\n  pop\n  tag_10\n  swap2\n  swap1\n  tag_11\n  jump\t// in\ntag_10:\n  pop\n  swap1\n  jump\t// out\ntag_9:\n  dup3\n  0x02\n  dup2\n  add\n  swap3\n  dup3\n  iszero\n  tag_12\n  jumpi\n  swap2\n  0x20\n  mul\n  dup3\n  add\ntag_13:\n  dup3\n  dup2\n  gt\n  iszero\n  tag_14\n  jumpi\n  dup3\n  mload\n  dup3\n  swap1\n  0xff\n  and\n  swap1\n  sstore\n  swap2\n  0x20\n  add\n  swap2\n  swap1\n  0x01\n  add\n  swap1\n  jump(tag_13)\ntag_14:\ntag_12:\n  pop\n  swap1\n  pop\n  tag_15\n  swap2\n  swap1\n  tag_16\n  jump\t// in\ntag_15:\n  pop\n  swap1\n  jump\t// out\ntag_11:\ntag_17:\n  dup1\n  dup3\n  gt\n  iszero\n  tag_18\n  jumpi\n  0x00\n  dup2\n  dup2\n  tag_19\n  swap2\n  swap1\n  tag_20\n  jump\t// in\ntag_19:\n  pop\n  0x02\n  add\n  jump(tag_17)\ntag_18:\n  pop\n  swap1\n  jump\t// out\ntag_16:\ntag_21:\n  dup1\n  dup3\n  gt\n  iszero\n  tag_22\n  jumpi\n  0x00\n  dup2\n  0x00\n  swap1\n  sstore\n  pop\n  0x01\n  add\n  jump(tag_21)\ntag_22:\n  pop\n  swap1\n  jump\t// out\ntag_20:\n  pop\n  0x00\n  dup2\n  sstore\n  0x01\n  add\n  0x00\n  swap1\n  sstore\n  jump\t// out\ntag_4:\n  dataSize(sub_0)\n  dup1\n  dataOffset(sub_0)\n  0x00\n  codecopy\n  0x00\n  return\nstop\n\nsub_0: assembly {\n        /* \"ArrayType.sol\":880:1100  contract ArrayType3 {... */\n      mstore(0x40, 0x80)\n      callvalue\n      dup1\n      iszero\n      tag_1\n      jumpi\n      0x00\n      dup1\n      revert\n    tag_1:\n      pop\n      jumpi(tag_2, lt(calldatasize, 0x04))\n      shr(0xe0, calldataload(0x00))\n      dup1\n      0x08255318\n      eq\n      tag_3\n      jumpi\n      dup1\n      0xec5d52c1\n      eq\n      tag_4\n      jumpi\n    tag_2:\n      0x00\n      dup1\n      revert\n        /* \"ArrayType.sol\":946:1007  function setArr(uint x) public {... */\n    tag_3:\n      tag_5\n      0x04\n      dup1\n      calldatasize\n      sub\n      dup2\n      add\n      swap1\n      tag_6\n      swap2\n      swap1\n      tag_7\n      jump\t// in\n    tag_6:\n      tag_8\n      jump\t// in\n    tag_5:\n      stop\n        /* \"ArrayType.sol\":1013:1098  function showArr() public view returns(uint[2][2] memory) {... */\n    tag_4:\n      tag_9\n      tag_10\n      jump\t// in\n    tag_9:\n      mload(0x40)\n      tag_11\n      swap2\n      swap1\n      tag_12\n      jump\t// in\n    tag_11:\n      mload(0x40)\n      dup1\n      swap2\n      sub\n      swap1\n      return\n        /* \"ArrayType.sol\":946:1007  function setArr(uint x) public {... */\n    tag_8:\n        /* \"ArrayType.sol\":999:1000  x */\n      dup1\n        /* \"ArrayType.sol\":987:990  arr */\n      0x00\n        /* \"ArrayType.sol\":991:992  0 */\n      dup1\n        /* \"ArrayType.sol\":987:993  arr[0] */\n      0x02\n      dup2\n      lt\n      tag_14\n      jumpi\n      tag_15\n      tag_16\n      jump\t// in\n    tag_15:\n    tag_14:\n      0x02\n      mul\n      add\n        /* \"ArrayType.sol\":994:995  1 */\n      0x01\n        /* \"ArrayType.sol\":987:996  arr[0][1] */\n      0x02\n      dup2\n      lt\n      tag_18\n      jumpi\n      tag_19\n      tag_16\n      jump\t// in\n    tag_19:\n    tag_18:\n      add\n        /* \"ArrayType.sol\":987:1000  arr[0][1] = x */\n      dup2\n      swap1\n      sstore\n      pop\n        /* \"ArrayType.sol\":946:1007  function setArr(uint x) public {... */\n      pop\n      jump\t// out\n        /* \"ArrayType.sol\":1013:1098  function showArr() public view returns(uint[2][2] memory) {... */\n    tag_10:\n        /* \"ArrayType.sol\":1052:1069  uint[2][2] memory */\n      tag_21\n      tag_22\n      jump\t// in\n    tag_21:\n        /* \"ArrayType.sol\":1088:1091  arr */\n      0x00\n        /* \"ArrayType.sol\":1081:1091  return arr */\n      0x02\n      dup1\n      0x20\n      mul\n      mload(0x40)\n      swap1\n      dup2\n      add\n      0x40\n      mstore\n      dup1\n      swap3\n      swap2\n      swap1\n      0x00\n      swap1\n    tag_24:\n      dup3\n      dup3\n      lt\n      iszero\n      tag_25\n      jumpi\n      dup4\n      dup3\n      0x02\n      mul\n      add\n      0x02\n      dup1\n      0x20\n      mul\n      mload(0x40)\n      swap1\n      dup2\n      add\n      0x40\n      mstore\n      dup1\n      swap3\n      swap2\n      swap1\n      dup3\n      0x02\n      dup1\n      iszero\n      tag_27\n      jumpi\n      0x20\n      mul\n      dup3\n      add\n      swap2\n    tag_28:\n      dup2\n      sload\n      dup2\n      mstore\n      0x20\n      add\n      swap1\n      0x01\n      add\n      swap1\n      dup1\n      dup4\n      gt\n      tag_28\n      jumpi\n    tag_27:\n      pop\n      pop\n      pop\n      pop\n      pop\n      dup2\n      mstore\n      0x20\n      add\n      swap1\n      0x01\n      add\n      swap1\n      jump(tag_24)\n    tag_25:\n      pop\n      pop\n      pop\n      pop\n      swap1\n      pop\n        /* \"ArrayType.sol\":1013:1098  function showArr() public view returns(uint[2][2] memory) {... */\n      swap1\n      jump\t// out\n    tag_22:\n      mload(0x40)\n      dup1\n      0x40\n      add\n      0x40\n      mstore\n      dup1\n      0x02\n      swap1\n    tag_29:\n      tag_30\n      tag_31\n      jump\t// in\n    tag_30:\n      dup2\n      mstore\n      0x20\n      add\n      swap1\n      0x01\n      swap1\n      sub\n      swap1\n      dup2\n      tag_29\n      jumpi\n      swap1\n      pop\n      pop\n      swap1\n      jump\t// out\n    tag_31:\n      mload(0x40)\n      dup1\n      0x40\n      add\n      0x40\n      mstore\n      dup1\n      0x02\n      swap1\n      0x20\n      dup3\n      mul\n      dup1\n      calldatasize\n      dup4\n      calldatacopy\n      dup1\n      dup3\n      add\n      swap2\n      pop\n      pop\n      swap1\n      pop\n      pop\n      swap1\n      jump\t// out\n        /* \"#utility.yul\":7:146   */\n    tag_33:\n        /* \"#utility.yul\":53:58   */\n      0x00\n        /* \"#utility.yul\":91:97   */\n      dup2\n        /* \"#utility.yul\":78:98   */\n      calldataload\n        /* \"#utility.yul\":69:98   */\n      swap1\n      pop\n        /* \"#utility.yul\":107:140   */\n      tag_35\n        /* \"#utility.yul\":134:139   */\n      dup2\n        /* \"#utility.yul\":107:140   */\n      tag_36\n      jump\t// in\n    tag_35:\n        /* \"#utility.yul\":7:146   */\n      swap3\n      swap2\n      pop\n      pop\n      jump\t// out\n        /* \"#utility.yul\":152:481   */\n    tag_7:\n        /* \"#utility.yul\":211:217   */\n      0x00\n        /* \"#utility.yul\":260:262   */\n      0x20\n        /* \"#utility.yul\":248:257   */\n      dup3\n        /* \"#utility.yul\":239:246   */\n      dup5\n        /* \"#utility.yul\":235:258   */\n      sub\n        /* \"#utility.yul\":231:263   */\n      slt\n        /* \"#utility.yul\":228:347   */\n      iszero\n      tag_38\n      jumpi\n        /* \"#utility.yul\":266:345   */\n      tag_39\n      tag_40\n      jump\t// in\n    tag_39:\n        /* \"#utility.yul\":228:347   */\n    tag_38:\n        /* \"#utility.yul\":386:387   */\n      0x00\n        /* \"#utility.yul\":411:464   */\n      tag_41\n        /* \"#utility.yul\":456:463   */\n      dup5\n        /* \"#utility.yul\":447:453   */\n      dup3\n        /* \"#utility.yul\":436:445   */\n      dup6\n        /* \"#utility.yul\":432:454   */\n      add\n        /* \"#utility.yul\":411:464   */\n      tag_33\n      jump\t// in\n    tag_41:\n        /* \"#utility.yul\":401:464   */\n      swap2\n      pop\n        /* \"#utility.yul\":357:474   */\n      pop\n        /* \"#utility.yul\":152:481   */\n      swap3\n      swap2\n      pop\n      pop\n      jump\t// out\n        /* \"#utility.yul\":487:758   */\n    tag_42:\n        /* \"#utility.yul\":602:612   */\n      0x00\n        /* \"#utility.yul\":623:715   */\n      tag_44\n        /* \"#utility.yul\":711:714   */\n      dup4\n        /* \"#utility.yul\":703:709   */\n      dup4\n        /* \"#utility.yul\":623:715   */\n      tag_45\n      jump\t// in\n    tag_44:\n        /* \"#utility.yul\":747:751   */\n      0x40\n        /* \"#utility.yul\":742:745   */\n      dup4\n        /* \"#utility.yul\":738:752   */\n      add\n        /* \"#utility.yul\":724:752   */\n      swap1\n      pop\n        /* \"#utility.yul\":487:758   */\n      swap3\n      swap2\n      pop\n      pop\n      jump\t// out\n        /* \"#utility.yul\":764:943   */\n    tag_46:\n        /* \"#utility.yul\":833:843   */\n      0x00\n        /* \"#utility.yul\":854:900   */\n      tag_48\n        /* \"#utility.yul\":896:899   */\n      dup4\n        /* \"#utility.yul\":888:894   */\n      dup4\n        /* \"#utility.yul\":854:900   */\n      tag_49\n      jump\t// in\n    tag_48:\n        /* \"#utility.yul\":932:936   */\n      0x20\n        /* \"#utility.yul\":927:930   */\n      dup4\n        /* \"#utility.yul\":923:937   */\n      add\n        /* \"#utility.yul\":909:937   */\n      swap1\n      pop\n        /* \"#utility.yul\":764:943   */\n      swap3\n      swap2\n      pop\n      pop\n      jump\t// out\n        /* \"#utility.yul\":987:1865   */\n    tag_50:\n        /* \"#utility.yul\":1169:1244   */\n      tag_52\n        /* \"#utility.yul\":1238:1243   */\n      dup2\n        /* \"#utility.yul\":1169:1244   */\n      tag_53\n      jump\t// in\n    tag_52:\n        /* \"#utility.yul\":1260:1367   */\n      tag_54\n        /* \"#utility.yul\":1360:1366   */\n      dup2\n        /* \"#utility.yul\":1355:1358   */\n      dup5\n        /* \"#utility.yul\":1260:1367   */\n      tag_55\n      jump\t// in\n    tag_54:\n        /* \"#utility.yul\":1253:1367   */\n      swap3\n      pop\n        /* \"#utility.yul\":1391:1468   */\n      tag_56\n        /* \"#utility.yul\":1462:1467   */\n      dup3\n        /* \"#utility.yul\":1391:1468   */\n      tag_57\n      jump\t// in\n    tag_56:\n        /* \"#utility.yul\":1491:1498   */\n      dup1\n        /* \"#utility.yul\":1522:1523   */\n      0x00\n        /* \"#utility.yul\":1507:1858   */\n    tag_58:\n        /* \"#utility.yul\":1532:1538   */\n      dup4\n        /* \"#utility.yul\":1529:1530   */\n      dup2\n        /* \"#utility.yul\":1526:1539   */\n      lt\n        /* \"#utility.yul\":1507:1858   */\n      iszero\n      tag_60\n      jumpi\n        /* \"#utility.yul\":1608:1614   */\n      dup2\n        /* \"#utility.yul\":1602:1615   */\n      mload\n        /* \"#utility.yul\":1635:1744   */\n      tag_61\n        /* \"#utility.yul\":1740:1743   */\n      dup8\n        /* \"#utility.yul\":1725:1738   */\n      dup3\n        /* \"#utility.yul\":1635:1744   */\n      tag_42\n      jump\t// in\n    tag_61:\n        /* \"#utility.yul\":1628:1744   */\n      swap7\n      pop\n        /* \"#utility.yul\":1767:1848   */\n      tag_62\n        /* \"#utility.yul\":1841:1847   */\n      dup4\n        /* \"#utility.yul\":1767:1848   */\n      tag_63\n      jump\t// in\n    tag_62:\n        /* \"#utility.yul\":1757:1848   */\n      swap3\n      pop\n        /* \"#utility.yul\":1567:1858   */\n      pop\n        /* \"#utility.yul\":1554:1555   */\n      0x01\n        /* \"#utility.yul\":1551:1552   */\n      dup2\n        /* \"#utility.yul\":1547:1556   */\n      add\n        /* \"#utility.yul\":1542:1556   */\n      swap1\n      pop\n        /* \"#utility.yul\":1507:1858   */\n      jump(tag_58)\n    tag_60:\n        /* \"#utility.yul\":1511:1525   */\n      pop\n        /* \"#utility.yul\":1145:1865   */\n      pop\n      pop\n      pop\n        /* \"#utility.yul\":987:1865   */\n      pop\n      pop\n      jump\t// out\n        /* \"#utility.yul\":1903:2577   */\n    tag_45:\n        /* \"#utility.yul\":2029:2081   */\n      tag_65\n        /* \"#utility.yul\":2075:2080   */\n      dup2\n        /* \"#utility.yul\":2029:2081   */\n      tag_66\n      jump\t// in\n    tag_65:\n        /* \"#utility.yul\":2097:2171   */\n      tag_67\n        /* \"#utility.yul\":2164:2170   */\n      dup2\n        /* \"#utility.yul\":2159:2162   */\n      dup5\n        /* \"#utility.yul\":2097:2171   */\n      tag_68\n      jump\t// in\n    tag_67:\n        /* \"#utility.yul\":2090:2171   */\n      swap3\n      pop\n        /* \"#utility.yul\":2195:2249   */\n      tag_69\n        /* \"#utility.yul\":2243:2248   */\n      dup3\n        /* \"#utility.yul\":2195:2249   */\n      tag_70\n      jump\t// in\n    tag_69:\n        /* \"#utility.yul\":2272:2279   */\n      dup1\n        /* \"#utility.yul\":2303:2304   */\n      0x00\n        /* \"#utility.yul\":2288:2570   */\n    tag_71:\n        /* \"#utility.yul\":2313:2319   */\n      dup4\n        /* \"#utility.yul\":2310:2311   */\n      dup2\n        /* \"#utility.yul\":2307:2320   */\n      lt\n        /* \"#utility.yul\":2288:2570   */\n      iszero\n      tag_73\n      jumpi\n        /* \"#utility.yul\":2389:2395   */\n      dup2\n        /* \"#utility.yul\":2383:2396   */\n      mload\n        /* \"#utility.yul\":2416:2479   */\n      tag_74\n        /* \"#utility.yul\":2475:2478   */\n      dup8\n        /* \"#utility.yul\":2460:2473   */\n      dup3\n        /* \"#utility.yul\":2416:2479   */\n      tag_46\n      jump\t// in\n    tag_74:\n        /* \"#utility.yul\":2409:2479   */\n      swap7\n      pop\n        /* \"#utility.yul\":2502:2560   */\n      tag_75\n        /* \"#utility.yul\":2553:2559   */\n      dup4\n        /* \"#utility.yul\":2502:2560   */\n      tag_76\n      jump\t// in\n    tag_75:\n        /* \"#utility.yul\":2492:2560   */\n      swap3\n      pop\n        /* \"#utility.yul\":2348:2570   */\n      pop\n        /* \"#utility.yul\":2335:2336   */\n      0x01\n        /* \"#utility.yul\":2332:2333   */\n      dup2\n        /* \"#utility.yul\":2328:2337   */\n      add\n        /* \"#utility.yul\":2323:2337   */\n      swap1\n      pop\n        /* \"#utility.yul\":2288:2570   */\n      jump(tag_71)\n    tag_73:\n        /* \"#utility.yul\":2292:2306   */\n      pop\n        /* \"#utility.yul\":2005:2577   */\n      pop\n      pop\n      pop\n        /* \"#utility.yul\":1903:2577   */\n      pop\n      pop\n      jump\t// out\n        /* \"#utility.yul\":2583:2691   */\n    tag_49:\n        /* \"#utility.yul\":2660:2684   */\n      tag_78\n        /* \"#utility.yul\":2678:2683   */\n      dup2\n        /* \"#utility.yul\":2660:2684   */\n      tag_79\n      jump\t// in\n    tag_78:\n        /* \"#utility.yul\":2655:2658   */\n      dup3\n        /* \"#utility.yul\":2648:2685   */\n      mstore\n        /* \"#utility.yul\":2583:2691   */\n      pop\n      pop\n      jump\t// out\n        /* \"#utility.yul\":2697:3104   */\n    tag_12:\n        /* \"#utility.yul\":2882:2886   */\n      0x00\n        /* \"#utility.yul\":2920:2923   */\n      0x80\n        /* \"#utility.yul\":2909:2918   */\n      dup3\n        /* \"#utility.yul\":2905:2924   */\n      add\n        /* \"#utility.yul\":2897:2924   */\n      swap1\n      pop\n        /* \"#utility.yul\":2934:3097   */\n      tag_81\n        /* \"#utility.yul\":3094:3095   */\n      0x00\n        /* \"#utility.yul\":3083:3092   */\n      dup4\n        /* \"#utility.yul\":3079:3096   */\n      add\n        /* \"#utility.yul\":3070:3076   */\n      dup5\n        /* \"#utility.yul\":2934:3097   */\n      tag_50\n      jump\t// in\n    tag_81:\n        /* \"#utility.yul\":2697:3104   */\n      swap3\n      swap2\n      pop\n      pop\n      jump\t// out\n        /* \"#utility.yul\":3191:3312   */\n    tag_57:\n        /* \"#utility.yul\":3279:3283   */\n      0x00\n        /* \"#utility.yul\":3302:3305   */\n      dup2\n        /* \"#utility.yul\":3294:3305   */\n      swap1\n      pop\n        /* \"#utility.yul\":3191:3312   */\n      swap2\n      swap1\n      pop\n      jump\t// out\n        /* \"#utility.yul\":3318:3416   */\n    tag_70:\n        /* \"#utility.yul\":3383:3387   */\n      0x00\n        /* \"#utility.yul\":3406:3409   */\n      dup2\n        /* \"#utility.yul\":3398:3409   */\n      swap1\n      pop\n        /* \"#utility.yul\":3318:3416   */\n      swap2\n      swap1\n      pop\n      jump\t// out\n        /* \"#utility.yul\":3422:3549   */\n    tag_53:\n        /* \"#utility.yul\":3510:3516   */\n      0x00\n        /* \"#utility.yul\":3538:3542   */\n      0x02\n        /* \"#utility.yul\":3528:3542   */\n      swap1\n      pop\n        /* \"#utility.yul\":3422:3549   */\n      swap2\n      swap1\n      pop\n      jump\t// out\n        /* \"#utility.yul\":3555:3659   */\n    tag_66:\n        /* \"#utility.yul\":3620:3626   */\n      0x00\n        /* \"#utility.yul\":3648:3652   */\n      0x02\n        /* \"#utility.yul\":3638:3652   */\n      swap1\n      pop\n        /* \"#utility.yul\":3555:3659   */\n      swap2\n      swap1\n      pop\n      jump\t// out\n        /* \"#utility.yul\":3665:3799   */\n    tag_63:\n        /* \"#utility.yul\":3756:3760   */\n      0x00\n        /* \"#utility.yul\":3788:3792   */\n      0x20\n        /* \"#utility.yul\":3783:3786   */\n      dup3\n        /* \"#utility.yul\":3779:3793   */\n      add\n        /* \"#utility.yul\":3771:3793   */\n      swap1\n      pop\n        /* \"#utility.yul\":3665:3799   */\n      swap2\n      swap1\n      pop\n      jump\t// out\n        /* \"#utility.yul\":3805:3916   */\n    tag_76:\n        /* \"#utility.yul\":3873:3877   */\n      0x00\n        /* \"#utility.yul\":3905:3909   */\n      0x20\n        /* \"#utility.yul\":3900:3903   */\n      dup3\n        /* \"#utility.yul\":3896:3910   */\n      add\n        /* \"#utility.yul\":3888:3910   */\n      swap1\n      pop\n        /* \"#utility.yul\":3805:3916   */\n      swap2\n      swap1\n      pop\n      jump\t// out\n        /* \"#utility.yul\":3922:4088   */\n    tag_55:\n        /* \"#utility.yul\":4042:4053   */\n      0x00\n        /* \"#utility.yul\":4079:4082   */\n      dup2\n        /* \"#utility.yul\":4064:4082   */\n      swap1\n      pop\n        /* \"#utility.yul\":3922:4088   */\n      swap3\n      swap2\n      pop\n      pop\n      jump\t// out\n        /* \"#utility.yul\":4094:4227   */\n    tag_68:\n        /* \"#utility.yul\":4181:4192   */\n      0x00\n        /* \"#utility.yul\":4218:4221   */\n      dup2\n        /* \"#utility.yul\":4203:4221   */\n      swap1\n      pop\n        /* \"#utility.yul\":4094:4227   */\n      swap3\n      swap2\n      pop\n      pop\n      jump\t// out\n        /* \"#utility.yul\":4233:4310   */\n    tag_79:\n        /* \"#utility.yul\":4270:4277   */\n      0x00\n        /* \"#utility.yul\":4299:4304   */\n      dup2\n        /* \"#utility.yul\":4288:4304   */\n      swap1\n      pop\n        /* \"#utility.yul\":4233:4310   */\n      swap2\n      swap1\n      pop\n      jump\t// out\n        /* \"#utility.yul\":4316:4496   */\n    tag_16:\n        /* \"#utility.yul\":4364:4441   */\n      0x4e487b7100000000000000000000000000000000000000000000000000000000\n        /* \"#utility.yul\":4361:4362   */\n      0x00\n        /* \"#utility.yul\":4354:4442   */\n      mstore\n        /* \"#utility.yul\":4461:4465   */\n      0x32\n        /* \"#utility.yul\":4458:4459   */\n      0x04\n        /* \"#utility.yul\":4451:4466   */\n      mstore\n        /* \"#utility.yul\":4485:4489   */\n      0x24\n        /* \"#utility.yul\":4482:4483   */\n      0x00\n        /* \"#utility.yul\":4475:4490   */\n      revert\n        /* \"#utility.yul\":4625:4742   */\n    tag_40:\n        /* \"#utility.yul\":4734:4735   */\n      0x00\n        /* \"#utility.yul\":4731:4732   */\n      dup1\n        /* \"#utility.yul\":4724:4736   */\n      revert\n        /* \"#utility.yul\":4748:4870   */\n    tag_36:\n        /* \"#utility.yul\":4821:4845   */\n      tag_98\n        /* \"#utility.yul\":4839:4844   */\n      dup2\n        /* \"#utility.yul\":4821:4845   */\n      tag_79\n      jump\t// in\n    tag_98:\n        /* \"#utility.yul\":4814:4819   */\n      dup2\n        /* \"#utility.yul\":4811:4846   */\n      eq\n        /* \"#utility.yul\":4801:4864   */\n      tag_99\n      jumpi\n        /* \"#utility.yul\":4860:4861   */\n      0x00\n        /* \"#utility.yul\":4857:4858   */\n      dup1\n        /* \"#utility.yul\":4850:4862   */\n      revert\n        /* \"#utility.yul\":4801:4864   */\n    tag_99:\n        /* \"#utility.yul\":4748:4870   */\n      pop\n      jump\t// out\n\n    auxdata: 0xa26469706673582212203885733f3ee8460e5dd2eb441ec48957d164416cc31ed5a978bf779e2dd82af364736f6c63430008070033\n}\n",
				"bytecode": {
					"linkReferences": {},
					"object": "608060405260405180604001604052806040518060400160405280600160ff168152602001600260ff1681525081526020016040518060400160405280600260ff168152602001600360ff168152508152506000906002610061929190610074565b5034801561006e57600080fd5b50610158565b826002800281019282156100b3579160200282015b828111156100b2578251829060026100a29291906100c4565b5091602001919060020190610089565b5b5090506100c09190610109565b5090565b82600281019282156100f8579160200282015b828111156100f7578251829060ff169055916020019190600101906100d7565b5b509050610105919061012d565b5090565b5b808211156101295760008181610120919061014a565b5060020161010a565b5090565b5b8082111561014657600081600090555060010161012e565b5090565b506000815560010160009055565b6103aa806101676000396000f3fe608060405234801561001057600080fd5b50600436106100365760003560e01c8063082553181461003b578063ec5d52c114610057575b600080fd5b61005560048036038101906100509190610190565b610075565b005b61005f6100a9565b60405161006c91906102aa565b60405180910390f35b806000806002811061008a57610089610329565b5b600202016001600281106100a1576100a0610329565b5b018190555050565b6100b161012c565b6000600280602002604051908101604052809291906000905b828210156101235783826002020160028060200260405190810160405280929190826002801561010f576020028201915b8154815260200190600101908083116100fb575b5050505050815260200190600101906100ca565b50505050905090565b60405180604001604052806002905b610143610159565b81526020019060019003908161013b5790505090565b6040518060400160405280600290602082028036833780820191505090505090565b60008135905061018a8161035d565b92915050565b6000602082840312156101a6576101a5610358565b5b60006101b48482850161017b565b91505092915050565b60006101c98383610244565b60408301905092915050565b60006101e1838361029b565b60208301905092915050565b6101f6816102d9565b6102008184610309565b925061020b826102c5565b8060005b8381101561023c57815161022387826101bd565b965061022e836102ef565b92505060018101905061020f565b505050505050565b61024d816102e4565b6102578184610314565b9250610262826102cf565b8060005b8381101561029357815161027a87826101d5565b9650610285836102fc565b925050600181019050610266565b505050505050565b6102a48161031f565b82525050565b60006080820190506102bf60008301846101ed565b92915050565b6000819050919050565b6000819050919050565b600060029050919050565b600060029050919050565b6000602082019050919050565b6000602082019050919050565b600081905092915050565b600081905092915050565b6000819050919050565b7f4e487b7100000000000000000000000000000000000000000000000000000000600052603260045260246000fd5b600080fd5b6103668161031f565b811461037157600080fd5b5056fea26469706673582212203885733f3ee8460e5dd2eb441ec48957d164416cc31ed5a978bf779e2dd82af364736f6c63430008070033",
					"opcodes": "PUSH1 0x80 PUSH1 0x40 MSTORE PUSH1 0x40 MLOAD DUP1 PUSH1 0x40 ADD PUSH1 0x40 MSTORE DUP1 PUSH1 0x40 MLOAD DUP1 PUSH1 0x40 ADD PUSH1 0x40 MSTORE DUP1 PUSH1 0x1 PUSH1 0xFF AND DUP2 MSTORE PUSH1 0x20 ADD PUSH1 0x2 PUSH1 0xFF AND DUP2 MSTORE POP DUP2 MSTORE PUSH1 0x20 ADD PUSH1 0x40 MLOAD DUP1 PUSH1 0x40 ADD PUSH1 0x40 MSTORE DUP1 PUSH1 0x2 PUSH1 0xFF AND DUP2 MSTORE PUSH1 0x20 ADD PUSH1 0x3 PUSH1 0xFF AND DUP2 MSTORE POP DUP2 MSTORE POP PUSH1 0x0 SWAP1 PUSH1 0x2 PUSH2 0x61 SWAP3 SWAP2 SWAP1 PUSH2 0x74 JUMP JUMPDEST POP CALLVALUE DUP1 ISZERO PUSH2 0x6E JUMPI PUSH1 0x0 DUP1 REVERT JUMPDEST POP PUSH2 0x158 JUMP JUMPDEST DUP3 PUSH1 0x2 DUP1 MUL DUP2 ADD SWAP3 DUP3 ISZERO PUSH2 0xB3 JUMPI SWAP2 PUSH1 0x20 MUL DUP3 ADD JUMPDEST DUP3 DUP2 GT ISZERO PUSH2 0xB2 JUMPI DUP3 MLOAD DUP3 SWAP1 PUSH1 0x2 PUSH2 0xA2 SWAP3 SWAP2 SWAP1 PUSH2 0xC4 JUMP JUMPDEST POP SWAP2 PUSH1 0x20 ADD SWAP2 SWAP1 PUSH1 0x2 ADD SWAP1 PUSH2 0x89 JUMP JUMPDEST JUMPDEST POP SWAP1 POP PUSH2 0xC0 SWAP2 SWAP1 PUSH2 0x109 JUMP JUMPDEST POP SWAP1 JUMP JUMPDEST DUP3 PUSH1 0x2 DUP2 ADD SWAP3 DUP3 ISZERO PUSH2 0xF8 JUMPI SWAP2 PUSH1 0x20 MUL DUP3 ADD JUMPDEST DUP3 DUP2 GT ISZERO PUSH2 0xF7 JUMPI DUP3 MLOAD DUP3 SWAP1 PUSH1 0xFF AND SWAP1 SSTORE SWAP2 PUSH1 0x20 ADD SWAP2 SWAP1 PUSH1 0x1 ADD SWAP1 PUSH2 0xD7 JUMP JUMPDEST JUMPDEST POP SWAP1 POP PUSH2 0x105 SWAP2 SWAP1 PUSH2 0x12D JUMP JUMPDEST POP SWAP1 JUMP JUMPDEST JUMPDEST DUP1 DUP3 GT ISZERO PUSH2 0x129 JUMPI PUSH1 0x0 DUP2 DUP2 PUSH2 0x120 SWAP2 SWAP1 PUSH2 0x14A JUMP JUMPDEST POP PUSH1 0x2 ADD PUSH2 0x10A JUMP JUMPDEST POP SWAP1 JUMP JUMPDEST JUMPDEST DUP1 DUP3 GT ISZERO PUSH2 0x146 JUMPI PUSH1 0x0 DUP2 PUSH1 0x0 SWAP1 SSTORE POP PUSH1 0x1 ADD PUSH2 0x12E JUMP JUMPDEST POP SWAP1 JUMP JUMPDEST POP PUSH1 0x0 DUP2 SSTORE PUSH1 0x1 ADD PUSH1 0x0 SWAP1 SSTORE JUMP JUMPDEST PUSH2 0x3AA DUP1 PUSH2 0x167 PUSH1 0x0 CODECOPY PUSH1 0x0 RETURN INVALID PUSH1 0x80 PUSH1 0x40 MSTORE CALLVALUE DUP1 ISZERO PUSH2 0x10 JUMPI PUSH1 0x0 DUP1 REVERT JUMPDEST POP PUSH1 0x4 CALLDATASIZE LT PUSH2 0x36 JUMPI PUSH1 0x0 CALLDATALOAD PUSH1 0xE0 SHR DUP1 PUSH4 0x8255318 EQ PUSH2 0x3B JUMPI DUP1 PUSH4 0xEC5D52C1 EQ PUSH2 0x57 JUMPI JUMPDEST PUSH1 0x0 DUP1 REVERT JUMPDEST PUSH2 0x55 PUSH1 0x4 DUP1 CALLDATASIZE SUB DUP2 ADD SWAP1 PUSH2 0x50 SWAP2 SWAP1 PUSH2 0x190 JUMP JUMPDEST PUSH2 0x75 JUMP JUMPDEST STOP JUMPDEST PUSH2 0x5F PUSH2 0xA9 JUMP JUMPDEST PUSH1 0x40 MLOAD PUSH2 0x6C SWAP2 SWAP1 PUSH2 0x2AA JUMP JUMPDEST PUSH1 0x40 MLOAD DUP1 SWAP2 SUB SWAP1 RETURN JUMPDEST DUP1 PUSH1 0x0 DUP1 PUSH1 0x2 DUP2 LT PUSH2 0x8A JUMPI PUSH2 0x89 PUSH2 0x329 JUMP JUMPDEST JUMPDEST PUSH1 0x2 MUL ADD PUSH1 0x1 PUSH1 0x2 DUP2 LT PUSH2 0xA1 JUMPI PUSH2 0xA0 PUSH2 0x329 JUMP JUMPDEST JUMPDEST ADD DUP2 SWAP1 SSTORE POP POP JUMP JUMPDEST PUSH2 0xB1 PUSH2 0x12C JUMP JUMPDEST PUSH1 0x0 PUSH1 0x2 DUP1 PUSH1 0x20 MUL PUSH1 0x40 MLOAD SWAP1 DUP2 ADD PUSH1 0x40 MSTORE DUP1 SWAP3 SWAP2 SWAP1 PUSH1 0x0 SWAP1 JUMPDEST DUP3 DUP3 LT ISZERO PUSH2 0x123 JUMPI DUP4 DUP3 PUSH1 0x2 MUL ADD PUSH1 0x2 DUP1 PUSH1 0x20 MUL PUSH1 0x40 MLOAD SWAP1 DUP2 ADD PUSH1 0x40 MSTORE DUP1 SWAP3 SWAP2 SWAP1 DUP3 PUSH1 0x2 DUP1 ISZERO PUSH2 0x10F JUMPI PUSH1 0x20 MUL DUP3 ADD SWAP2 JUMPDEST DUP2 SLOAD DUP2 MSTORE PUSH1 0x20 ADD SWAP1 PUSH1 0x1 ADD SWAP1 DUP1 DUP4 GT PUSH2 0xFB JUMPI JUMPDEST POP POP POP POP POP DUP2 MSTORE PUSH1 0x20 ADD SWAP1 PUSH1 0x1 ADD SWAP1 PUSH2 0xCA JUMP JUMPDEST POP POP POP POP SWAP1 POP SWAP1 JUMP JUMPDEST PUSH1 0x40 MLOAD DUP1 PUSH1 0x40 ADD PUSH1 0x40 MSTORE DUP1 PUSH1 0x2 SWAP1 JUMPDEST PUSH2 0x143 PUSH2 0x159 JUMP JUMPDEST DUP2 MSTORE PUSH1 0x20 ADD SWAP1 PUSH1 0x1 SWAP1 SUB SWAP1 DUP2 PUSH2 0x13B JUMPI SWAP1 POP POP SWAP1 JUMP JUMPDEST PUSH1 0x40 MLOAD DUP1 PUSH1 0x40 ADD PUSH1 0x40 MSTORE DUP1 PUSH1 0x2 SWAP1 PUSH1 0x20 DUP3 MUL DUP1 CALLDATASIZE DUP4 CALLDATACOPY DUP1 DUP3 ADD SWAP2 POP POP SWAP1 POP POP SWAP1 JUMP JUMPDEST PUSH1 0x0 DUP2 CALLDATALOAD SWAP1 POP PUSH2 0x18A DUP2 PUSH2 0x35D JUMP JUMPDEST SWAP3 SWAP2 POP POP JUMP JUMPDEST PUSH1 0x0 PUSH1 0x20 DUP3 DUP5 SUB SLT ISZERO PUSH2 0x1A6 JUMPI PUSH2 0x1A5 PUSH2 0x358 JUMP JUMPDEST JUMPDEST PUSH1 0x0 PUSH2 0x1B4 DUP5 DUP3 DUP6 ADD PUSH2 0x17B JUMP JUMPDEST SWAP2 POP POP SWAP3 SWAP2 POP POP JUMP JUMPDEST PUSH1 0x0 PUSH2 0x1C9 DUP4 DUP4 PUSH2 0x244 JUMP JUMPDEST PUSH1 0x40 DUP4 ADD SWAP1 POP SWAP3 SWAP2 POP POP JUMP JUMPDEST PUSH1 0x0 PUSH2 0x1E1 DUP4 DUP4 PUSH2 0x29B JUMP JUMPDEST PUSH1 0x20 DUP4 ADD SWAP1 POP SWAP3 SWAP2 POP POP JUMP JUMPDEST PUSH2 0x1F6 DUP2 PUSH2 0x2D9 JUMP JUMPDEST PUSH2 0x200 DUP2 DUP5 PUSH2 0x309 JUMP JUMPDEST SWAP3 POP PUSH2 0x20B DUP3 PUSH2 0x2C5 JUMP JUMPDEST DUP1 PUSH1 0x0 JUMPDEST DUP4 DUP2 LT ISZERO PUSH2 0x23C JUMPI DUP2 MLOAD PUSH2 0x223 DUP8 DUP3 PUSH2 0x1BD JUMP JUMPDEST SWAP7 POP PUSH2 0x22E DUP4 PUSH2 0x2EF JUMP JUMPDEST SWAP3 POP POP PUSH1 0x1 DUP2 ADD SWAP1 POP PUSH2 0x20F JUMP JUMPDEST POP POP POP POP POP POP JUMP JUMPDEST PUSH2 0x24D DUP2 PUSH2 0x2E4 JUMP JUMPDEST PUSH2 0x257 DUP2 DUP5 PUSH2 0x314 JUMP JUMPDEST SWAP3 POP PUSH2 0x262 DUP3 PUSH2 0x2CF JUMP JUMPDEST DUP1 PUSH1 0x0 JUMPDEST DUP4 DUP2 LT ISZERO PUSH2 0x293 JUMPI DUP2 MLOAD PUSH2 0x27A DUP8 DUP3 PUSH2 0x1D5 JUMP JUMPDEST SWAP7 POP PUSH2 0x285 DUP4 PUSH2 0x2FC JUMP JUMPDEST SWAP3 POP POP PUSH1 0x1 DUP2 ADD SWAP1 POP PUSH2 0x266 JUMP JUMPDEST POP POP POP POP POP POP JUMP JUMPDEST PUSH2 0x2A4 DUP2 PUSH2 0x31F JUMP JUMPDEST DUP3 MSTORE POP POP JUMP JUMPDEST PUSH1 0x0 PUSH1 0x80 DUP3 ADD SWAP1 POP PUSH2 0x2BF PUSH1 0x0 DUP4 ADD DUP5 PUSH2 0x1ED JUMP JUMPDEST SWAP3 SWAP2 POP POP JUMP JUMPDEST PUSH1 0x0 DUP2 SWAP1 POP SWAP2 SWAP1 POP JUMP JUMPDEST PUSH1 0x0 DUP2 SWAP1 POP SWAP2 SWAP1 POP JUMP JUMPDEST PUSH1 0x0 PUSH1 0x2 SWAP1 POP SWAP2 SWAP1 POP JUMP JUMPDEST PUSH1 0x0 PUSH1 0x2 SWAP1 POP SWAP2 SWAP1 POP JUMP JUMPDEST PUSH1 0x0 PUSH1 0x20 DUP3 ADD SWAP1 POP SWAP2 SWAP1 POP JUMP JUMPDEST PUSH1 0x0 PUSH1 0x20 DUP3 ADD SWAP1 POP SWAP2 SWAP1 POP JUMP JUMPDEST PUSH1 0x0 DUP2 SWAP1 POP SWAP3 SWAP2 POP POP JUMP JUMPDEST PUSH1 0x0 DUP2 SWAP1 POP SWAP3 SWAP2 POP POP JUMP JUMPDEST PUSH1 0x0 DUP2 SWAP1 POP SWAP2 SWAP1 POP JUMP JUMPDEST PUSH32 0x4E487B7100000000000000000000000000000000000000000000000000000000 PUSH1 0x0 MSTORE PUSH1 0x32 PUSH1 0x4 MSTORE PUSH1 0x24 PUSH1 0x0 REVERT JUMPDEST PUSH1 0x0 DUP1 REVERT JUMPDEST PUSH2 0x366 DUP2 PUSH2 0x31F JUMP JUMPDEST DUP2 EQ PUSH2 0x371 JUMPI PUSH1 0x0 DUP1 REVERT JUMPDEST POP JUMP INVALID LOG2 PUSH5 0x6970667358 0x22 SLT KECCAK256 CODESIZE DUP6 PUSH20 0x3F3EE8460E5DD2EB441EC48957D164416CC31ED5 0xA9 PUSH25 0xBF779E2DD82AF364736F6C6343000807003300000000000000 "
				},
				"gasEstimates": {
					"creation": {
						"codeDepositCost": "187600",
						"executionCost": "infinite",
						"totalCost": "infinite"
					},
					"external": {
						"setArr(uint256)": "22564",
						"showArr()": "infinite"
					}
				},
				"methodIdentifiers": {
					"setArr(uint256)": "08255318",
					"showArr()": "ec5d52c1"
				}
			},
			"storageLayout": {
				"storage": [
					{
						"astId": 119,
						"contract": "ArrayType.sol:ArrayType3",
						"label": "arr",
						"offset": 0,
						"slot": "0",
						"type": "t_array(t_array(t_uint256)2_storage)2_storage"
					}
				],
				"types": {
					"t_array(t_array(t_uint256)2_storage)2_storage": {
						"base": "t_array(t_uint256)2_storage",
						"encoding": "inplace",
						"label": "uint256[2][2]",
						"numberOfBytes": "128"
					},
					"t_array(t_uint256)2_storage": {
						"base": "t_uint256",
						"encoding": "inplace",
						"label": "uint256[2]",
						"numberOfBytes": "64"
					},
					"t_uint256": {
						"encoding": "inplace",
						"label": "uint256",
						"numberOfBytes": "32"
					}
				}
			},
			"userdoc": {
				"kind": "user",
				"methods": {},
				"version": 1
			}
		}
	}
}