{
	"ArrayType.sol": {
		"ArrayType2": {
			"abi": [
				{
					"inputs": [],
					"name": "getArr",
					"outputs": [
						{
							"internalType": "uint256[]",
							"name": "",
							"type": "uint256[]"
						}
					],
					"stateMutability": "view",
					"type": "function"
				},
				{
					"inputs": [],
					"name": "length",
					"outputs": [
						{
							"internalType": "uint256",
							"name": "",
							"type": "uint256"
						}
					],
					"stateMutability": "view",
					"type": "function"
				},
				{
					"inputs": [
						{
							"internalType": "uint256",
							"name": "ele",
							"type": "uint256"
						}
					],
					"name": "push",
					"outputs": [],
					"stateMutability": "nonpayable",
					"type": "function"
				}
			],
			"devdoc": {
				"kind": "dev",
				"methods": {},
				"version": 1
			},
			"evm": {
				"assembly": "    /* \"ArrayType.sol\":596:878  contract ArrayType2 {... */\n  mstore(0x40, 0x80)\n    /* \"ArrayType.sol\":622:638  uint[] arr = [0] */\n  mload(0x40)\n  dup1\n  0x20\n  add\n  0x40\n  mstore\n  dup1\n    /* \"ArrayType.sol\":636:637  0 */\n  0x00\n    /* \"ArrayType.sol\":622:638  uint[] arr = [0] */\n  0xff\n  and\n  dup2\n  mstore\n  pop\n  0x00\n  swap1\n  0x01\n  tag_1\n  swap3\n  swap2\n  swap1\n  tag_2\n  jump\t// in\ntag_1:\n  pop\n    /* \"ArrayType.sol\":596:878  contract ArrayType2 {... */\n  callvalue\n  dup1\n  iszero\n  tag_3\n  jumpi\n  0x00\n  dup1\n  revert\ntag_3:\n  pop\n  jump(tag_4)\ntag_2:\n  dup3\n  dup1\n  sload\n  dup3\n  dup3\n  sstore\n  swap1\n  0x00\n  mstore\n  keccak256(0x00, 0x20)\n  swap1\n  dup2\n  add\n  swap3\n  dup3\n  iszero\n  tag_5\n  jumpi\n  swap2\n  0x20\n  mul\n  dup3\n  add\ntag_6:\n  dup3\n  dup2\n  gt\n  iszero\n  tag_7\n  jumpi\n  dup3\n  mload\n  dup3\n  swap1\n  0xff\n  and\n  swap1\n  sstore\n  swap2\n  0x20\n  add\n  swap2\n  swap1\n  0x01\n  add\n  swap1\n  jump(tag_6)\ntag_7:\ntag_5:\n  pop\n  swap1\n  pop\n  tag_8\n  swap2\n  swap1\n  tag_9\n  jump\t// in\ntag_8:\n  pop\n  swap1\n  jump\t// out\ntag_9:\ntag_10:\n  dup1\n  dup3\n  gt\n  iszero\n  tag_11\n  jumpi\n  0x00\n  dup2\n  0x00\n  swap1\n  sstore\n  pop\n  0x01\n  add\n  jump(tag_10)\ntag_11:\n  pop\n  swap1\n  jump\t// out\ntag_4:\n  dataSize(sub_0)\n  dup1\n  dataOffset(sub_0)\n  0x00\n  codecopy\n  0x00\n  return\nstop\n\nsub_0: assembly {\n        /* \"ArrayType.sol\":596:878  contract ArrayType2 {... */\n      mstore(0x40, 0x80)\n      callvalue\n      dup1\n      iszero\n      tag_1\n      jumpi\n      0x00\n      dup1\n      revert\n    tag_1:\n      pop\n      jumpi(tag_2, lt(calldatasize, 0x04))\n      shr(0xe0, calldataload(0x00))\n      dup1\n      0x1f7b6d32\n      eq\n      tag_3\n      jumpi\n      dup1\n      0x959ac484\n      eq\n      tag_4\n      jumpi\n      dup1\n      0xfb8cbced\n      eq\n      tag_5\n      jumpi\n    tag_2:\n      0x00\n      dup1\n      revert\n        /* \"ArrayType.sol\":731:809  function length() public view returns(uint) {... */\n    tag_3:\n      tag_6\n      tag_7\n      jump\t// in\n    tag_6:\n      mload(0x40)\n      tag_8\n      swap2\n      swap1\n      tag_9\n      jump\t// in\n    tag_8:\n      mload(0x40)\n      dup1\n      swap2\n      sub\n      swap1\n      return\n        /* \"ArrayType.sol\":815:876  function push(uint ele) public {... */\n    tag_4:\n      tag_10\n      0x04\n      dup1\n      calldatasize\n      sub\n      dup2\n      add\n      swap1\n      tag_11\n      swap2\n      swap1\n      tag_12\n      jump\t// in\n    tag_11:\n      tag_13\n      jump\t// in\n    tag_10:\n      stop\n        /* \"ArrayType.sol\":645:725  function getArr() public view returns(uint[] memory) {... */\n    tag_5:\n      tag_14\n      tag_15\n      jump\t// in\n    tag_14:\n      mload(0x40)\n      tag_16\n      swap2\n      swap1\n      tag_17\n      jump\t// in\n    tag_16:\n      mload(0x40)\n      dup1\n      swap2\n      sub\n      swap1\n      return\n        /* \"ArrayType.sol\":731:809  function length() public view returns(uint) {... */\n    tag_7:\n        /* \"ArrayType.sol\":769:773  uint */\n      0x00\n        /* \"ArrayType.sol\":792:795  arr */\n      dup1\n        /* \"ArrayType.sol\":792:802  arr.length */\n      dup1\n      sload\n      swap1\n      pop\n        /* \"ArrayType.sol\":785:802  return arr.length */\n      swap1\n      pop\n        /* \"ArrayType.sol\":731:809  function length() public view returns(uint) {... */\n      swap1\n      jump\t// out\n        /* \"ArrayType.sol\":815:876  function push(uint ele) public {... */\n    tag_13:\n        /* \"ArrayType.sol\":856:859  arr */\n      0x00\n        /* \"ArrayType.sol\":865:868  ele */\n      dup2\n        /* \"ArrayType.sol\":856:869  arr.push(ele) */\n      swap1\n      dup1\n      0x01\n      dup2\n      sload\n      add\n      dup1\n      dup3\n      sstore\n      dup1\n      swap2\n      pop\n      pop\n      0x01\n      swap1\n      sub\n      swap1\n      0x00\n      mstore\n      keccak256(0x00, 0x20)\n      add\n      0x00\n      swap1\n      swap2\n      swap1\n      swap2\n      swap1\n      swap2\n      pop\n      sstore\n        /* \"ArrayType.sol\":815:876  function push(uint ele) public {... */\n      pop\n      jump\t// out\n        /* \"ArrayType.sol\":645:725  function getArr() public view returns(uint[] memory) {... */\n    tag_15:\n        /* \"ArrayType.sol\":683:696  uint[] memory */\n      0x60\n        /* \"ArrayType.sol\":715:718  arr */\n      0x00\n        /* \"ArrayType.sol\":708:718  return arr */\n      dup1\n      sload\n      dup1\n      0x20\n      mul\n      0x20\n      add\n      mload(0x40)\n      swap1\n      dup2\n      add\n      0x40\n      mstore\n      dup1\n      swap3\n      swap2\n      swap1\n      dup2\n      dup2\n      mstore\n      0x20\n      add\n      dup3\n      dup1\n      sload\n      dup1\n      iszero\n      tag_22\n      jumpi\n      0x20\n      mul\n      dup3\n      add\n      swap2\n      swap1\n      0x00\n      mstore\n      keccak256(0x00, 0x20)\n      swap1\n    tag_23:\n      dup2\n      sload\n      dup2\n      mstore\n      0x20\n      add\n      swap1\n      0x01\n      add\n      swap1\n      dup1\n      dup4\n      gt\n      tag_23\n      jumpi\n    tag_22:\n      pop\n      pop\n      pop\n      pop\n      pop\n      swap1\n      pop\n        /* \"ArrayType.sol\":645:725  function getArr() public view returns(uint[] memory) {... */\n      swap1\n      jump\t// out\n        /* \"#utility.yul\":7:146   */\n    tag_25:\n        /* \"#utility.yul\":53:58   */\n      0x00\n        /* \"#utility.yul\":91:97   */\n      dup2\n        /* \"#utility.yul\":78:98   */\n      calldataload\n        /* \"#utility.yul\":69:98   */\n      swap1\n      pop\n        /* \"#utility.yul\":107:140   */\n      tag_27\n        /* \"#utility.yul\":134:139   */\n      dup2\n        /* \"#utility.yul\":107:140   */\n      tag_28\n      jump\t// in\n    tag_27:\n        /* \"#utility.yul\":7:146   */\n      swap3\n      swap2\n      pop\n      pop\n      jump\t// out\n        /* \"#utility.yul\":152:481   */\n    tag_12:\n        /* \"#utility.yul\":211:217   */\n      0x00\n        /* \"#utility.yul\":260:262   */\n      0x20\n        /* \"#utility.yul\":248:257   */\n      dup3\n        /* \"#utility.yul\":239:246   */\n      dup5\n        /* \"#utility.yul\":235:258   */\n      sub\n        /* \"#utility.yul\":231:263   */\n      slt\n        /* \"#utility.yul\":228:347   */\n      iszero\n      tag_30\n      jumpi\n        /* \"#utility.yul\":266:345   */\n      tag_31\n      tag_32\n      jump\t// in\n    tag_31:\n        /* \"#utility.yul\":228:347   */\n    tag_30:\n        /* \"#utility.yul\":386:387   */\n      0x00\n        /* \"#utility.yul\":411:464   */\n      tag_33\n        /* \"#utility.yul\":456:463   */\n      dup5\n        /* \"#utility.yul\":447:453   */\n      dup3\n        /* \"#utility.yul\":436:445   */\n      dup6\n        /* \"#utility.yul\":432:454   */\n      add\n        /* \"#utility.yul\":411:464   */\n      tag_25\n      jump\t// in\n    tag_33:\n        /* \"#utility.yul\":401:464   */\n      swap2\n      pop\n        /* \"#utility.yul\":357:474   */\n      pop\n        /* \"#utility.yul\":152:481   */\n      swap3\n      swap2\n      pop\n      pop\n      jump\t// out\n        /* \"#utility.yul\":487:666   */\n    tag_34:\n        /* \"#utility.yul\":556:566   */\n      0x00\n        /* \"#utility.yul\":577:623   */\n      tag_36\n        /* \"#utility.yul\":619:622   */\n      dup4\n        /* \"#utility.yul\":611:617   */\n      dup4\n        /* \"#utility.yul\":577:623   */\n      tag_37\n      jump\t// in\n    tag_36:\n        /* \"#utility.yul\":655:659   */\n      0x20\n        /* \"#utility.yul\":650:653   */\n      dup4\n        /* \"#utility.yul\":646:660   */\n      add\n        /* \"#utility.yul\":632:660   */\n      swap1\n      pop\n        /* \"#utility.yul\":487:666   */\n      swap3\n      swap2\n      pop\n      pop\n      jump\t// out\n        /* \"#utility.yul\":702:1434   */\n    tag_38:\n        /* \"#utility.yul\":821:824   */\n      0x00\n        /* \"#utility.yul\":850:904   */\n      tag_40\n        /* \"#utility.yul\":898:903   */\n      dup3\n        /* \"#utility.yul\":850:904   */\n      tag_41\n      jump\t// in\n    tag_40:\n        /* \"#utility.yul\":920:1006   */\n      tag_42\n        /* \"#utility.yul\":999:1005   */\n      dup2\n        /* \"#utility.yul\":994:997   */\n      dup6\n        /* \"#utility.yul\":920:1006   */\n      tag_43\n      jump\t// in\n    tag_42:\n        /* \"#utility.yul\":913:1006   */\n      swap4\n      pop\n        /* \"#utility.yul\":1030:1086   */\n      tag_44\n        /* \"#utility.yul\":1080:1085   */\n      dup4\n        /* \"#utility.yul\":1030:1086   */\n      tag_45\n      jump\t// in\n    tag_44:\n        /* \"#utility.yul\":1109:1116   */\n      dup1\n        /* \"#utility.yul\":1140:1141   */\n      0x00\n        /* \"#utility.yul\":1125:1409   */\n    tag_46:\n        /* \"#utility.yul\":1150:1156   */\n      dup4\n        /* \"#utility.yul\":1147:1148   */\n      dup2\n        /* \"#utility.yul\":1144:1157   */\n      lt\n        /* \"#utility.yul\":1125:1409   */\n      iszero\n      tag_48\n      jumpi\n        /* \"#utility.yul\":1226:1232   */\n      dup2\n        /* \"#utility.yul\":1220:1233   */\n      mload\n        /* \"#utility.yul\":1253:1316   */\n      tag_49\n        /* \"#utility.yul\":1312:1315   */\n      dup9\n        /* \"#utility.yul\":1297:1310   */\n      dup3\n        /* \"#utility.yul\":1253:1316   */\n      tag_34\n      jump\t// in\n    tag_49:\n        /* \"#utility.yul\":1246:1316   */\n      swap8\n      pop\n        /* \"#utility.yul\":1339:1399   */\n      tag_50\n        /* \"#utility.yul\":1392:1398   */\n      dup4\n        /* \"#utility.yul\":1339:1399   */\n      tag_51\n      jump\t// in\n    tag_50:\n        /* \"#utility.yul\":1329:1399   */\n      swap3\n      pop\n        /* \"#utility.yul\":1185:1409   */\n      pop\n        /* \"#utility.yul\":1172:1173   */\n      0x01\n        /* \"#utility.yul\":1169:1170   */\n      dup2\n        /* \"#utility.yul\":1165:1174   */\n      add\n        /* \"#utility.yul\":1160:1174   */\n      swap1\n      pop\n        /* \"#utility.yul\":1125:1409   */\n      jump(tag_46)\n    tag_48:\n        /* \"#utility.yul\":1129:1143   */\n      pop\n        /* \"#utility.yul\":1425:1428   */\n      dup6\n        /* \"#utility.yul\":1418:1428   */\n      swap4\n      pop\n        /* \"#utility.yul\":826:1434   */\n      pop\n      pop\n      pop\n        /* \"#utility.yul\":702:1434   */\n      swap3\n      swap2\n      pop\n      pop\n      jump\t// out\n        /* \"#utility.yul\":1440:1548   */\n    tag_37:\n        /* \"#utility.yul\":1517:1541   */\n      tag_53\n        /* \"#utility.yul\":1535:1540   */\n      dup2\n        /* \"#utility.yul\":1517:1541   */\n      tag_54\n      jump\t// in\n    tag_53:\n        /* \"#utility.yul\":1512:1515   */\n      dup3\n        /* \"#utility.yul\":1505:1542   */\n      mstore\n        /* \"#utility.yul\":1440:1548   */\n      pop\n      pop\n      jump\t// out\n        /* \"#utility.yul\":1554:1672   */\n    tag_55:\n        /* \"#utility.yul\":1641:1665   */\n      tag_57\n        /* \"#utility.yul\":1659:1664   */\n      dup2\n        /* \"#utility.yul\":1641:1665   */\n      tag_54\n      jump\t// in\n    tag_57:\n        /* \"#utility.yul\":1636:1639   */\n      dup3\n        /* \"#utility.yul\":1629:1666   */\n      mstore\n        /* \"#utility.yul\":1554:1672   */\n      pop\n      pop\n      jump\t// out\n        /* \"#utility.yul\":1678:2051   */\n    tag_17:\n        /* \"#utility.yul\":1821:1825   */\n      0x00\n        /* \"#utility.yul\":1859:1861   */\n      0x20\n        /* \"#utility.yul\":1848:1857   */\n      dup3\n        /* \"#utility.yul\":1844:1862   */\n      add\n        /* \"#utility.yul\":1836:1862   */\n      swap1\n      pop\n        /* \"#utility.yul\":1908:1917   */\n      dup2\n        /* \"#utility.yul\":1902:1906   */\n      dup2\n        /* \"#utility.yul\":1898:1918   */\n      sub\n        /* \"#utility.yul\":1894:1895   */\n      0x00\n        /* \"#utility.yul\":1883:1892   */\n      dup4\n        /* \"#utility.yul\":1879:1896   */\n      add\n        /* \"#utility.yul\":1872:1919   */\n      mstore\n        /* \"#utility.yul\":1936:2044   */\n      tag_59\n        /* \"#utility.yul\":2039:2043   */\n      dup2\n        /* \"#utility.yul\":2030:2036   */\n      dup5\n        /* \"#utility.yul\":1936:2044   */\n      tag_38\n      jump\t// in\n    tag_59:\n        /* \"#utility.yul\":1928:2044   */\n      swap1\n      pop\n        /* \"#utility.yul\":1678:2051   */\n      swap3\n      swap2\n      pop\n      pop\n      jump\t// out\n        /* \"#utility.yul\":2057:2279   */\n    tag_9:\n        /* \"#utility.yul\":2150:2154   */\n      0x00\n        /* \"#utility.yul\":2188:2190   */\n      0x20\n        /* \"#utility.yul\":2177:2186   */\n      dup3\n        /* \"#utility.yul\":2173:2191   */\n      add\n        /* \"#utility.yul\":2165:2191   */\n      swap1\n      pop\n        /* \"#utility.yul\":2201:2272   */\n      tag_61\n        /* \"#utility.yul\":2269:2270   */\n      0x00\n        /* \"#utility.yul\":2258:2267   */\n      dup4\n        /* \"#utility.yul\":2254:2271   */\n      add\n        /* \"#utility.yul\":2245:2251   */\n      dup5\n        /* \"#utility.yul\":2201:2272   */\n      tag_55\n      jump\t// in\n    tag_61:\n        /* \"#utility.yul\":2057:2279   */\n      swap3\n      swap2\n      pop\n      pop\n      jump\t// out\n        /* \"#utility.yul\":2366:2498   */\n    tag_45:\n        /* \"#utility.yul\":2433:2437   */\n      0x00\n        /* \"#utility.yul\":2456:2459   */\n      dup2\n        /* \"#utility.yul\":2448:2459   */\n      swap1\n      pop\n        /* \"#utility.yul\":2486:2490   */\n      0x20\n        /* \"#utility.yul\":2481:2484   */\n      dup3\n        /* \"#utility.yul\":2477:2491   */\n      add\n        /* \"#utility.yul\":2469:2491   */\n      swap1\n      pop\n        /* \"#utility.yul\":2366:2498   */\n      swap2\n      swap1\n      pop\n      jump\t// out\n        /* \"#utility.yul\":2504:2618   */\n    tag_41:\n        /* \"#utility.yul\":2571:2577   */\n      0x00\n        /* \"#utility.yul\":2605:2610   */\n      dup2\n        /* \"#utility.yul\":2599:2611   */\n      mload\n        /* \"#utility.yul\":2589:2611   */\n      swap1\n      pop\n        /* \"#utility.yul\":2504:2618   */\n      swap2\n      swap1\n      pop\n      jump\t// out\n        /* \"#utility.yul\":2624:2737   */\n    tag_51:\n        /* \"#utility.yul\":2694:2698   */\n      0x00\n        /* \"#utility.yul\":2726:2730   */\n      0x20\n        /* \"#utility.yul\":2721:2724   */\n      dup3\n        /* \"#utility.yul\":2717:2731   */\n      add\n        /* \"#utility.yul\":2709:2731   */\n      swap1\n      pop\n        /* \"#utility.yul\":2624:2737   */\n      swap2\n      swap1\n      pop\n      jump\t// out\n        /* \"#utility.yul\":2743:2927   */\n    tag_43:\n        /* \"#utility.yul\":2842:2853   */\n      0x00\n        /* \"#utility.yul\":2876:2882   */\n      dup3\n        /* \"#utility.yul\":2871:2874   */\n      dup3\n        /* \"#utility.yul\":2864:2883   */\n      mstore\n        /* \"#utility.yul\":2916:2920   */\n      0x20\n        /* \"#utility.yul\":2911:2914   */\n      dup3\n        /* \"#utility.yul\":2907:2921   */\n      add\n        /* \"#utility.yul\":2892:2921   */\n      swap1\n      pop\n        /* \"#utility.yul\":2743:2927   */\n      swap3\n      swap2\n      pop\n      pop\n      jump\t// out\n        /* \"#utility.yul\":2933:3010   */\n    tag_54:\n        /* \"#utility.yul\":2970:2977   */\n      0x00\n        /* \"#utility.yul\":2999:3004   */\n      dup2\n        /* \"#utility.yul\":2988:3004   */\n      swap1\n      pop\n        /* \"#utility.yul\":2933:3010   */\n      swap2\n      swap1\n      pop\n      jump\t// out\n        /* \"#utility.yul\":3139:3256   */\n    tag_32:\n        /* \"#utility.yul\":3248:3249   */\n      0x00\n        /* \"#utility.yul\":3245:3246   */\n      dup1\n        /* \"#utility.yul\":3238:3250   */\n      revert\n        /* \"#utility.yul\":3262:3384   */\n    tag_28:\n        /* \"#utility.yul\":3335:3359   */\n      tag_73\n        /* \"#utility.yul\":3353:3358   */\n      dup2\n        /* \"#utility.yul\":3335:3359   */\n      tag_54\n      jump\t// in\n    tag_73:\n        /* \"#utility.yul\":3328:3333   */\n      dup2\n        /* \"#utility.yul\":3325:3360   */\n      eq\n        /* \"#utility.yul\":3315:3378   */\n      tag_74\n      jumpi\n        /* \"#utility.yul\":3374:3375   */\n      0x00\n        /* \"#utility.yul\":3371:3372   */\n      dup1\n        /* \"#utility.yul\":3364:3376   */\n      revert\n        /* \"#utility.yul\":3315:3378   */\n    tag_74:\n        /* \"#utility.yul\":3262:3384   */\n      pop\n      jump\t// out\n\n    auxdata: 0xa2646970667358221220e958e4b382e07a78d1d379c791062cd1913fc0de7d76c1dc075ce30a36d1e44164736f6c63430008070033\n}\n",
				"bytecode": {
					"linkReferences": {},
					"object": "60806040526040518060200160405280600060ff16815250600090600161002792919061003a565b5034801561003457600080fd5b506100a9565b82805482825590600052602060002090810192821561007b579160200282015b8281111561007a578251829060ff1690559160200191906001019061005a565b5b509050610088919061008c565b5090565b5b808211156100a557600081600090555060010161008d565b5090565b6102d6806100b86000396000f3fe608060405234801561001057600080fd5b50600436106100415760003560e01c80631f7b6d3214610046578063959ac48414610064578063fb8cbced14610080575b600080fd5b61004e61009e565b60405161005b9190610226565b60405180910390f35b61007e60048036038101906100799190610143565b6100aa565b005b6100886100d6565b6040516100959190610204565b60405180910390f35b60008080549050905090565b600081908060018154018082558091505060019003906000526020600020016000909190919091505550565b6060600080548060200260200160405190810160405280929190818152602001828054801561012457602002820191906000526020600020905b815481526020019060010190808311610110575b5050505050905090565b60008135905061013d81610289565b92915050565b60006020828403121561015957610158610284565b5b60006101678482850161012e565b91505092915050565b600061017c83836101e6565b60208301905092915050565b600061019382610251565b61019d8185610269565b93506101a883610241565b8060005b838110156101d95781516101c08882610170565b97506101cb8361025c565b9250506001810190506101ac565b5085935050505092915050565b6101ef8161027a565b82525050565b6101fe8161027a565b82525050565b6000602082019050818103600083015261021e8184610188565b905092915050565b600060208201905061023b60008301846101f5565b92915050565b6000819050602082019050919050565b600081519050919050565b6000602082019050919050565b600082825260208201905092915050565b6000819050919050565b600080fd5b6102928161027a565b811461029d57600080fd5b5056fea2646970667358221220e958e4b382e07a78d1d379c791062cd1913fc0de7d76c1dc075ce30a36d1e44164736f6c63430008070033",
					"opcodes": "PUSH1 0x80 PUSH1 0x40 MSTORE PUSH1 0x40 MLOAD DUP1 PUSH1 0x20 ADD PUSH1 0x40 MSTORE DUP1 PUSH1 0x0 PUSH1 0xFF AND DUP2 MSTORE POP PUSH1 0x0 SWAP1 PUSH1 0x1 PUSH2 0x27 SWAP3 SWAP2 SWAP1 PUSH2 0x3A JUMP JUMPDEST POP CALLVALUE DUP1 ISZERO PUSH2 0x34 JUMPI PUSH1 0x0 DUP1 REVERT JUMPDEST POP PUSH2 0xA9 JUMP JUMPDEST DUP3 DUP1 SLOAD DUP3 DUP3 SSTORE SWAP1 PUSH1 0x0 MSTORE PUSH1 0x20 PUSH1 0x0 KECCAK256 SWAP1 DUP2 ADD SWAP3 DUP3 ISZERO PUSH2 0x7B JUMPI SWAP2 PUSH1 0x20 MUL DUP3 ADD JUMPDEST DUP3 DUP2 GT ISZERO PUSH2 0x7A JUMPI DUP3 MLOAD DUP3 SWAP1 PUSH1 0xFF AND SWAP1 SSTORE SWAP2 PUSH1 0x20 ADD SWAP2 SWAP1 PUSH1 0x1 ADD SWAP1 PUSH2 0x5A JUMP JUMPDEST JUMPDEST POP SWAP1 POP PUSH2 0x88 SWAP2 SWAP1 PUSH2 0x8C JUMP JUMPDEST POP SWAP1 JUMP JUMPDEST JUMPDEST DUP1 DUP3 GT ISZERO PUSH2 0xA5 JUMPI PUSH1 0x0 DUP2 PUSH1 0x0 SWAP1 SSTORE POP PUSH1 0x1 ADD PUSH2 0x8D JUMP JUMPDEST POP SWAP1 JUMP JUMPDEST PUSH2 0x2D6 DUP1 PUSH2 0xB8 PUSH1 0x0 CODECOPY PUSH1 0x0 RETURN INVALID PUSH1 0x80 PUSH1 0x40 MSTORE CALLVALUE DUP1 ISZERO PUSH2 0x10 JUMPI PUSH1 0x0 DUP1 REVERT JUMPDEST POP PUSH1 0x4 CALLDATASIZE LT PUSH2 0x41 JUMPI PUSH1 0x0 CALLDATALOAD PUSH1 0xE0 SHR DUP1 PUSH4 0x1F7B6D32 EQ PUSH2 0x46 JUMPI DUP1 PUSH4 0x959AC484 EQ PUSH2 0x64 JUMPI DUP1 PUSH4 0xFB8CBCED EQ PUSH2 0x80 JUMPI JUMPDEST PUSH1 0x0 DUP1 REVERT JUMPDEST PUSH2 0x4E PUSH2 0x9E JUMP JUMPDEST PUSH1 0x40 MLOAD PUSH2 0x5B SWAP2 SWAP1 PUSH2 0x226 JUMP JUMPDEST PUSH1 0x40 MLOAD DUP1 SWAP2 SUB SWAP1 RETURN JUMPDEST PUSH2 0x7E PUSH1 0x4 DUP1 CALLDATASIZE SUB DUP2 ADD SWAP1 PUSH2 0x79 SWAP2 SWAP1 PUSH2 0x143 JUMP JUMPDEST PUSH2 0xAA JUMP JUMPDEST STOP JUMPDEST PUSH2 0x88 PUSH2 0xD6 JUMP JUMPDEST PUSH1 0x40 MLOAD PUSH2 0x95 SWAP2 SWAP1 PUSH2 0x204 JUMP JUMPDEST PUSH1 0x40 MLOAD DUP1 SWAP2 SUB SWAP1 RETURN JUMPDEST PUSH1 0x0 DUP1 DUP1 SLOAD SWAP1 POP SWAP1 POP SWAP1 JUMP JUMPDEST PUSH1 0x0 DUP2 SWAP1 DUP1 PUSH1 0x1 DUP2 SLOAD ADD DUP1 DUP3 SSTORE DUP1 SWAP2 POP POP PUSH1 0x1 SWAP1 SUB SWAP1 PUSH1 0x0 MSTORE PUSH1 0x20 PUSH1 0x0 KECCAK256 ADD PUSH1 0x0 SWAP1 SWAP2 SWAP1 SWAP2 SWAP1 SWAP2 POP SSTORE POP JUMP JUMPDEST PUSH1 0x60 PUSH1 0x0 DUP1 SLOAD DUP1 PUSH1 0x20 MUL PUSH1 0x20 ADD PUSH1 0x40 MLOAD SWAP1 DUP2 ADD PUSH1 0x40 MSTORE DUP1 SWAP3 SWAP2 SWAP1 DUP2 DUP2 MSTORE PUSH1 0x20 ADD DUP3 DUP1 SLOAD DUP1 ISZERO PUSH2 0x124 JUMPI PUSH1 0x20 MUL DUP3 ADD SWAP2 SWAP1 PUSH1 0x0 MSTORE PUSH1 0x20 PUSH1 0x0 KECCAK256 SWAP1 JUMPDEST DUP2 SLOAD DUP2 MSTORE PUSH1 0x20 ADD SWAP1 PUSH1 0x1 ADD SWAP1 DUP1 DUP4 GT PUSH2 0x110 JUMPI JUMPDEST POP POP POP POP POP SWAP1 POP SWAP1 JUMP JUMPDEST PUSH1 0x0 DUP2 CALLDATALOAD SWAP1 POP PUSH2 0x13D DUP2 PUSH2 0x289 JUMP JUMPDEST SWAP3 SWAP2 POP POP JUMP JUMPDEST PUSH1 0x0 PUSH1 0x20 DUP3 DUP5 SUB SLT ISZERO PUSH2 0x159 JUMPI PUSH2 0x158 PUSH2 0x284 JUMP JUMPDEST JUMPDEST PUSH1 0x0 PUSH2 0x167 DUP5 DUP3 DUP6 ADD PUSH2 0x12E JUMP JUMPDEST SWAP2 POP POP SWAP3 SWAP2 POP POP JUMP JUMPDEST PUSH1 0x0 PUSH2 0x17C DUP4 DUP4 PUSH2 0x1E6 JUMP JUMPDEST PUSH1 0x20 DUP4 ADD SWAP1 POP SWAP3 SWAP2 POP POP JUMP JUMPDEST PUSH1 0x0 PUSH2 0x193 DUP3 PUSH2 0x251 JUMP JUMPDEST PUSH2 0x19D DUP2 DUP6 PUSH2 0x269 JUMP JUMPDEST SWAP4 POP PUSH2 0x1A8 DUP4 PUSH2 0x241 JUMP JUMPDEST DUP1 PUSH1 0x0 JUMPDEST DUP4 DUP2 LT ISZERO PUSH2 0x1D9 JUMPI DUP2 MLOAD PUSH2 0x1C0 DUP9 DUP3 PUSH2 0x170 JUMP JUMPDEST SWAP8 POP PUSH2 0x1CB DUP4 PUSH2 0x25C JUMP JUMPDEST SWAP3 POP POP PUSH1 0x1 DUP2 ADD SWAP1 POP PUSH2 0x1AC JUMP JUMPDEST POP DUP6 SWAP4 POP POP POP POP SWAP3 SWAP2 POP POP JUMP JUMPDEST PUSH2 0x1EF DUP2 PUSH2 0x27A JUMP JUMPDEST DUP3 MSTORE POP POP JUMP JUMPDEST PUSH2 0x1FE DUP2 PUSH2 0x27A JUMP JUMPDEST DUP3 MSTORE POP POP JUMP JUMPDEST PUSH1 0x0 PUSH1 0x20 DUP3 ADD SWAP1 POP DUP2 DUP2 SUB PUSH1 0x0 DUP4 ADD MSTORE PUSH2 0x21E DUP2 DUP5 PUSH2 0x188 JUMP JUMPDEST SWAP1 POP SWAP3 SWAP2 POP POP JUMP JUMPDEST PUSH1 0x0 PUSH1 0x20 DUP3 ADD SWAP1 POP PUSH2 0x23B PUSH1 0x0 DUP4 ADD DUP5 PUSH2 0x1F5 JUMP JUMPDEST SWAP3 SWAP2 POP POP JUMP JUMPDEST PUSH1 0x0 DUP2 SWAP1 POP PUSH1 0x20 DUP3 ADD SWAP1 POP SWAP2 SWAP1 POP JUMP JUMPDEST PUSH1 0x0 DUP2 MLOAD SWAP1 POP SWAP2 SWAP1 POP JUMP JUMPDEST PUSH1 0x0 PUSH1 0x20 DUP3 ADD SWAP1 POP SWAP2 SWAP1 POP JUMP JUMPDEST PUSH1 0x0 DUP3 DUP3 MSTORE PUSH1 0x20 DUP3 ADD SWAP1 POP SWAP3 SWAP2 POP POP JUMP JUMPDEST PUSH1 0x0 DUP2 SWAP1 POP SWAP2 SWAP1 POP JUMP JUMPDEST PUSH1 0x0 DUP1 REVERT JUMPDEST PUSH2 0x292 DUP2 PUSH2 0x27A JUMP JUMPDEST DUP2 EQ PUSH2 0x29D JUMPI PUSH1 0x0 DUP1 REVERT JUMPDEST POP JUMP INVALID LOG2 PUSH5 0x6970667358 0x22 SLT KECCAK256 0xE9 PC 0xE4 0xB3 DUP3 0xE0 PUSH27 0x78D1D379C791062CD1913FC0DE7D76C1DC075CE30A36D1E4416473 PUSH16 0x6C634300080700330000000000000000 "
				},
				"gasEstimates": {
					"creation": {
						"codeDepositCost": "145200",
						"executionCost": "infinite",
						"totalCost": "infinite"
					},
					"external": {
						"getArr()": "infinite",
						"length()": "2423",
						"push(uint256)": "46829"
					}
				},
				"methodIdentifiers": {
					"getArr()": "fb8cbced",
					"length()": "1f7b6d32",
					"push(uint256)": "959ac484"
				}
			},
			"storageLayout": {
				"storage": [
					{
						"astId": 75,
						"contract": "ArrayType.sol:ArrayType2",
						"label": "arr",
						"offset": 0,
						"slot": "0",
						"type": "t_array(t_uint256)dyn_storage"
					}
				],
				"types": {
					"t_array(t_uint256)dyn_storage": {
						"base": "t_uint256",
						"encoding": "dynamic_array",
						"label": "uint256[]",
						"numberOfBytes": "32"
					},
					"t_uint256": {
						"encoding": "inplace",
						"label": "uint256",
						"numberOfBytes": "32"
					}
				}
			},
			"userdoc": {
				"kind": "user",
				"methods": {},
				"version": 1
			}
		}
	}
}