{
	"DataType.sol": {
		"StringType": {
			"abi": [
				{
					"inputs": [
						{
							"internalType": "string",
							"name": "_a",
							"type": "string"
						},
						{
							"internalType": "string",
							"name": "_b",
							"type": "string"
						}
					],
					"name": "concat2",
					"outputs": [
						{
							"internalType": "string",
							"name": "",
							"type": "string"
						}
					],
					"stateMutability": "view",
					"type": "function"
				},
				{
					"inputs": [],
					"name": "concat3",
					"outputs": [
						{
							"internalType": "string",
							"name": "",
							"type": "string"
						}
					],
					"stateMutability": "view",
					"type": "function"
				},
				{
					"inputs": [],
					"name": "str1",
					"outputs": [
						{
							"internalType": "string",
							"name": "",
							"type": "string"
						}
					],
					"stateMutability": "view",
					"type": "function"
				},
				{
					"inputs": [],
					"name": "str2",
					"outputs": [
						{
							"internalType": "string",
							"name": "",
							"type": "string"
						}
					],
					"stateMutability": "view",
					"type": "function"
				},
				{
					"inputs": [],
					"name": "testString",
					"outputs": [
						{
							"internalType": "bool",
							"name": "",
							"type": "bool"
						}
					],
					"stateMutability": "view",
					"type": "function"
				}
			],
			"devdoc": {
				"kind": "dev",
				"methods": {},
				"version": 1
			},
			"evm": {
				"assembly": "    /* \"DataType.sol\":549:1441  contract StringType {... */\n  mstore(0x40, 0x80)\n    /* \"DataType.sol\":613:639  string public str1 = \"123\" */\n  mload(0x40)\n  dup1\n  0x40\n  add\n  0x40\n  mstore\n  dup1\n  0x03\n  dup2\n  mstore\n  0x20\n  add\n  0x3132330000000000000000000000000000000000000000000000000000000000\n  dup2\n  mstore\n  pop\n  0x00\n  swap1\n  dup1\n  mload\n  swap1\n  0x20\n  add\n  swap1\n  tag_1\n  swap3\n  swap2\n  swap1\n  tag_2\n  jump\t// in\ntag_1:\n  pop\n    /* \"DataType.sol\":688:714  string public str2 = \"123\" */\n  mload(0x40)\n  dup1\n  0x40\n  add\n  0x40\n  mstore\n  dup1\n  0x03\n  dup2\n  mstore\n  0x20\n  add\n  0x3132330000000000000000000000000000000000000000000000000000000000\n  dup2\n  mstore\n  pop\n  0x01\n  swap1\n  dup1\n  mload\n  swap1\n  0x20\n  add\n  swap1\n  tag_3\n  swap3\n  swap2\n  swap1\n  tag_2\n  jump\t// in\ntag_3:\n  pop\n    /* \"DataType.sol\":549:1441  contract StringType {... */\n  callvalue\n  dup1\n  iszero\n  tag_4\n  jumpi\n  0x00\n  dup1\n  revert\ntag_4:\n  pop\n  jump(tag_5)\ntag_2:\n  dup3\n  dup1\n  sload\n  tag_6\n  swap1\n  tag_7\n  jump\t// in\ntag_6:\n  swap1\n  0x00\n  mstore\n  keccak256(0x00, 0x20)\n  swap1\n  0x1f\n  add\n  0x20\n  swap1\n  div\n  dup2\n  add\n  swap3\n  dup3\n  tag_9\n  jumpi\n  0x00\n  dup6\n  sstore\n  jump(tag_8)\ntag_9:\n  dup3\n  0x1f\n  lt\n  tag_10\n  jumpi\n  dup1\n  mload\n  not(0xff)\n  and\n  dup4\n  dup1\n  add\n  or\n  dup6\n  sstore\n  jump(tag_8)\ntag_10:\n  dup3\n  dup1\n  add\n  0x01\n  add\n  dup6\n  sstore\n  dup3\n  iszero\n  tag_8\n  jumpi\n  swap2\n  dup3\n  add\ntag_11:\n  dup3\n  dup2\n  gt\n  iszero\n  tag_12\n  jumpi\n  dup3\n  mload\n  dup3\n  sstore\n  swap2\n  0x20\n  add\n  swap2\n  swap1\n  0x01\n  add\n  swap1\n  jump(tag_11)\ntag_12:\ntag_8:\n  pop\n  swap1\n  pop\n  tag_13\n  swap2\n  swap1\n  tag_14\n  jump\t// in\ntag_13:\n  pop\n  swap1\n  jump\t// out\ntag_14:\ntag_15:\n  dup1\n  dup3\n  gt\n  iszero\n  tag_16\n  jumpi\n  0x00\n  dup2\n  0x00\n  swap1\n  sstore\n  pop\n  0x01\n  add\n  jump(tag_15)\ntag_16:\n  pop\n  swap1\n  jump\t// out\n    /* \"#utility.yul\":7:327   */\ntag_7:\n    /* \"#utility.yul\":51:57   */\n  0x00\n    /* \"#utility.yul\":88:89   */\n  0x02\n    /* \"#utility.yul\":82:86   */\n  dup3\n    /* \"#utility.yul\":78:90   */\n  div\n    /* \"#utility.yul\":68:90   */\n  swap1\n  pop\n    /* \"#utility.yul\":135:136   */\n  0x01\n    /* \"#utility.yul\":129:133   */\n  dup3\n    /* \"#utility.yul\":125:137   */\n  and\n    /* \"#utility.yul\":156:174   */\n  dup1\n    /* \"#utility.yul\":146:227   */\n  tag_19\n  jumpi\n    /* \"#utility.yul\":212:216   */\n  0x7f\n    /* \"#utility.yul\":204:210   */\n  dup3\n    /* \"#utility.yul\":200:217   */\n  and\n    /* \"#utility.yul\":190:217   */\n  swap2\n  pop\n    /* \"#utility.yul\":146:227   */\ntag_19:\n    /* \"#utility.yul\":274:276   */\n  0x20\n    /* \"#utility.yul\":266:272   */\n  dup3\n    /* \"#utility.yul\":263:277   */\n  lt\n    /* \"#utility.yul\":243:261   */\n  dup2\n    /* \"#utility.yul\":240:278   */\n  eq\n    /* \"#utility.yul\":237:321   */\n  iszero\n  tag_20\n  jumpi\n    /* \"#utility.yul\":293:311   */\n  tag_21\n  tag_22\n  jump\t// in\ntag_21:\n    /* \"#utility.yul\":237:321   */\ntag_20:\n    /* \"#utility.yul\":58:327   */\n  pop\n    /* \"#utility.yul\":7:327   */\n  swap2\n  swap1\n  pop\n  jump\t// out\n    /* \"#utility.yul\":333:513   */\ntag_22:\n    /* \"#utility.yul\":381:458   */\n  0x4e487b7100000000000000000000000000000000000000000000000000000000\n    /* \"#utility.yul\":378:379   */\n  0x00\n    /* \"#utility.yul\":371:459   */\n  mstore\n    /* \"#utility.yul\":478:482   */\n  0x22\n    /* \"#utility.yul\":475:476   */\n  0x04\n    /* \"#utility.yul\":468:483   */\n  mstore\n    /* \"#utility.yul\":502:506   */\n  0x24\n    /* \"#utility.yul\":499:500   */\n  0x00\n    /* \"#utility.yul\":492:507   */\n  revert\n    /* \"DataType.sol\":549:1441  contract StringType {... */\ntag_5:\n  dataSize(sub_0)\n  dup1\n  dataOffset(sub_0)\n  0x00\n  codecopy\n  0x00\n  return\nstop\n\nsub_0: assembly {\n        /* \"DataType.sol\":549:1441  contract StringType {... */\n      mstore(0x40, 0x80)\n      callvalue\n      dup1\n      iszero\n      tag_1\n      jumpi\n      0x00\n      dup1\n      revert\n    tag_1:\n      pop\n      jumpi(tag_2, lt(calldatasize, 0x04))\n      shr(0xe0, calldataload(0x00))\n      dup1\n      0x252a1437\n      eq\n      tag_3\n      jumpi\n      dup1\n      0xd118d187\n      eq\n      tag_4\n      jumpi\n      dup1\n      0xf6084f07\n      eq\n      tag_5\n      jumpi\n      dup1\n      0xfb8f0f59\n      eq\n      tag_6\n      jumpi\n      dup1\n      0xfcdcfa50\n      eq\n      tag_7\n      jumpi\n    tag_2:\n      0x00\n      dup1\n      revert\n        /* \"DataType.sol\":880:1102  function concat2(string memory _a, string memory _b) public view returns(string memory) {... */\n    tag_3:\n      tag_8\n      0x04\n      dup1\n      calldatasize\n      sub\n      dup2\n      add\n      swap1\n      tag_9\n      swap2\n      swap1\n      tag_10\n      jump\t// in\n    tag_9:\n      tag_11\n      jump\t// in\n    tag_8:\n      mload(0x40)\n      tag_12\n      swap2\n      swap1\n      tag_13\n      jump\t// in\n    tag_12:\n      mload(0x40)\n      dup1\n      swap2\n      sub\n      swap1\n      return\n        /* \"DataType.sol\":613:639  string public str1 = \"123\" */\n    tag_4:\n      tag_14\n      tag_15\n      jump\t// in\n    tag_14:\n      mload(0x40)\n      tag_16\n      swap2\n      swap1\n      tag_13\n      jump\t// in\n    tag_16:\n      mload(0x40)\n      dup1\n      swap2\n      sub\n      swap1\n      return\n        /* \"DataType.sol\":1325:1439  function concat3() public view returns(string memory) {... */\n    tag_5:\n      tag_17\n      tag_18\n      jump\t// in\n    tag_17:\n      mload(0x40)\n      tag_19\n      swap2\n      swap1\n      tag_13\n      jump\t// in\n    tag_19:\n      mload(0x40)\n      dup1\n      swap2\n      sub\n      swap1\n      return\n        /* \"DataType.sol\":1108:1319  function testString() public view returns(bool) {... */\n    tag_6:\n      tag_20\n      tag_21\n      jump\t// in\n    tag_20:\n      mload(0x40)\n      tag_22\n      swap2\n      swap1\n      tag_23\n      jump\t// in\n    tag_22:\n      mload(0x40)\n      dup1\n      swap2\n      sub\n      swap1\n      return\n        /* \"DataType.sol\":688:714  string public str2 = \"123\" */\n    tag_7:\n      tag_24\n      tag_25\n      jump\t// in\n    tag_24:\n      mload(0x40)\n      tag_26\n      swap2\n      swap1\n      tag_13\n      jump\t// in\n    tag_26:\n      mload(0x40)\n      dup1\n      swap2\n      sub\n      swap1\n      return\n        /* \"DataType.sol\":880:1102  function concat2(string memory _a, string memory _b) public view returns(string memory) {... */\n    tag_11:\n        /* \"DataType.sol\":953:966  string memory */\n      0x60\n        /* \"DataType.sol\":978:994  bytes memory _ba */\n      0x00\n        /* \"DataType.sol\":1003:1007  str1 */\n      dup1\n        /* \"DataType.sol\":978:1008  bytes memory _ba = bytes(str1) */\n      dup1\n      sload\n      tag_28\n      swap1\n      tag_29\n      jump\t// in\n    tag_28:\n      dup1\n      0x1f\n      add\n      0x20\n      dup1\n      swap2\n      div\n      mul\n      0x20\n      add\n      mload(0x40)\n      swap1\n      dup2\n      add\n      0x40\n      mstore\n      dup1\n      swap3\n      swap2\n      swap1\n      dup2\n      dup2\n      mstore\n      0x20\n      add\n      dup3\n      dup1\n      sload\n      tag_30\n      swap1\n      tag_29\n      jump\t// in\n    tag_30:\n      dup1\n      iszero\n      tag_31\n      jumpi\n      dup1\n      0x1f\n      lt\n      tag_32\n      jumpi\n      0x0100\n      dup1\n      dup4\n      sload\n      div\n      mul\n      dup4\n      mstore\n      swap2\n      0x20\n      add\n      swap2\n      jump(tag_31)\n    tag_32:\n      dup3\n      add\n      swap2\n      swap1\n      0x00\n      mstore\n      keccak256(0x00, 0x20)\n      swap1\n    tag_33:\n      dup2\n      sload\n      dup2\n      mstore\n      swap1\n      0x01\n      add\n      swap1\n      0x20\n      add\n      dup1\n      dup4\n      gt\n      tag_33\n      jumpi\n      dup3\n      swap1\n      sub\n      0x1f\n      and\n      dup3\n      add\n      swap2\n    tag_31:\n      pop\n      pop\n      pop\n      pop\n      pop\n      swap1\n      pop\n        /* \"DataType.sol\":1018:1034  bytes memory _bb */\n      0x00\n        /* \"DataType.sol\":1043:1047  str2 */\n      0x01\n        /* \"DataType.sol\":1018:1048  bytes memory _bb = bytes(str2) */\n      dup1\n      sload\n      tag_34\n      swap1\n      tag_29\n      jump\t// in\n    tag_34:\n      dup1\n      0x1f\n      add\n      0x20\n      dup1\n      swap2\n      div\n      mul\n      0x20\n      add\n      mload(0x40)\n      swap1\n      dup2\n      add\n      0x40\n      mstore\n      dup1\n      swap3\n      swap2\n      swap1\n      dup2\n      dup2\n      mstore\n      0x20\n      add\n      dup3\n      dup1\n      sload\n      tag_35\n      swap1\n      tag_29\n      jump\t// in\n    tag_35:\n      dup1\n      iszero\n      tag_36\n      jumpi\n      dup1\n      0x1f\n      lt\n      tag_37\n      jumpi\n      0x0100\n      dup1\n      dup4\n      sload\n      div\n      mul\n      dup4\n      mstore\n      swap2\n      0x20\n      add\n      swap2\n      jump(tag_36)\n    tag_37:\n      dup3\n      add\n      swap2\n      swap1\n      0x00\n      mstore\n      keccak256(0x00, 0x20)\n      swap1\n    tag_38:\n      dup2\n      sload\n      dup2\n      mstore\n      swap1\n      0x01\n      add\n      swap1\n      0x20\n      add\n      dup1\n      dup4\n      gt\n      tag_38\n      jumpi\n      dup3\n      swap1\n      sub\n      0x1f\n      and\n      dup3\n      add\n      swap2\n    tag_36:\n      pop\n      pop\n      pop\n      pop\n      pop\n      swap1\n      pop\n        /* \"DataType.sol\":1085:1088  _ba */\n      dup2\n        /* \"DataType.sol\":1090:1093  _bb */\n      dup2\n        /* \"DataType.sol\":1072:1094  bytes.concat(_ba, _bb) */\n      add(0x20, mload(0x40))\n      tag_39\n      swap3\n      swap2\n      swap1\n      tag_40\n      jump\t// in\n    tag_39:\n      mload(0x40)\n      0x20\n      dup2\n      dup4\n      sub\n      sub\n      dup2\n      mstore\n      swap1\n      0x40\n      mstore\n        /* \"DataType.sol\":1058:1095  return string(bytes.concat(_ba, _bb)) */\n      swap3\n      pop\n      pop\n      pop\n        /* \"DataType.sol\":880:1102  function concat2(string memory _a, string memory _b) public view returns(string memory) {... */\n      swap3\n      swap2\n      pop\n      pop\n      jump\t// out\n        /* \"DataType.sol\":613:639  string public str1 = \"123\" */\n    tag_15:\n      0x00\n      dup1\n      sload\n      tag_41\n      swap1\n      tag_29\n      jump\t// in\n    tag_41:\n      dup1\n      0x1f\n      add\n      0x20\n      dup1\n      swap2\n      div\n      mul\n      0x20\n      add\n      mload(0x40)\n      swap1\n      dup2\n      add\n      0x40\n      mstore\n      dup1\n      swap3\n      swap2\n      swap1\n      dup2\n      dup2\n      mstore\n      0x20\n      add\n      dup3\n      dup1\n      sload\n      tag_42\n      swap1\n      tag_29\n      jump\t// in\n    tag_42:\n      dup1\n      iszero\n      tag_43\n      jumpi\n      dup1\n      0x1f\n      lt\n      tag_44\n      jumpi\n      0x0100\n      dup1\n      dup4\n      sload\n      div\n      mul\n      dup4\n      mstore\n      swap2\n      0x20\n      add\n      swap2\n      jump(tag_43)\n    tag_44:\n      dup3\n      add\n      swap2\n      swap1\n      0x00\n      mstore\n      keccak256(0x00, 0x20)\n      swap1\n    tag_45:\n      dup2\n      sload\n      dup2\n      mstore\n      swap1\n      0x01\n      add\n      swap1\n      0x20\n      add\n      dup1\n      dup4\n      gt\n      tag_45\n      jumpi\n      dup3\n      swap1\n      sub\n      0x1f\n      and\n      dup3\n      add\n      swap2\n    tag_43:\n      pop\n      pop\n      pop\n      pop\n      pop\n      dup2\n      jump\t// out\n        /* \"DataType.sol\":1325:1439  function concat3() public view returns(string memory) {... */\n    tag_18:\n        /* \"DataType.sol\":1364:1377  string memory */\n      0x60\n        /* \"DataType.sol\":1420:1424  str1 */\n      0x00\n        /* \"DataType.sol\":1426:1430  str2 */\n      0x01\n        /* \"DataType.sol\":1403:1431  abi.encodePacked(str1, str2) */\n      add(0x20, mload(0x40))\n      tag_47\n      swap3\n      swap2\n      swap1\n      tag_48\n      jump\t// in\n    tag_47:\n      mload(0x40)\n      0x20\n      dup2\n      dup4\n      sub\n      sub\n      dup2\n      mstore\n      swap1\n      0x40\n      mstore\n        /* \"DataType.sol\":1389:1432  return string(abi.encodePacked(str1, str2)) */\n      swap1\n      pop\n        /* \"DataType.sol\":1325:1439  function concat3() public view returns(string memory) {... */\n      swap1\n      jump\t// out\n        /* \"DataType.sol\":1108:1319  function testString() public view returns(bool) {... */\n    tag_21:\n        /* \"DataType.sol\":1150:1154  bool */\n      0x00\n        /* \"DataType.sol\":1306:1310  str2 */\n      0x01\n        /* \"DataType.sol\":1289:1311  abi.encodePacked(str2) */\n      add(0x20, mload(0x40))\n      tag_50\n      swap2\n      swap1\n      tag_51\n      jump\t// in\n    tag_50:\n      mload(0x40)\n      0x20\n      dup2\n      dup4\n      sub\n      sub\n      dup2\n      mstore\n      swap1\n      0x40\n      mstore\n        /* \"DataType.sol\":1279:1312  keccak256(abi.encodePacked(str2)) */\n      dup1\n      mload\n      swap1\n      0x20\n      add\n      keccak256\n        /* \"DataType.sol\":1269:1273  str1 */\n      0x00\n        /* \"DataType.sol\":1252:1274  abi.encodePacked(str1) */\n      add(0x20, mload(0x40))\n      tag_52\n      swap2\n      swap1\n      tag_51\n      jump\t// in\n    tag_52:\n      mload(0x40)\n      0x20\n      dup2\n      dup4\n      sub\n      sub\n      dup2\n      mstore\n      swap1\n      0x40\n      mstore\n        /* \"DataType.sol\":1242:1275  keccak256(abi.encodePacked(str1)) */\n      dup1\n      mload\n      swap1\n      0x20\n      add\n      keccak256\n        /* \"DataType.sol\":1242:1312  keccak256(abi.encodePacked(str1)) == keccak256(abi.encodePacked(str2)) */\n      eq\n        /* \"DataType.sol\":1235:1312  return keccak256(abi.encodePacked(str1)) == keccak256(abi.encodePacked(str2)) */\n      swap1\n      pop\n        /* \"DataType.sol\":1108:1319  function testString() public view returns(bool) {... */\n      swap1\n      jump\t// out\n        /* \"DataType.sol\":688:714  string public str2 = \"123\" */\n    tag_25:\n      0x01\n      dup1\n      sload\n      tag_53\n      swap1\n      tag_29\n      jump\t// in\n    tag_53:\n      dup1\n      0x1f\n      add\n      0x20\n      dup1\n      swap2\n      div\n      mul\n      0x20\n      add\n      mload(0x40)\n      swap1\n      dup2\n      add\n      0x40\n      mstore\n      dup1\n      swap3\n      swap2\n      swap1\n      dup2\n      dup2\n      mstore\n      0x20\n      add\n      dup3\n      dup1\n      sload\n      tag_54\n      swap1\n      tag_29\n      jump\t// in\n    tag_54:\n      dup1\n      iszero\n      tag_55\n      jumpi\n      dup1\n      0x1f\n      lt\n      tag_56\n      jumpi\n      0x0100\n      dup1\n      dup4\n      sload\n      div\n      mul\n      dup4\n      mstore\n      swap2\n      0x20\n      add\n      swap2\n      jump(tag_55)\n    tag_56:\n      dup3\n      add\n      swap2\n      swap1\n      0x00\n      mstore\n      keccak256(0x00, 0x20)\n      swap1\n    tag_57:\n      dup2\n      sload\n      dup2\n      mstore\n      swap1\n      0x01\n      add\n      swap1\n      0x20\n      add\n      dup1\n      dup4\n      gt\n      tag_57\n      jumpi\n      dup3\n      swap1\n      sub\n      0x1f\n      and\n      dup3\n      add\n      swap2\n    tag_55:\n      pop\n      pop\n      pop\n      pop\n      pop\n      dup2\n      jump\t// out\n        /* \"#utility.yul\":7:419   */\n    tag_59:\n        /* \"#utility.yul\":85:90   */\n      0x00\n        /* \"#utility.yul\":110:176   */\n      tag_61\n        /* \"#utility.yul\":126:175   */\n      tag_62\n        /* \"#utility.yul\":168:174   */\n      dup5\n        /* \"#utility.yul\":126:175   */\n      tag_63\n      jump\t// in\n    tag_62:\n        /* \"#utility.yul\":110:176   */\n      tag_64\n      jump\t// in\n    tag_61:\n        /* \"#utility.yul\":101:176   */\n      swap1\n      pop\n        /* \"#utility.yul\":199:205   */\n      dup3\n        /* \"#utility.yul\":192:197   */\n      dup2\n        /* \"#utility.yul\":185:206   */\n      mstore\n        /* \"#utility.yul\":237:241   */\n      0x20\n        /* \"#utility.yul\":230:235   */\n      dup2\n        /* \"#utility.yul\":226:242   */\n      add\n        /* \"#utility.yul\":275:278   */\n      dup5\n        /* \"#utility.yul\":266:272   */\n      dup5\n        /* \"#utility.yul\":261:264   */\n      dup5\n        /* \"#utility.yul\":257:273   */\n      add\n        /* \"#utility.yul\":254:279   */\n      gt\n        /* \"#utility.yul\":251:363   */\n      iszero\n      tag_65\n      jumpi\n        /* \"#utility.yul\":282:361   */\n      tag_66\n      tag_67\n      jump\t// in\n    tag_66:\n        /* \"#utility.yul\":251:363   */\n    tag_65:\n        /* \"#utility.yul\":372:413   */\n      tag_68\n        /* \"#utility.yul\":406:412   */\n      dup5\n        /* \"#utility.yul\":401:404   */\n      dup3\n        /* \"#utility.yul\":396:399   */\n      dup6\n        /* \"#utility.yul\":372:413   */\n      tag_69\n      jump\t// in\n    tag_68:\n        /* \"#utility.yul\":91:419   */\n      pop\n        /* \"#utility.yul\":7:419   */\n      swap4\n      swap3\n      pop\n      pop\n      pop\n      jump\t// out\n        /* \"#utility.yul\":439:779   */\n    tag_70:\n        /* \"#utility.yul\":495:500   */\n      0x00\n        /* \"#utility.yul\":544:547   */\n      dup3\n        /* \"#utility.yul\":537:541   */\n      0x1f\n        /* \"#utility.yul\":529:535   */\n      dup4\n        /* \"#utility.yul\":525:542   */\n      add\n        /* \"#utility.yul\":521:548   */\n      slt\n        /* \"#utility.yul\":511:633   */\n      tag_72\n      jumpi\n        /* \"#utility.yul\":552:631   */\n      tag_73\n      tag_74\n      jump\t// in\n    tag_73:\n        /* \"#utility.yul\":511:633   */\n    tag_72:\n        /* \"#utility.yul\":669:675   */\n      dup2\n        /* \"#utility.yul\":656:676   */\n      calldataload\n        /* \"#utility.yul\":694:773   */\n      tag_75\n        /* \"#utility.yul\":769:772   */\n      dup5\n        /* \"#utility.yul\":761:767   */\n      dup3\n        /* \"#utility.yul\":754:758   */\n      0x20\n        /* \"#utility.yul\":746:752   */\n      dup7\n        /* \"#utility.yul\":742:759   */\n      add\n        /* \"#utility.yul\":694:773   */\n      tag_59\n      jump\t// in\n    tag_75:\n        /* \"#utility.yul\":685:773   */\n      swap2\n      pop\n        /* \"#utility.yul\":501:779   */\n      pop\n        /* \"#utility.yul\":439:779   */\n      swap3\n      swap2\n      pop\n      pop\n      jump\t// out\n        /* \"#utility.yul\":785:1619   */\n    tag_10:\n        /* \"#utility.yul\":873:879   */\n      0x00\n        /* \"#utility.yul\":881:887   */\n      dup1\n        /* \"#utility.yul\":930:932   */\n      0x40\n        /* \"#utility.yul\":918:927   */\n      dup4\n        /* \"#utility.yul\":909:916   */\n      dup6\n        /* \"#utility.yul\":905:928   */\n      sub\n        /* \"#utility.yul\":901:933   */\n      slt\n        /* \"#utility.yul\":898:1017   */\n      iszero\n      tag_77\n      jumpi\n        /* \"#utility.yul\":936:1015   */\n      tag_78\n      tag_79\n      jump\t// in\n    tag_78:\n        /* \"#utility.yul\":898:1017   */\n    tag_77:\n        /* \"#utility.yul\":1084:1085   */\n      0x00\n        /* \"#utility.yul\":1073:1082   */\n      dup4\n        /* \"#utility.yul\":1069:1086   */\n      add\n        /* \"#utility.yul\":1056:1087   */\n      calldataload\n        /* \"#utility.yul\":1114:1132   */\n      0xffffffffffffffff\n        /* \"#utility.yul\":1106:1112   */\n      dup2\n        /* \"#utility.yul\":1103:1133   */\n      gt\n        /* \"#utility.yul\":1100:1217   */\n      iszero\n      tag_80\n      jumpi\n        /* \"#utility.yul\":1136:1215   */\n      tag_81\n      tag_82\n      jump\t// in\n    tag_81:\n        /* \"#utility.yul\":1100:1217   */\n    tag_80:\n        /* \"#utility.yul\":1241:1304   */\n      tag_83\n        /* \"#utility.yul\":1296:1303   */\n      dup6\n        /* \"#utility.yul\":1287:1293   */\n      dup3\n        /* \"#utility.yul\":1276:1285   */\n      dup7\n        /* \"#utility.yul\":1272:1294   */\n      add\n        /* \"#utility.yul\":1241:1304   */\n      tag_70\n      jump\t// in\n    tag_83:\n        /* \"#utility.yul\":1231:1304   */\n      swap3\n      pop\n        /* \"#utility.yul\":1027:1314   */\n      pop\n        /* \"#utility.yul\":1381:1383   */\n      0x20\n        /* \"#utility.yul\":1370:1379   */\n      dup4\n        /* \"#utility.yul\":1366:1384   */\n      add\n        /* \"#utility.yul\":1353:1385   */\n      calldataload\n        /* \"#utility.yul\":1412:1430   */\n      0xffffffffffffffff\n        /* \"#utility.yul\":1404:1410   */\n      dup2\n        /* \"#utility.yul\":1401:1431   */\n      gt\n        /* \"#utility.yul\":1398:1515   */\n      iszero\n      tag_84\n      jumpi\n        /* \"#utility.yul\":1434:1513   */\n      tag_85\n      tag_82\n      jump\t// in\n    tag_85:\n        /* \"#utility.yul\":1398:1515   */\n    tag_84:\n        /* \"#utility.yul\":1539:1602   */\n      tag_86\n        /* \"#utility.yul\":1594:1601   */\n      dup6\n        /* \"#utility.yul\":1585:1591   */\n      dup3\n        /* \"#utility.yul\":1574:1583   */\n      dup7\n        /* \"#utility.yul\":1570:1592   */\n      add\n        /* \"#utility.yul\":1539:1602   */\n      tag_70\n      jump\t// in\n    tag_86:\n        /* \"#utility.yul\":1529:1602   */\n      swap2\n      pop\n        /* \"#utility.yul\":1324:1612   */\n      pop\n        /* \"#utility.yul\":785:1619   */\n      swap3\n      pop\n      swap3\n      swap1\n      pop\n      jump\t// out\n        /* \"#utility.yul\":1625:1734   */\n    tag_87:\n        /* \"#utility.yul\":1706:1727   */\n      tag_89\n        /* \"#utility.yul\":1721:1726   */\n      dup2\n        /* \"#utility.yul\":1706:1727   */\n      tag_90\n      jump\t// in\n    tag_89:\n        /* \"#utility.yul\":1701:1704   */\n      dup3\n        /* \"#utility.yul\":1694:1728   */\n      mstore\n        /* \"#utility.yul\":1625:1734   */\n      pop\n      pop\n      jump\t// out\n        /* \"#utility.yul\":1740:2113   */\n    tag_91:\n        /* \"#utility.yul\":1844:1847   */\n      0x00\n        /* \"#utility.yul\":1872:1910   */\n      tag_93\n        /* \"#utility.yul\":1904:1909   */\n      dup3\n        /* \"#utility.yul\":1872:1910   */\n      tag_94\n      jump\t// in\n    tag_93:\n        /* \"#utility.yul\":1926:2014   */\n      tag_95\n        /* \"#utility.yul\":2007:2013   */\n      dup2\n        /* \"#utility.yul\":2002:2005   */\n      dup6\n        /* \"#utility.yul\":1926:2014   */\n      tag_96\n      jump\t// in\n    tag_95:\n        /* \"#utility.yul\":1919:2014   */\n      swap4\n      pop\n        /* \"#utility.yul\":2023:2075   */\n      tag_97\n        /* \"#utility.yul\":2068:2074   */\n      dup2\n        /* \"#utility.yul\":2063:2066   */\n      dup6\n        /* \"#utility.yul\":2056:2060   */\n      0x20\n        /* \"#utility.yul\":2049:2054   */\n      dup7\n        /* \"#utility.yul\":2045:2061   */\n      add\n        /* \"#utility.yul\":2023:2075   */\n      tag_98\n      jump\t// in\n    tag_97:\n        /* \"#utility.yul\":2100:2106   */\n      dup1\n        /* \"#utility.yul\":2095:2098   */\n      dup5\n        /* \"#utility.yul\":2091:2107   */\n      add\n        /* \"#utility.yul\":2084:2107   */\n      swap2\n      pop\n        /* \"#utility.yul\":1848:2113   */\n      pop\n        /* \"#utility.yul\":1740:2113   */\n      swap3\n      swap2\n      pop\n      pop\n      jump\t// out\n        /* \"#utility.yul\":2119:2483   */\n    tag_99:\n        /* \"#utility.yul\":2207:2210   */\n      0x00\n        /* \"#utility.yul\":2235:2274   */\n      tag_101\n        /* \"#utility.yul\":2268:2273   */\n      dup3\n        /* \"#utility.yul\":2235:2274   */\n      tag_102\n      jump\t// in\n    tag_101:\n        /* \"#utility.yul\":2290:2361   */\n      tag_103\n        /* \"#utility.yul\":2354:2360   */\n      dup2\n        /* \"#utility.yul\":2349:2352   */\n      dup6\n        /* \"#utility.yul\":2290:2361   */\n      tag_104\n      jump\t// in\n    tag_103:\n        /* \"#utility.yul\":2283:2361   */\n      swap4\n      pop\n        /* \"#utility.yul\":2370:2422   */\n      tag_105\n        /* \"#utility.yul\":2415:2421   */\n      dup2\n        /* \"#utility.yul\":2410:2413   */\n      dup6\n        /* \"#utility.yul\":2403:2407   */\n      0x20\n        /* \"#utility.yul\":2396:2401   */\n      dup7\n        /* \"#utility.yul\":2392:2408   */\n      add\n        /* \"#utility.yul\":2370:2422   */\n      tag_98\n      jump\t// in\n    tag_105:\n        /* \"#utility.yul\":2447:2476   */\n      tag_106\n        /* \"#utility.yul\":2469:2475   */\n      dup2\n        /* \"#utility.yul\":2447:2476   */\n      tag_107\n      jump\t// in\n    tag_106:\n        /* \"#utility.yul\":2442:2445   */\n      dup5\n        /* \"#utility.yul\":2438:2477   */\n      add\n        /* \"#utility.yul\":2431:2477   */\n      swap2\n      pop\n        /* \"#utility.yul\":2211:2483   */\n      pop\n        /* \"#utility.yul\":2119:2483   */\n      swap3\n      swap2\n      pop\n      pop\n      jump\t// out\n        /* \"#utility.yul\":2513:3358   */\n    tag_108:\n        /* \"#utility.yul\":2616:2619   */\n      0x00\n        /* \"#utility.yul\":2653:2658   */\n      dup2\n        /* \"#utility.yul\":2647:2659   */\n      sload\n        /* \"#utility.yul\":2682:2718   */\n      tag_110\n        /* \"#utility.yul\":2708:2717   */\n      dup2\n        /* \"#utility.yul\":2682:2718   */\n      tag_29\n      jump\t// in\n    tag_110:\n        /* \"#utility.yul\":2734:2823   */\n      tag_111\n        /* \"#utility.yul\":2816:2822   */\n      dup2\n        /* \"#utility.yul\":2811:2814   */\n      dup7\n        /* \"#utility.yul\":2734:2823   */\n      tag_112\n      jump\t// in\n    tag_111:\n        /* \"#utility.yul\":2727:2823   */\n      swap5\n      pop\n        /* \"#utility.yul\":2854:2855   */\n      0x01\n        /* \"#utility.yul\":2843:2852   */\n      dup3\n        /* \"#utility.yul\":2839:2856   */\n      and\n        /* \"#utility.yul\":2870:2871   */\n      0x00\n        /* \"#utility.yul\":2865:3002   */\n      dup2\n      eq\n      tag_114\n      jumpi\n        /* \"#utility.yul\":3016:3017   */\n      0x01\n        /* \"#utility.yul\":3011:3352   */\n      dup2\n      eq\n      tag_115\n      jumpi\n        /* \"#utility.yul\":2832:3352   */\n      jump(tag_113)\n        /* \"#utility.yul\":2865:3002   */\n    tag_114:\n        /* \"#utility.yul\":2949:2953   */\n      0xff\n        /* \"#utility.yul\":2945:2954   */\n      not\n        /* \"#utility.yul\":2934:2943   */\n      dup4\n        /* \"#utility.yul\":2930:2955   */\n      and\n        /* \"#utility.yul\":2925:2928   */\n      dup7\n        /* \"#utility.yul\":2918:2956   */\n      mstore\n        /* \"#utility.yul\":2985:2991   */\n      dup2\n        /* \"#utility.yul\":2980:2983   */\n      dup7\n        /* \"#utility.yul\":2976:2992   */\n      add\n        /* \"#utility.yul\":2969:2992   */\n      swap4\n      pop\n        /* \"#utility.yul\":2865:3002   */\n      jump(tag_113)\n        /* \"#utility.yul\":3011:3352   */\n    tag_115:\n        /* \"#utility.yul\":3078:3116   */\n      tag_116\n        /* \"#utility.yul\":3110:3115   */\n      dup6\n        /* \"#utility.yul\":3078:3116   */\n      tag_117\n      jump\t// in\n    tag_116:\n        /* \"#utility.yul\":3138:3139   */\n      0x00\n        /* \"#utility.yul\":3152:3306   */\n    tag_118:\n        /* \"#utility.yul\":3166:3172   */\n      dup4\n        /* \"#utility.yul\":3163:3164   */\n      dup2\n        /* \"#utility.yul\":3160:3173   */\n      lt\n        /* \"#utility.yul\":3152:3306   */\n      iszero\n      tag_120\n      jumpi\n        /* \"#utility.yul\":3240:3247   */\n      dup2\n        /* \"#utility.yul\":3234:3248   */\n      sload\n        /* \"#utility.yul\":3230:3231   */\n      dup2\n        /* \"#utility.yul\":3225:3228   */\n      dup10\n        /* \"#utility.yul\":3221:3232   */\n      add\n        /* \"#utility.yul\":3214:3249   */\n      mstore\n        /* \"#utility.yul\":3290:3291   */\n      0x01\n        /* \"#utility.yul\":3281:3288   */\n      dup3\n        /* \"#utility.yul\":3277:3292   */\n      add\n        /* \"#utility.yul\":3266:3292   */\n      swap2\n      pop\n        /* \"#utility.yul\":3188:3192   */\n      0x20\n        /* \"#utility.yul\":3185:3186   */\n      dup2\n        /* \"#utility.yul\":3181:3193   */\n      add\n        /* \"#utility.yul\":3176:3193   */\n      swap1\n      pop\n        /* \"#utility.yul\":3152:3306   */\n      jump(tag_118)\n    tag_120:\n        /* \"#utility.yul\":3335:3341   */\n      dup4\n        /* \"#utility.yul\":3330:3333   */\n      dup9\n        /* \"#utility.yul\":3326:3342   */\n      add\n        /* \"#utility.yul\":3319:3342   */\n      swap6\n      pop\n        /* \"#utility.yul\":3018:3352   */\n      pop\n      pop\n        /* \"#utility.yul\":2832:3352   */\n    tag_113:\n      pop\n        /* \"#utility.yul\":2620:3358   */\n      pop\n      pop\n        /* \"#utility.yul\":2513:3358   */\n      swap3\n      swap2\n      pop\n      pop\n      jump\t// out\n        /* \"#utility.yul\":3364:3791   */\n    tag_40:\n        /* \"#utility.yul\":3540:3543   */\n      0x00\n        /* \"#utility.yul\":3562:3655   */\n      tag_122\n        /* \"#utility.yul\":3651:3654   */\n      dup3\n        /* \"#utility.yul\":3642:3648   */\n      dup6\n        /* \"#utility.yul\":3562:3655   */\n      tag_91\n      jump\t// in\n    tag_122:\n        /* \"#utility.yul\":3555:3655   */\n      swap2\n      pop\n        /* \"#utility.yul\":3672:3765   */\n      tag_123\n        /* \"#utility.yul\":3761:3764   */\n      dup3\n        /* \"#utility.yul\":3752:3758   */\n      dup5\n        /* \"#utility.yul\":3672:3765   */\n      tag_91\n      jump\t// in\n    tag_123:\n        /* \"#utility.yul\":3665:3765   */\n      swap2\n      pop\n        /* \"#utility.yul\":3782:3785   */\n      dup2\n        /* \"#utility.yul\":3775:3785   */\n      swap1\n      pop\n        /* \"#utility.yul\":3364:3791   */\n      swap4\n      swap3\n      pop\n      pop\n      pop\n      jump\t// out\n        /* \"#utility.yul\":3797:4066   */\n    tag_51:\n        /* \"#utility.yul\":3926:3929   */\n      0x00\n        /* \"#utility.yul\":3948:4040   */\n      tag_125\n        /* \"#utility.yul\":4036:4039   */\n      dup3\n        /* \"#utility.yul\":4027:4033   */\n      dup5\n        /* \"#utility.yul\":3948:4040   */\n      tag_108\n      jump\t// in\n    tag_125:\n        /* \"#utility.yul\":3941:4040   */\n      swap2\n      pop\n        /* \"#utility.yul\":4057:4060   */\n      dup2\n        /* \"#utility.yul\":4050:4060   */\n      swap1\n      pop\n        /* \"#utility.yul\":3797:4066   */\n      swap3\n      swap2\n      pop\n      pop\n      jump\t// out\n        /* \"#utility.yul\":4072:4495   */\n    tag_48:\n        /* \"#utility.yul\":4246:4249   */\n      0x00\n        /* \"#utility.yul\":4268:4360   */\n      tag_127\n        /* \"#utility.yul\":4356:4359   */\n      dup3\n        /* \"#utility.yul\":4347:4353   */\n      dup6\n        /* \"#utility.yul\":4268:4360   */\n      tag_108\n      jump\t// in\n    tag_127:\n        /* \"#utility.yul\":4261:4360   */\n      swap2\n      pop\n        /* \"#utility.yul\":4377:4469   */\n      tag_128\n        /* \"#utility.yul\":4465:4468   */\n      dup3\n        /* \"#utility.yul\":4456:4462   */\n      dup5\n        /* \"#utility.yul\":4377:4469   */\n      tag_108\n      jump\t// in\n    tag_128:\n        /* \"#utility.yul\":4370:4469   */\n      swap2\n      pop\n        /* \"#utility.yul\":4486:4489   */\n      dup2\n        /* \"#utility.yul\":4479:4489   */\n      swap1\n      pop\n        /* \"#utility.yul\":4072:4495   */\n      swap4\n      swap3\n      pop\n      pop\n      pop\n      jump\t// out\n        /* \"#utility.yul\":4501:4711   */\n    tag_23:\n        /* \"#utility.yul\":4588:4592   */\n      0x00\n        /* \"#utility.yul\":4626:4628   */\n      0x20\n        /* \"#utility.yul\":4615:4624   */\n      dup3\n        /* \"#utility.yul\":4611:4629   */\n      add\n        /* \"#utility.yul\":4603:4629   */\n      swap1\n      pop\n        /* \"#utility.yul\":4639:4704   */\n      tag_130\n        /* \"#utility.yul\":4701:4702   */\n      0x00\n        /* \"#utility.yul\":4690:4699   */\n      dup4\n        /* \"#utility.yul\":4686:4703   */\n      add\n        /* \"#utility.yul\":4677:4683   */\n      dup5\n        /* \"#utility.yul\":4639:4704   */\n      tag_87\n      jump\t// in\n    tag_130:\n        /* \"#utility.yul\":4501:4711   */\n      swap3\n      swap2\n      pop\n      pop\n      jump\t// out\n        /* \"#utility.yul\":4717:5030   */\n    tag_13:\n        /* \"#utility.yul\":4830:4834   */\n      0x00\n        /* \"#utility.yul\":4868:4870   */\n      0x20\n        /* \"#utility.yul\":4857:4866   */\n      dup3\n        /* \"#utility.yul\":4853:4871   */\n      add\n        /* \"#utility.yul\":4845:4871   */\n      swap1\n      pop\n        /* \"#utility.yul\":4917:4926   */\n      dup2\n        /* \"#utility.yul\":4911:4915   */\n      dup2\n        /* \"#utility.yul\":4907:4927   */\n      sub\n        /* \"#utility.yul\":4903:4904   */\n      0x00\n        /* \"#utility.yul\":4892:4901   */\n      dup4\n        /* \"#utility.yul\":4888:4905   */\n      add\n        /* \"#utility.yul\":4881:4928   */\n      mstore\n        /* \"#utility.yul\":4945:5023   */\n      tag_132\n        /* \"#utility.yul\":5018:5022   */\n      dup2\n        /* \"#utility.yul\":5009:5015   */\n      dup5\n        /* \"#utility.yul\":4945:5023   */\n      tag_99\n      jump\t// in\n    tag_132:\n        /* \"#utility.yul\":4937:5023   */\n      swap1\n      pop\n        /* \"#utility.yul\":4717:5030   */\n      swap3\n      swap2\n      pop\n      pop\n      jump\t// out\n        /* \"#utility.yul\":5036:5165   */\n    tag_64:\n        /* \"#utility.yul\":5070:5076   */\n      0x00\n        /* \"#utility.yul\":5097:5117   */\n      tag_134\n      tag_135\n      jump\t// in\n    tag_134:\n        /* \"#utility.yul\":5087:5117   */\n      swap1\n      pop\n        /* \"#utility.yul\":5126:5159   */\n      tag_136\n        /* \"#utility.yul\":5154:5158   */\n      dup3\n        /* \"#utility.yul\":5146:5152   */\n      dup3\n        /* \"#utility.yul\":5126:5159   */\n      tag_137\n      jump\t// in\n    tag_136:\n        /* \"#utility.yul\":5036:5165   */\n      swap2\n      swap1\n      pop\n      jump\t// out\n        /* \"#utility.yul\":5171:5246   */\n    tag_135:\n        /* \"#utility.yul\":5204:5210   */\n      0x00\n        /* \"#utility.yul\":5237:5239   */\n      0x40\n        /* \"#utility.yul\":5231:5240   */\n      mload\n        /* \"#utility.yul\":5221:5240   */\n      swap1\n      pop\n        /* \"#utility.yul\":5171:5246   */\n      swap1\n      jump\t// out\n        /* \"#utility.yul\":5252:5560   */\n    tag_63:\n        /* \"#utility.yul\":5314:5318   */\n      0x00\n        /* \"#utility.yul\":5404:5422   */\n      0xffffffffffffffff\n        /* \"#utility.yul\":5396:5402   */\n      dup3\n        /* \"#utility.yul\":5393:5423   */\n      gt\n        /* \"#utility.yul\":5390:5446   */\n      iszero\n      tag_140\n      jumpi\n        /* \"#utility.yul\":5426:5444   */\n      tag_141\n      tag_142\n      jump\t// in\n    tag_141:\n        /* \"#utility.yul\":5390:5446   */\n    tag_140:\n        /* \"#utility.yul\":5464:5493   */\n      tag_143\n        /* \"#utility.yul\":5486:5492   */\n      dup3\n        /* \"#utility.yul\":5464:5493   */\n      tag_107\n      jump\t// in\n    tag_143:\n        /* \"#utility.yul\":5456:5493   */\n      swap1\n      pop\n        /* \"#utility.yul\":5548:5552   */\n      0x20\n        /* \"#utility.yul\":5542:5546   */\n      dup2\n        /* \"#utility.yul\":5538:5553   */\n      add\n        /* \"#utility.yul\":5530:5553   */\n      swap1\n      pop\n        /* \"#utility.yul\":5252:5560   */\n      swap2\n      swap1\n      pop\n      jump\t// out\n        /* \"#utility.yul\":5566:5707   */\n    tag_117:\n        /* \"#utility.yul\":5615:5619   */\n      0x00\n        /* \"#utility.yul\":5638:5641   */\n      dup2\n        /* \"#utility.yul\":5630:5641   */\n      swap1\n      pop\n        /* \"#utility.yul\":5661:5664   */\n      dup2\n        /* \"#utility.yul\":5658:5659   */\n      0x00\n        /* \"#utility.yul\":5651:5665   */\n      mstore\n        /* \"#utility.yul\":5695:5699   */\n      0x20\n        /* \"#utility.yul\":5692:5693   */\n      0x00\n        /* \"#utility.yul\":5682:5700   */\n      keccak256\n        /* \"#utility.yul\":5674:5700   */\n      swap1\n      pop\n        /* \"#utility.yul\":5566:5707   */\n      swap2\n      swap1\n      pop\n      jump\t// out\n        /* \"#utility.yul\":5713:5811   */\n    tag_94:\n        /* \"#utility.yul\":5764:5770   */\n      0x00\n        /* \"#utility.yul\":5798:5803   */\n      dup2\n        /* \"#utility.yul\":5792:5804   */\n      mload\n        /* \"#utility.yul\":5782:5804   */\n      swap1\n      pop\n        /* \"#utility.yul\":5713:5811   */\n      swap2\n      swap1\n      pop\n      jump\t// out\n        /* \"#utility.yul\":5817:5916   */\n    tag_102:\n        /* \"#utility.yul\":5869:5875   */\n      0x00\n        /* \"#utility.yul\":5903:5908   */\n      dup2\n        /* \"#utility.yul\":5897:5909   */\n      mload\n        /* \"#utility.yul\":5887:5909   */\n      swap1\n      pop\n        /* \"#utility.yul\":5817:5916   */\n      swap2\n      swap1\n      pop\n      jump\t// out\n        /* \"#utility.yul\":5922:6069   */\n    tag_96:\n        /* \"#utility.yul\":6023:6034   */\n      0x00\n        /* \"#utility.yul\":6060:6063   */\n      dup2\n        /* \"#utility.yul\":6045:6063   */\n      swap1\n      pop\n        /* \"#utility.yul\":5922:6069   */\n      swap3\n      swap2\n      pop\n      pop\n      jump\t// out\n        /* \"#utility.yul\":6075:6244   */\n    tag_104:\n        /* \"#utility.yul\":6159:6170   */\n      0x00\n        /* \"#utility.yul\":6193:6199   */\n      dup3\n        /* \"#utility.yul\":6188:6191   */\n      dup3\n        /* \"#utility.yul\":6181:6200   */\n      mstore\n        /* \"#utility.yul\":6233:6237   */\n      0x20\n        /* \"#utility.yul\":6228:6231   */\n      dup3\n        /* \"#utility.yul\":6224:6238   */\n      add\n        /* \"#utility.yul\":6209:6238   */\n      swap1\n      pop\n        /* \"#utility.yul\":6075:6244   */\n      swap3\n      swap2\n      pop\n      pop\n      jump\t// out\n        /* \"#utility.yul\":6250:6398   */\n    tag_112:\n        /* \"#utility.yul\":6352:6363   */\n      0x00\n        /* \"#utility.yul\":6389:6392   */\n      dup2\n        /* \"#utility.yul\":6374:6392   */\n      swap1\n      pop\n        /* \"#utility.yul\":6250:6398   */\n      swap3\n      swap2\n      pop\n      pop\n      jump\t// out\n        /* \"#utility.yul\":6404:6494   */\n    tag_90:\n        /* \"#utility.yul\":6438:6445   */\n      0x00\n        /* \"#utility.yul\":6481:6486   */\n      dup2\n        /* \"#utility.yul\":6474:6487   */\n      iszero\n        /* \"#utility.yul\":6467:6488   */\n      iszero\n        /* \"#utility.yul\":6456:6488   */\n      swap1\n      pop\n        /* \"#utility.yul\":6404:6494   */\n      swap2\n      swap1\n      pop\n      jump\t// out\n        /* \"#utility.yul\":6500:6654   */\n    tag_69:\n        /* \"#utility.yul\":6584:6590   */\n      dup3\n        /* \"#utility.yul\":6579:6582   */\n      dup2\n        /* \"#utility.yul\":6574:6577   */\n      dup4\n        /* \"#utility.yul\":6561:6591   */\n      calldatacopy\n        /* \"#utility.yul\":6646:6647   */\n      0x00\n        /* \"#utility.yul\":6637:6643   */\n      dup4\n        /* \"#utility.yul\":6632:6635   */\n      dup4\n        /* \"#utility.yul\":6628:6644   */\n      add\n        /* \"#utility.yul\":6621:6648   */\n      mstore\n        /* \"#utility.yul\":6500:6654   */\n      pop\n      pop\n      pop\n      jump\t// out\n        /* \"#utility.yul\":6660:6967   */\n    tag_98:\n        /* \"#utility.yul\":6728:6729   */\n      0x00\n        /* \"#utility.yul\":6738:6851   */\n    tag_153:\n        /* \"#utility.yul\":6752:6758   */\n      dup4\n        /* \"#utility.yul\":6749:6750   */\n      dup2\n        /* \"#utility.yul\":6746:6759   */\n      lt\n        /* \"#utility.yul\":6738:6851   */\n      iszero\n      tag_155\n      jumpi\n        /* \"#utility.yul\":6837:6838   */\n      dup1\n        /* \"#utility.yul\":6832:6835   */\n      dup3\n        /* \"#utility.yul\":6828:6839   */\n      add\n        /* \"#utility.yul\":6822:6840   */\n      mload\n        /* \"#utility.yul\":6818:6819   */\n      dup2\n        /* \"#utility.yul\":6813:6816   */\n      dup5\n        /* \"#utility.yul\":6809:6820   */\n      add\n        /* \"#utility.yul\":6802:6841   */\n      mstore\n        /* \"#utility.yul\":6774:6776   */\n      0x20\n        /* \"#utility.yul\":6771:6772   */\n      dup2\n        /* \"#utility.yul\":6767:6777   */\n      add\n        /* \"#utility.yul\":6762:6777   */\n      swap1\n      pop\n        /* \"#utility.yul\":6738:6851   */\n      jump(tag_153)\n    tag_155:\n        /* \"#utility.yul\":6869:6875   */\n      dup4\n        /* \"#utility.yul\":6866:6867   */\n      dup2\n        /* \"#utility.yul\":6863:6876   */\n      gt\n        /* \"#utility.yul\":6860:6961   */\n      iszero\n      tag_156\n      jumpi\n        /* \"#utility.yul\":6949:6950   */\n      0x00\n        /* \"#utility.yul\":6940:6946   */\n      dup5\n        /* \"#utility.yul\":6935:6938   */\n      dup5\n        /* \"#utility.yul\":6931:6947   */\n      add\n        /* \"#utility.yul\":6924:6951   */\n      mstore\n        /* \"#utility.yul\":6860:6961   */\n    tag_156:\n        /* \"#utility.yul\":6709:6967   */\n      pop\n        /* \"#utility.yul\":6660:6967   */\n      pop\n      pop\n      pop\n      jump\t// out\n        /* \"#utility.yul\":6973:7293   */\n    tag_29:\n        /* \"#utility.yul\":7017:7023   */\n      0x00\n        /* \"#utility.yul\":7054:7055   */\n      0x02\n        /* \"#utility.yul\":7048:7052   */\n      dup3\n        /* \"#utility.yul\":7044:7056   */\n      div\n        /* \"#utility.yul\":7034:7056   */\n      swap1\n      pop\n        /* \"#utility.yul\":7101:7102   */\n      0x01\n        /* \"#utility.yul\":7095:7099   */\n      dup3\n        /* \"#utility.yul\":7091:7103   */\n      and\n        /* \"#utility.yul\":7122:7140   */\n      dup1\n        /* \"#utility.yul\":7112:7193   */\n      tag_158\n      jumpi\n        /* \"#utility.yul\":7178:7182   */\n      0x7f\n        /* \"#utility.yul\":7170:7176   */\n      dup3\n        /* \"#utility.yul\":7166:7183   */\n      and\n        /* \"#utility.yul\":7156:7183   */\n      swap2\n      pop\n        /* \"#utility.yul\":7112:7193   */\n    tag_158:\n        /* \"#utility.yul\":7240:7242   */\n      0x20\n        /* \"#utility.yul\":7232:7238   */\n      dup3\n        /* \"#utility.yul\":7229:7243   */\n      lt\n        /* \"#utility.yul\":7209:7227   */\n      dup2\n        /* \"#utility.yul\":7206:7244   */\n      eq\n        /* \"#utility.yul\":7203:7287   */\n      iszero\n      tag_159\n      jumpi\n        /* \"#utility.yul\":7259:7277   */\n      tag_160\n      tag_161\n      jump\t// in\n    tag_160:\n        /* \"#utility.yul\":7203:7287   */\n    tag_159:\n        /* \"#utility.yul\":7024:7293   */\n      pop\n        /* \"#utility.yul\":6973:7293   */\n      swap2\n      swap1\n      pop\n      jump\t// out\n        /* \"#utility.yul\":7299:7580   */\n    tag_137:\n        /* \"#utility.yul\":7382:7409   */\n      tag_163\n        /* \"#utility.yul\":7404:7408   */\n      dup3\n        /* \"#utility.yul\":7382:7409   */\n      tag_107\n      jump\t// in\n    tag_163:\n        /* \"#utility.yul\":7374:7380   */\n      dup2\n        /* \"#utility.yul\":7370:7410   */\n      add\n        /* \"#utility.yul\":7512:7518   */\n      dup2\n        /* \"#utility.yul\":7500:7510   */\n      dup2\n        /* \"#utility.yul\":7497:7519   */\n      lt\n        /* \"#utility.yul\":7476:7494   */\n      0xffffffffffffffff\n        /* \"#utility.yul\":7464:7474   */\n      dup3\n        /* \"#utility.yul\":7461:7495   */\n      gt\n        /* \"#utility.yul\":7458:7520   */\n      or\n        /* \"#utility.yul\":7455:7543   */\n      iszero\n      tag_164\n      jumpi\n        /* \"#utility.yul\":7523:7541   */\n      tag_165\n      tag_142\n      jump\t// in\n    tag_165:\n        /* \"#utility.yul\":7455:7543   */\n    tag_164:\n        /* \"#utility.yul\":7563:7573   */\n      dup1\n        /* \"#utility.yul\":7559:7561   */\n      0x40\n        /* \"#utility.yul\":7552:7574   */\n      mstore\n        /* \"#utility.yul\":7342:7580   */\n      pop\n        /* \"#utility.yul\":7299:7580   */\n      pop\n      pop\n      jump\t// out\n        /* \"#utility.yul\":7586:7766   */\n    tag_161:\n        /* \"#utility.yul\":7634:7711   */\n      0x4e487b7100000000000000000000000000000000000000000000000000000000\n        /* \"#utility.yul\":7631:7632   */\n      0x00\n        /* \"#utility.yul\":7624:7712   */\n      mstore\n        /* \"#utility.yul\":7731:7735   */\n      0x22\n        /* \"#utility.yul\":7728:7729   */\n      0x04\n        /* \"#utility.yul\":7721:7736   */\n      mstore\n        /* \"#utility.yul\":7755:7759   */\n      0x24\n        /* \"#utility.yul\":7752:7753   */\n      0x00\n        /* \"#utility.yul\":7745:7760   */\n      revert\n        /* \"#utility.yul\":7772:7952   */\n    tag_142:\n        /* \"#utility.yul\":7820:7897   */\n      0x4e487b7100000000000000000000000000000000000000000000000000000000\n        /* \"#utility.yul\":7817:7818   */\n      0x00\n        /* \"#utility.yul\":7810:7898   */\n      mstore\n        /* \"#utility.yul\":7917:7921   */\n      0x41\n        /* \"#utility.yul\":7914:7915   */\n      0x04\n        /* \"#utility.yul\":7907:7922   */\n      mstore\n        /* \"#utility.yul\":7941:7945   */\n      0x24\n        /* \"#utility.yul\":7938:7939   */\n      0x00\n        /* \"#utility.yul\":7931:7946   */\n      revert\n        /* \"#utility.yul\":7958:8075   */\n    tag_74:\n        /* \"#utility.yul\":8067:8068   */\n      0x00\n        /* \"#utility.yul\":8064:8065   */\n      dup1\n        /* \"#utility.yul\":8057:8069   */\n      revert\n        /* \"#utility.yul\":8081:8198   */\n    tag_67:\n        /* \"#utility.yul\":8190:8191   */\n      0x00\n        /* \"#utility.yul\":8187:8188   */\n      dup1\n        /* \"#utility.yul\":8180:8192   */\n      revert\n        /* \"#utility.yul\":8204:8321   */\n    tag_82:\n        /* \"#utility.yul\":8313:8314   */\n      0x00\n        /* \"#utility.yul\":8310:8311   */\n      dup1\n        /* \"#utility.yul\":8303:8315   */\n      revert\n        /* \"#utility.yul\":8327:8444   */\n    tag_79:\n        /* \"#utility.yul\":8436:8437   */\n      0x00\n        /* \"#utility.yul\":8433:8434   */\n      dup1\n        /* \"#utility.yul\":8426:8438   */\n      revert\n        /* \"#utility.yul\":8450:8552   */\n    tag_107:\n        /* \"#utility.yul\":8491:8497   */\n      0x00\n        /* \"#utility.yul\":8542:8544   */\n      0x1f\n        /* \"#utility.yul\":8538:8545   */\n      not\n        /* \"#utility.yul\":8533:8535   */\n      0x1f\n        /* \"#utility.yul\":8526:8531   */\n      dup4\n        /* \"#utility.yul\":8522:8536   */\n      add\n        /* \"#utility.yul\":8518:8546   */\n      and\n        /* \"#utility.yul\":8508:8546   */\n      swap1\n      pop\n        /* \"#utility.yul\":8450:8552   */\n      swap2\n      swap1\n      pop\n      jump\t// out\n\n    auxdata: 0xa26469706673582212209055b95a299e4f1be2dffcc601a1610436d0d235a97d77780845e0cb6c0550ce64736f6c63430008070033\n}\n",
				"bytecode": {
					"linkReferences": {},
					"object": "60806040526040518060400160405280600381526020017f31323300000000000000000000000000000000000000000000000000000000008152506000908051906020019061004f9291906100ae565b506040518060400160405280600381526020017f31323300000000000000000000000000000000000000000000000000000000008152506001908051906020019061009b9291906100ae565b503480156100a857600080fd5b506101b2565b8280546100ba90610151565b90600052602060002090601f0160209004810192826100dc5760008555610123565b82601f106100f557805160ff1916838001178555610123565b82800160010185558215610123579182015b82811115610122578251825591602001919060010190610107565b5b5090506101309190610134565b5090565b5b8082111561014d576000816000905550600101610135565b5090565b6000600282049050600182168061016957607f821691505b6020821081141561017d5761017c610183565b5b50919050565b7f4e487b7100000000000000000000000000000000000000000000000000000000600052602260045260246000fd5b61087c806101c16000396000f3fe608060405234801561001057600080fd5b50600436106100575760003560e01c8063252a14371461005c578063d118d1871461008c578063f6084f07146100aa578063fb8f0f59146100c8578063fcdcfa50146100e6575b600080fd5b6100766004803603810190610071919061045e565b610104565b6040516100839190610648565b60405180910390f35b61009461024f565b6040516100a19190610648565b60405180910390f35b6100b26102dd565b6040516100bf9190610648565b60405180910390f35b6100d0610308565b6040516100dd919061062d565b60405180910390f35b6100ee610360565b6040516100fb9190610648565b60405180910390f35b6060600080805461011490610760565b80601f016020809104026020016040519081016040528092919081815260200182805461014090610760565b801561018d5780601f106101625761010080835404028352916020019161018d565b820191906000526020600020905b81548152906001019060200180831161017057829003601f168201915b505050505090506000600180546101a390610760565b80601f01602080910402602001604051908101604052809291908181526020018280546101cf90610760565b801561021c5780601f106101f15761010080835404028352916020019161021c565b820191906000526020600020905b8154815290600101906020018083116101ff57829003601f168201915b5050505050905081816040516020016102369291906105ce565b6040516020818303038152906040529250505092915050565b6000805461025c90610760565b80601f016020809104026020016040519081016040528092919081815260200182805461028890610760565b80156102d55780601f106102aa576101008083540402835291602001916102d5565b820191906000526020600020905b8154815290600101906020018083116102b857829003601f168201915b505050505081565b6060600060016040516020016102f4929190610609565b604051602081830303815290604052905090565b6000600160405160200161031c91906105f2565b60405160208183030381529060405280519060200120600060405160200161034491906105f2565b6040516020818303038152906040528051906020012014905090565b6001805461036d90610760565b80601f016020809104026020016040519081016040528092919081815260200182805461039990610760565b80156103e65780601f106103bb576101008083540402835291602001916103e6565b820191906000526020600020905b8154815290600101906020018083116103c957829003601f168201915b505050505081565b60006104016103fc8461068f565b61066a565b90508281526020810184848401111561041d5761041c610826565b5b61042884828561071e565b509392505050565b600082601f83011261044557610444610821565b5b81356104558482602086016103ee565b91505092915050565b6000806040838503121561047557610474610830565b5b600083013567ffffffffffffffff8111156104935761049261082b565b5b61049f85828601610430565b925050602083013567ffffffffffffffff8111156104c0576104bf61082b565b5b6104cc85828601610430565b9150509250929050565b6104df81610712565b82525050565b60006104f0826106d5565b6104fa81856106eb565b935061050a81856020860161072d565b80840191505092915050565b6000610521826106e0565b61052b81856106f6565b935061053b81856020860161072d565b61054481610835565b840191505092915050565b6000815461055c81610760565b6105668186610707565b945060018216600081146105815760018114610592576105c5565b60ff198316865281860193506105c5565b61059b856106c0565b60005b838110156105bd5781548189015260018201915060208101905061059e565b838801955050505b50505092915050565b60006105da82856104e5565b91506105e682846104e5565b91508190509392505050565b60006105fe828461054f565b915081905092915050565b6000610615828561054f565b9150610621828461054f565b91508190509392505050565b600060208201905061064260008301846104d6565b92915050565b600060208201905081810360008301526106628184610516565b905092915050565b6000610674610685565b90506106808282610792565b919050565b6000604051905090565b600067ffffffffffffffff8211156106aa576106a96107f2565b5b6106b382610835565b9050602081019050919050565b60008190508160005260206000209050919050565b600081519050919050565b600081519050919050565b600081905092915050565b600082825260208201905092915050565b600081905092915050565b60008115159050919050565b82818337600083830152505050565b60005b8381101561074b578082015181840152602081019050610730565b8381111561075a576000848401525b50505050565b6000600282049050600182168061077857607f821691505b6020821081141561078c5761078b6107c3565b5b50919050565b61079b82610835565b810181811067ffffffffffffffff821117156107ba576107b96107f2565b5b80604052505050565b7f4e487b7100000000000000000000000000000000000000000000000000000000600052602260045260246000fd5b7f4e487b7100000000000000000000000000000000000000000000000000000000600052604160045260246000fd5b600080fd5b600080fd5b600080fd5b600080fd5b6000601f19601f830116905091905056fea26469706673582212209055b95a299e4f1be2dffcc601a1610436d0d235a97d77780845e0cb6c0550ce64736f6c63430008070033",
					"opcodes": "PUSH1 0x80 PUSH1 0x40 MSTORE PUSH1 0x40 MLOAD DUP1 PUSH1 0x40 ADD PUSH1 0x40 MSTORE DUP1 PUSH1 0x3 DUP2 MSTORE PUSH1 0x20 ADD PUSH32 0x3132330000000000000000000000000000000000000000000000000000000000 DUP2 MSTORE POP PUSH1 0x0 SWAP1 DUP1 MLOAD SWAP1 PUSH1 0x20 ADD SWAP1 PUSH2 0x4F SWAP3 SWAP2 SWAP1 PUSH2 0xAE JUMP JUMPDEST POP PUSH1 0x40 MLOAD DUP1 PUSH1 0x40 ADD PUSH1 0x40 MSTORE DUP1 PUSH1 0x3 DUP2 MSTORE PUSH1 0x20 ADD PUSH32 0x3132330000000000000000000000000000000000000000000000000000000000 DUP2 MSTORE POP PUSH1 0x1 SWAP1 DUP1 MLOAD SWAP1 PUSH1 0x20 ADD SWAP1 PUSH2 0x9B SWAP3 SWAP2 SWAP1 PUSH2 0xAE JUMP JUMPDEST POP CALLVALUE DUP1 ISZERO PUSH2 0xA8 JUMPI PUSH1 0x0 DUP1 REVERT JUMPDEST POP PUSH2 0x1B2 JUMP JUMPDEST DUP3 DUP1 SLOAD PUSH2 0xBA SWAP1 PUSH2 0x151 JUMP JUMPDEST SWAP1 PUSH1 0x0 MSTORE PUSH1 0x20 PUSH1 0x0 KECCAK256 SWAP1 PUSH1 0x1F ADD PUSH1 0x20 SWAP1 DIV DUP2 ADD SWAP3 DUP3 PUSH2 0xDC JUMPI PUSH1 0x0 DUP6 SSTORE PUSH2 0x123 JUMP JUMPDEST DUP3 PUSH1 0x1F LT PUSH2 0xF5 JUMPI DUP1 MLOAD PUSH1 0xFF NOT AND DUP4 DUP1 ADD OR DUP6 SSTORE PUSH2 0x123 JUMP JUMPDEST DUP3 DUP1 ADD PUSH1 0x1 ADD DUP6 SSTORE DUP3 ISZERO PUSH2 0x123 JUMPI SWAP2 DUP3 ADD JUMPDEST DUP3 DUP2 GT ISZERO PUSH2 0x122 JUMPI DUP3 MLOAD DUP3 SSTORE SWAP2 PUSH1 0x20 ADD SWAP2 SWAP1 PUSH1 0x1 ADD SWAP1 PUSH2 0x107 JUMP JUMPDEST JUMPDEST POP SWAP1 POP PUSH2 0x130 SWAP2 SWAP1 PUSH2 0x134 JUMP JUMPDEST POP SWAP1 JUMP JUMPDEST JUMPDEST DUP1 DUP3 GT ISZERO PUSH2 0x14D JUMPI PUSH1 0x0 DUP2 PUSH1 0x0 SWAP1 SSTORE POP PUSH1 0x1 ADD PUSH2 0x135 JUMP JUMPDEST POP SWAP1 JUMP JUMPDEST PUSH1 0x0 PUSH1 0x2 DUP3 DIV SWAP1 POP PUSH1 0x1 DUP3 AND DUP1 PUSH2 0x169 JUMPI PUSH1 0x7F DUP3 AND SWAP2 POP JUMPDEST PUSH1 0x20 DUP3 LT DUP2 EQ ISZERO PUSH2 0x17D JUMPI PUSH2 0x17C PUSH2 0x183 JUMP JUMPDEST JUMPDEST POP SWAP2 SWAP1 POP JUMP JUMPDEST PUSH32 0x4E487B7100000000000000000000000000000000000000000000000000000000 PUSH1 0x0 MSTORE PUSH1 0x22 PUSH1 0x4 MSTORE PUSH1 0x24 PUSH1 0x0 REVERT JUMPDEST PUSH2 0x87C DUP1 PUSH2 0x1C1 PUSH1 0x0 CODECOPY PUSH1 0x0 RETURN INVALID PUSH1 0x80 PUSH1 0x40 MSTORE CALLVALUE DUP1 ISZERO PUSH2 0x10 JUMPI PUSH1 0x0 DUP1 REVERT JUMPDEST POP PUSH1 0x4 CALLDATASIZE LT PUSH2 0x57 JUMPI PUSH1 0x0 CALLDATALOAD PUSH1 0xE0 SHR DUP1 PUSH4 0x252A1437 EQ PUSH2 0x5C JUMPI DUP1 PUSH4 0xD118D187 EQ PUSH2 0x8C JUMPI DUP1 PUSH4 0xF6084F07 EQ PUSH2 0xAA JUMPI DUP1 PUSH4 0xFB8F0F59 EQ PUSH2 0xC8 JUMPI DUP1 PUSH4 0xFCDCFA50 EQ PUSH2 0xE6 JUMPI JUMPDEST PUSH1 0x0 DUP1 REVERT JUMPDEST PUSH2 0x76 PUSH1 0x4 DUP1 CALLDATASIZE SUB DUP2 ADD SWAP1 PUSH2 0x71 SWAP2 SWAP1 PUSH2 0x45E JUMP JUMPDEST PUSH2 0x104 JUMP JUMPDEST PUSH1 0x40 MLOAD PUSH2 0x83 SWAP2 SWAP1 PUSH2 0x648 JUMP JUMPDEST PUSH1 0x40 MLOAD DUP1 SWAP2 SUB SWAP1 RETURN JUMPDEST PUSH2 0x94 PUSH2 0x24F JUMP JUMPDEST PUSH1 0x40 MLOAD PUSH2 0xA1 SWAP2 SWAP1 PUSH2 0x648 JUMP JUMPDEST PUSH1 0x40 MLOAD DUP1 SWAP2 SUB SWAP1 RETURN JUMPDEST PUSH2 0xB2 PUSH2 0x2DD JUMP JUMPDEST PUSH1 0x40 MLOAD PUSH2 0xBF SWAP2 SWAP1 PUSH2 0x648 JUMP JUMPDEST PUSH1 0x40 MLOAD DUP1 SWAP2 SUB SWAP1 RETURN JUMPDEST PUSH2 0xD0 PUSH2 0x308 JUMP JUMPDEST PUSH1 0x40 MLOAD PUSH2 0xDD SWAP2 SWAP1 PUSH2 0x62D JUMP JUMPDEST PUSH1 0x40 MLOAD DUP1 SWAP2 SUB SWAP1 RETURN JUMPDEST PUSH2 0xEE PUSH2 0x360 JUMP JUMPDEST PUSH1 0x40 MLOAD PUSH2 0xFB SWAP2 SWAP1 PUSH2 0x648 JUMP JUMPDEST PUSH1 0x40 MLOAD DUP1 SWAP2 SUB SWAP1 RETURN JUMPDEST PUSH1 0x60 PUSH1 0x0 DUP1 DUP1 SLOAD PUSH2 0x114 SWAP1 PUSH2 0x760 JUMP JUMPDEST DUP1 PUSH1 0x1F ADD PUSH1 0x20 DUP1 SWAP2 DIV MUL PUSH1 0x20 ADD PUSH1 0x40 MLOAD SWAP1 DUP2 ADD PUSH1 0x40 MSTORE DUP1 SWAP3 SWAP2 SWAP1 DUP2 DUP2 MSTORE PUSH1 0x20 ADD DUP3 DUP1 SLOAD PUSH2 0x140 SWAP1 PUSH2 0x760 JUMP JUMPDEST DUP1 ISZERO PUSH2 0x18D JUMPI DUP1 PUSH1 0x1F LT PUSH2 0x162 JUMPI PUSH2 0x100 DUP1 DUP4 SLOAD DIV MUL DUP4 MSTORE SWAP2 PUSH1 0x20 ADD SWAP2 PUSH2 0x18D JUMP JUMPDEST DUP3 ADD SWAP2 SWAP1 PUSH1 0x0 MSTORE PUSH1 0x20 PUSH1 0x0 KECCAK256 SWAP1 JUMPDEST DUP2 SLOAD DUP2 MSTORE SWAP1 PUSH1 0x1 ADD SWAP1 PUSH1 0x20 ADD DUP1 DUP4 GT PUSH2 0x170 JUMPI DUP3 SWAP1 SUB PUSH1 0x1F AND DUP3 ADD SWAP2 JUMPDEST POP POP POP POP POP SWAP1 POP PUSH1 0x0 PUSH1 0x1 DUP1 SLOAD PUSH2 0x1A3 SWAP1 PUSH2 0x760 JUMP JUMPDEST DUP1 PUSH1 0x1F ADD PUSH1 0x20 DUP1 SWAP2 DIV MUL PUSH1 0x20 ADD PUSH1 0x40 MLOAD SWAP1 DUP2 ADD PUSH1 0x40 MSTORE DUP1 SWAP3 SWAP2 SWAP1 DUP2 DUP2 MSTORE PUSH1 0x20 ADD DUP3 DUP1 SLOAD PUSH2 0x1CF SWAP1 PUSH2 0x760 JUMP JUMPDEST DUP1 ISZERO PUSH2 0x21C JUMPI DUP1 PUSH1 0x1F LT PUSH2 0x1F1 JUMPI PUSH2 0x100 DUP1 DUP4 SLOAD DIV MUL DUP4 MSTORE SWAP2 PUSH1 0x20 ADD SWAP2 PUSH2 0x21C JUMP JUMPDEST DUP3 ADD SWAP2 SWAP1 PUSH1 0x0 MSTORE PUSH1 0x20 PUSH1 0x0 KECCAK256 SWAP1 JUMPDEST DUP2 SLOAD DUP2 MSTORE SWAP1 PUSH1 0x1 ADD SWAP1 PUSH1 0x20 ADD DUP1 DUP4 GT PUSH2 0x1FF JUMPI DUP3 SWAP1 SUB PUSH1 0x1F AND DUP3 ADD SWAP2 JUMPDEST POP POP POP POP POP SWAP1 POP DUP2 DUP2 PUSH1 0x40 MLOAD PUSH1 0x20 ADD PUSH2 0x236 SWAP3 SWAP2 SWAP1 PUSH2 0x5CE JUMP JUMPDEST PUSH1 0x40 MLOAD PUSH1 0x20 DUP2 DUP4 SUB SUB DUP2 MSTORE SWAP1 PUSH1 0x40 MSTORE SWAP3 POP POP POP SWAP3 SWAP2 POP POP JUMP JUMPDEST PUSH1 0x0 DUP1 SLOAD PUSH2 0x25C SWAP1 PUSH2 0x760 JUMP JUMPDEST DUP1 PUSH1 0x1F ADD PUSH1 0x20 DUP1 SWAP2 DIV MUL PUSH1 0x20 ADD PUSH1 0x40 MLOAD SWAP1 DUP2 ADD PUSH1 0x40 MSTORE DUP1 SWAP3 SWAP2 SWAP1 DUP2 DUP2 MSTORE PUSH1 0x20 ADD DUP3 DUP1 SLOAD PUSH2 0x288 SWAP1 PUSH2 0x760 JUMP JUMPDEST DUP1 ISZERO PUSH2 0x2D5 JUMPI DUP1 PUSH1 0x1F LT PUSH2 0x2AA JUMPI PUSH2 0x100 DUP1 DUP4 SLOAD DIV MUL DUP4 MSTORE SWAP2 PUSH1 0x20 ADD SWAP2 PUSH2 0x2D5 JUMP JUMPDEST DUP3 ADD SWAP2 SWAP1 PUSH1 0x0 MSTORE PUSH1 0x20 PUSH1 0x0 KECCAK256 SWAP1 JUMPDEST DUP2 SLOAD DUP2 MSTORE SWAP1 PUSH1 0x1 ADD SWAP1 PUSH1 0x20 ADD DUP1 DUP4 GT PUSH2 0x2B8 JUMPI DUP3 SWAP1 SUB PUSH1 0x1F AND DUP3 ADD SWAP2 JUMPDEST POP POP POP POP POP DUP2 JUMP JUMPDEST PUSH1 0x60 PUSH1 0x0 PUSH1 0x1 PUSH1 0x40 MLOAD PUSH1 0x20 ADD PUSH2 0x2F4 SWAP3 SWAP2 SWAP1 PUSH2 0x609 JUMP JUMPDEST PUSH1 0x40 MLOAD PUSH1 0x20 DUP2 DUP4 SUB SUB DUP2 MSTORE SWAP1 PUSH1 0x40 MSTORE SWAP1 POP SWAP1 JUMP JUMPDEST PUSH1 0x0 PUSH1 0x1 PUSH1 0x40 MLOAD PUSH1 0x20 ADD PUSH2 0x31C SWAP2 SWAP1 PUSH2 0x5F2 JUMP JUMPDEST PUSH1 0x40 MLOAD PUSH1 0x20 DUP2 DUP4 SUB SUB DUP2 MSTORE SWAP1 PUSH1 0x40 MSTORE DUP1 MLOAD SWAP1 PUSH1 0x20 ADD KECCAK256 PUSH1 0x0 PUSH1 0x40 MLOAD PUSH1 0x20 ADD PUSH2 0x344 SWAP2 SWAP1 PUSH2 0x5F2 JUMP JUMPDEST PUSH1 0x40 MLOAD PUSH1 0x20 DUP2 DUP4 SUB SUB DUP2 MSTORE SWAP1 PUSH1 0x40 MSTORE DUP1 MLOAD SWAP1 PUSH1 0x20 ADD KECCAK256 EQ SWAP1 POP SWAP1 JUMP JUMPDEST PUSH1 0x1 DUP1 SLOAD PUSH2 0x36D SWAP1 PUSH2 0x760 JUMP JUMPDEST DUP1 PUSH1 0x1F ADD PUSH1 0x20 DUP1 SWAP2 DIV MUL PUSH1 0x20 ADD PUSH1 0x40 MLOAD SWAP1 DUP2 ADD PUSH1 0x40 MSTORE DUP1 SWAP3 SWAP2 SWAP1 DUP2 DUP2 MSTORE PUSH1 0x20 ADD DUP3 DUP1 SLOAD PUSH2 0x399 SWAP1 PUSH2 0x760 JUMP JUMPDEST DUP1 ISZERO PUSH2 0x3E6 JUMPI DUP1 PUSH1 0x1F LT PUSH2 0x3BB JUMPI PUSH2 0x100 DUP1 DUP4 SLOAD DIV MUL DUP4 MSTORE SWAP2 PUSH1 0x20 ADD SWAP2 PUSH2 0x3E6 JUMP JUMPDEST DUP3 ADD SWAP2 SWAP1 PUSH1 0x0 MSTORE PUSH1 0x20 PUSH1 0x0 KECCAK256 SWAP1 JUMPDEST DUP2 SLOAD DUP2 MSTORE SWAP1 PUSH1 0x1 ADD SWAP1 PUSH1 0x20 ADD DUP1 DUP4 GT PUSH2 0x3C9 JUMPI DUP3 SWAP1 SUB PUSH1 0x1F AND DUP3 ADD SWAP2 JUMPDEST POP POP POP POP POP DUP2 JUMP JUMPDEST PUSH1 0x0 PUSH2 0x401 PUSH2 0x3FC DUP5 PUSH2 0x68F JUMP JUMPDEST PUSH2 0x66A JUMP JUMPDEST SWAP1 POP DUP3 DUP2 MSTORE PUSH1 0x20 DUP2 ADD DUP5 DUP5 DUP5 ADD GT ISZERO PUSH2 0x41D JUMPI PUSH2 0x41C PUSH2 0x826 JUMP JUMPDEST JUMPDEST PUSH2 0x428 DUP5 DUP3 DUP6 PUSH2 0x71E JUMP JUMPDEST POP SWAP4 SWAP3 POP POP POP JUMP JUMPDEST PUSH1 0x0 DUP3 PUSH1 0x1F DUP4 ADD SLT PUSH2 0x445 JUMPI PUSH2 0x444 PUSH2 0x821 JUMP JUMPDEST JUMPDEST DUP2 CALLDATALOAD PUSH2 0x455 DUP5 DUP3 PUSH1 0x20 DUP7 ADD PUSH2 0x3EE JUMP JUMPDEST SWAP2 POP POP SWAP3 SWAP2 POP POP JUMP JUMPDEST PUSH1 0x0 DUP1 PUSH1 0x40 DUP4 DUP6 SUB SLT ISZERO PUSH2 0x475 JUMPI PUSH2 0x474 PUSH2 0x830 JUMP JUMPDEST JUMPDEST PUSH1 0x0 DUP4 ADD CALLDATALOAD PUSH8 0xFFFFFFFFFFFFFFFF DUP2 GT ISZERO PUSH2 0x493 JUMPI PUSH2 0x492 PUSH2 0x82B JUMP JUMPDEST JUMPDEST PUSH2 0x49F DUP6 DUP3 DUP7 ADD PUSH2 0x430 JUMP JUMPDEST SWAP3 POP POP PUSH1 0x20 DUP4 ADD CALLDATALOAD PUSH8 0xFFFFFFFFFFFFFFFF DUP2 GT ISZERO PUSH2 0x4C0 JUMPI PUSH2 0x4BF PUSH2 0x82B JUMP JUMPDEST JUMPDEST PUSH2 0x4CC DUP6 DUP3 DUP7 ADD PUSH2 0x430 JUMP JUMPDEST SWAP2 POP POP SWAP3 POP SWAP3 SWAP1 POP JUMP JUMPDEST PUSH2 0x4DF DUP2 PUSH2 0x712 JUMP JUMPDEST DUP3 MSTORE POP POP JUMP JUMPDEST PUSH1 0x0 PUSH2 0x4F0 DUP3 PUSH2 0x6D5 JUMP JUMPDEST PUSH2 0x4FA DUP2 DUP6 PUSH2 0x6EB JUMP JUMPDEST SWAP4 POP PUSH2 0x50A DUP2 DUP6 PUSH1 0x20 DUP7 ADD PUSH2 0x72D JUMP JUMPDEST DUP1 DUP5 ADD SWAP2 POP POP SWAP3 SWAP2 POP POP JUMP JUMPDEST PUSH1 0x0 PUSH2 0x521 DUP3 PUSH2 0x6E0 JUMP JUMPDEST PUSH2 0x52B DUP2 DUP6 PUSH2 0x6F6 JUMP JUMPDEST SWAP4 POP PUSH2 0x53B DUP2 DUP6 PUSH1 0x20 DUP7 ADD PUSH2 0x72D JUMP JUMPDEST PUSH2 0x544 DUP2 PUSH2 0x835 JUMP JUMPDEST DUP5 ADD SWAP2 POP POP SWAP3 SWAP2 POP POP JUMP JUMPDEST PUSH1 0x0 DUP2 SLOAD PUSH2 0x55C DUP2 PUSH2 0x760 JUMP JUMPDEST PUSH2 0x566 DUP2 DUP7 PUSH2 0x707 JUMP JUMPDEST SWAP5 POP PUSH1 0x1 DUP3 AND PUSH1 0x0 DUP2 EQ PUSH2 0x581 JUMPI PUSH1 0x1 DUP2 EQ PUSH2 0x592 JUMPI PUSH2 0x5C5 JUMP JUMPDEST PUSH1 0xFF NOT DUP4 AND DUP7 MSTORE DUP2 DUP7 ADD SWAP4 POP PUSH2 0x5C5 JUMP JUMPDEST PUSH2 0x59B DUP6 PUSH2 0x6C0 JUMP JUMPDEST PUSH1 0x0 JUMPDEST DUP4 DUP2 LT ISZERO PUSH2 0x5BD JUMPI DUP2 SLOAD DUP2 DUP10 ADD MSTORE PUSH1 0x1 DUP3 ADD SWAP2 POP PUSH1 0x20 DUP2 ADD SWAP1 POP PUSH2 0x59E JUMP JUMPDEST DUP4 DUP9 ADD SWAP6 POP POP POP JUMPDEST POP POP POP SWAP3 SWAP2 POP POP JUMP JUMPDEST PUSH1 0x0 PUSH2 0x5DA DUP3 DUP6 PUSH2 0x4E5 JUMP JUMPDEST SWAP2 POP PUSH2 0x5E6 DUP3 DUP5 PUSH2 0x4E5 JUMP JUMPDEST SWAP2 POP DUP2 SWAP1 POP SWAP4 SWAP3 POP POP POP JUMP JUMPDEST PUSH1 0x0 PUSH2 0x5FE DUP3 DUP5 PUSH2 0x54F JUMP JUMPDEST SWAP2 POP DUP2 SWAP1 POP SWAP3 SWAP2 POP POP JUMP JUMPDEST PUSH1 0x0 PUSH2 0x615 DUP3 DUP6 PUSH2 0x54F JUMP JUMPDEST SWAP2 POP PUSH2 0x621 DUP3 DUP5 PUSH2 0x54F JUMP JUMPDEST SWAP2 POP DUP2 SWAP1 POP SWAP4 SWAP3 POP POP POP JUMP JUMPDEST PUSH1 0x0 PUSH1 0x20 DUP3 ADD SWAP1 POP PUSH2 0x642 PUSH1 0x0 DUP4 ADD DUP5 PUSH2 0x4D6 JUMP JUMPDEST SWAP3 SWAP2 POP POP JUMP JUMPDEST PUSH1 0x0 PUSH1 0x20 DUP3 ADD SWAP1 POP DUP2 DUP2 SUB PUSH1 0x0 DUP4 ADD MSTORE PUSH2 0x662 DUP2 DUP5 PUSH2 0x516 JUMP JUMPDEST SWAP1 POP SWAP3 SWAP2 POP POP JUMP JUMPDEST PUSH1 0x0 PUSH2 0x674 PUSH2 0x685 JUMP JUMPDEST SWAP1 POP PUSH2 0x680 DUP3 DUP3 PUSH2 0x792 JUMP JUMPDEST SWAP2 SWAP1 POP JUMP JUMPDEST PUSH1 0x0 PUSH1 0x40 MLOAD SWAP1 POP SWAP1 JUMP JUMPDEST PUSH1 0x0 PUSH8 0xFFFFFFFFFFFFFFFF DUP3 GT ISZERO PUSH2 0x6AA JUMPI PUSH2 0x6A9 PUSH2 0x7F2 JUMP JUMPDEST JUMPDEST PUSH2 0x6B3 DUP3 PUSH2 0x835 JUMP JUMPDEST SWAP1 POP PUSH1 0x20 DUP2 ADD SWAP1 POP SWAP2 SWAP1 POP JUMP JUMPDEST PUSH1 0x0 DUP2 SWAP1 POP DUP2 PUSH1 0x0 MSTORE PUSH1 0x20 PUSH1 0x0 KECCAK256 SWAP1 POP SWAP2 SWAP1 POP JUMP JUMPDEST PUSH1 0x0 DUP2 MLOAD SWAP1 POP SWAP2 SWAP1 POP JUMP JUMPDEST PUSH1 0x0 DUP2 MLOAD SWAP1 POP SWAP2 SWAP1 POP JUMP JUMPDEST PUSH1 0x0 DUP2 SWAP1 POP SWAP3 SWAP2 POP POP JUMP JUMPDEST PUSH1 0x0 DUP3 DUP3 MSTORE PUSH1 0x20 DUP3 ADD SWAP1 POP SWAP3 SWAP2 POP POP JUMP JUMPDEST PUSH1 0x0 DUP2 SWAP1 POP SWAP3 SWAP2 POP POP JUMP JUMPDEST PUSH1 0x0 DUP2 ISZERO ISZERO SWAP1 POP SWAP2 SWAP1 POP JUMP JUMPDEST DUP3 DUP2 DUP4 CALLDATACOPY PUSH1 0x0 DUP4 DUP4 ADD MSTORE POP POP POP JUMP JUMPDEST PUSH1 0x0 JUMPDEST DUP4 DUP2 LT ISZERO PUSH2 0x74B JUMPI DUP1 DUP3 ADD MLOAD DUP2 DUP5 ADD MSTORE PUSH1 0x20 DUP2 ADD SWAP1 POP PUSH2 0x730 JUMP JUMPDEST DUP4 DUP2 GT ISZERO PUSH2 0x75A JUMPI PUSH1 0x0 DUP5 DUP5 ADD MSTORE JUMPDEST POP POP POP POP JUMP JUMPDEST PUSH1 0x0 PUSH1 0x2 DUP3 DIV SWAP1 POP PUSH1 0x1 DUP3 AND DUP1 PUSH2 0x778 JUMPI PUSH1 0x7F DUP3 AND SWAP2 POP JUMPDEST PUSH1 0x20 DUP3 LT DUP2 EQ ISZERO PUSH2 0x78C JUMPI PUSH2 0x78B PUSH2 0x7C3 JUMP JUMPDEST JUMPDEST POP SWAP2 SWAP1 POP JUMP JUMPDEST PUSH2 0x79B DUP3 PUSH2 0x835 JUMP JUMPDEST DUP2 ADD DUP2 DUP2 LT PUSH8 0xFFFFFFFFFFFFFFFF DUP3 GT OR ISZERO PUSH2 0x7BA JUMPI PUSH2 0x7B9 PUSH2 0x7F2 JUMP JUMPDEST JUMPDEST DUP1 PUSH1 0x40 MSTORE POP POP POP JUMP JUMPDEST PUSH32 0x4E487B7100000000000000000000000000000000000000000000000000000000 PUSH1 0x0 MSTORE PUSH1 0x22 PUSH1 0x4 MSTORE PUSH1 0x24 PUSH1 0x0 REVERT JUMPDEST PUSH32 0x4E487B7100000000000000000000000000000000000000000000000000000000 PUSH1 0x0 MSTORE PUSH1 0x41 PUSH1 0x4 MSTORE PUSH1 0x24 PUSH1 0x0 REVERT JUMPDEST PUSH1 0x0 DUP1 REVERT JUMPDEST PUSH1 0x0 DUP1 REVERT JUMPDEST PUSH1 0x0 DUP1 REVERT JUMPDEST PUSH1 0x0 DUP1 REVERT JUMPDEST PUSH1 0x0 PUSH1 0x1F NOT PUSH1 0x1F DUP4 ADD AND SWAP1 POP SWAP2 SWAP1 POP JUMP INVALID LOG2 PUSH5 0x6970667358 0x22 SLT KECCAK256 SWAP1 SSTORE 0xB9 GAS 0x29 SWAP15 0x4F SHL 0xE2 0xDF 0xFC 0xC6 ADD LOG1 PUSH2 0x436 0xD0 0xD2 CALLDATALOAD 0xA9 PUSH30 0x77780845E0CB6C0550CE64736F6C63430008070033000000000000000000 "
				},
				"gasEstimates": {
					"creation": {
						"codeDepositCost": "434400",
						"executionCost": "infinite",
						"totalCost": "infinite"
					},
					"external": {
						"concat2(string,string)": "infinite",
						"concat3()": "infinite",
						"str1()": "infinite",
						"str2()": "infinite",
						"testString()": "infinite"
					}
				},
				"methodIdentifiers": {
					"concat2(string,string)": "252a1437",
					"concat3()": "f6084f07",
					"str1()": "d118d187",
					"str2()": "fcdcfa50",
					"testString()": "fb8f0f59"
				}
			},
			"storageLayout": {
				"storage": [
					{
						"astId": 60,
						"contract": "DataType.sol:StringType",
						"label": "str1",
						"offset": 0,
						"slot": "0",
						"type": "t_string_storage"
					},
					{
						"astId": 63,
						"contract": "DataType.sol:StringType",
						"label": "str2",
						"offset": 0,
						"slot": "1",
						"type": "t_string_storage"
					}
				],
				"types": {
					"t_string_storage": {
						"encoding": "bytes",
						"label": "string",
						"numberOfBytes": "32"
					}
				}
			},
			"userdoc": {
				"kind": "user",
				"methods": {},
				"version": 1
			}
		}
	}
}