{
	"DataType.sol": {
		"DataType": {
			"abi": [
				{
					"inputs": [],
					"stateMutability": "payable",
					"type": "constructor"
				},
				{
					"inputs": [],
					"name": "a",
					"outputs": [
						{
							"internalType": "address",
							"name": "",
							"type": "address"
						}
					],
					"stateMutability": "view",
					"type": "function"
				},
				{
					"inputs": [],
					"name": "b",
					"outputs": [
						{
							"internalType": "address",
							"name": "",
							"type": "address"
						}
					],
					"stateMutability": "view",
					"type": "function"
				},
				{
					"inputs": [],
					"name": "c",
					"outputs": [
						{
							"internalType": "address",
							"name": "",
							"type": "address"
						}
					],
					"stateMutability": "view",
					"type": "function"
				},
				{
					"inputs": [],
					"name": "maxInt",
					"outputs": [
						{
							"internalType": "int256",
							"name": "",
							"type": "int256"
						}
					],
					"stateMutability": "view",
					"type": "function"
				},
				{
					"inputs": [],
					"name": "maxUInt",
					"outputs": [
						{
							"internalType": "uint256",
							"name": "",
							"type": "uint256"
						}
					],
					"stateMutability": "view",
					"type": "function"
				},
				{
					"inputs": [],
					"name": "minInt",
					"outputs": [
						{
							"internalType": "int256",
							"name": "",
							"type": "int256"
						}
					],
					"stateMutability": "view",
					"type": "function"
				},
				{
					"inputs": [],
					"name": "minUInt",
					"outputs": [
						{
							"internalType": "uint256",
							"name": "",
							"type": "uint256"
						}
					],
					"stateMutability": "view",
					"type": "function"
				}
			],
			"devdoc": {
				"kind": "dev",
				"methods": {},
				"version": 1
			},
			"evm": {
				"assembly": "    /* \"DataType.sol\":65:547  contract DataType {... */\n  mstore(0x40, 0x80)\n    /* \"DataType.sol\":97:101  -100 */\n  0xffffffffffffffffffffffffffffffffffffffffffffffffffffffffffffff9c\n    /* \"DataType.sol\":89:101  int x = -100 */\n  0x00\n  sstore\n    /* \"DataType.sol\":116:118  10 */\n  0x0a\n    /* \"DataType.sol\":107:118  uint y = 10 */\n  0x01\n  sstore\n    /* \"DataType.sol\":135:138  255 */\n  0xff\n    /* \"DataType.sol\":125:138  uint8 z = 255 */\n  0x02\n  exp(0x0100, 0x00)\n  dup2\n  sload\n  dup2\n  0xff\n  mul\n  not\n  and\n  swap1\n  dup4\n  0xff\n  and\n  mul\n  or\n  swap1\n  sstore\n  pop\n    /* \"DataType.sol\":195:209  type(int8).min */\n  0xffffffffffffffffffffffffffffffffffffffffffffffffffffffffffffff80\n    /* \"DataType.sol\":175:209  int public minInt = type(int8).min */\n  0x00\n  signextend\n  0x03\n  sstore\n    /* \"DataType.sol\":235:249  type(int8).max */\n  0x7f\n    /* \"DataType.sol\":215:249  int public maxInt = type(int8).max */\n  0x00\n  signextend\n  0x04\n  sstore\n    /* \"DataType.sol\":309:324  type(uint8).min */\n  0x00\n    /* \"DataType.sol\":287:324  uint public minUInt = type(uint8).min */\n  0xff\n  and\n  0x05\n  sstore\n    /* \"DataType.sol\":352:367  type(uint8).max */\n  0xff\n    /* \"DataType.sol\":330:367  uint public maxUInt = type(uint8).max */\n  dup1\n  and\n  0x06\n  sstore\n    /* \"DataType.sol\":429:439  msg.sender */\n  caller\n    /* \"DataType.sol\":410:439  address public a = msg.sender */\n  0x07\n  exp(0x0100, 0x00)\n  dup2\n  sload\n  dup2\n  0xffffffffffffffffffffffffffffffffffffffff\n  mul\n  not\n  and\n  swap1\n  dup4\n  0xffffffffffffffffffffffffffffffffffffffff\n  and\n  mul\n  or\n  swap1\n  sstore\n  pop\n    /* \"DataType.sol\":464:506  0x5B38Da6a701c568545dCfcB03FcB875f56beddC4 */\n  0x5b38da6a701c568545dcfcb03fcb875f56beddc4\n    /* \"DataType.sol\":445:506  address public b = 0x5B38Da6a701c568545dCfcB03FcB875f56beddC4 */\n  0x08\n  exp(0x0100, 0x00)\n  dup2\n  sload\n  dup2\n  0xffffffffffffffffffffffffffffffffffffffff\n  mul\n  not\n  and\n  swap1\n  dup4\n  0xffffffffffffffffffffffffffffffffffffffff\n  and\n  mul\n  or\n  swap1\n  sstore\n  pop\n    /* \"DataType.sol\":539:543  this */\n  address\n    /* \"DataType.sol\":512:544  address public c = address(this) */\n  0x09\n  exp(0x0100, 0x00)\n  dup2\n  sload\n  dup2\n  0xffffffffffffffffffffffffffffffffffffffff\n  mul\n  not\n  and\n  swap1\n  dup4\n  0xffffffffffffffffffffffffffffffffffffffff\n  and\n  mul\n  or\n  swap1\n  sstore\n  pop\n    /* \"DataType.sol\":65:547  contract DataType {... */\n  dataSize(sub_0)\n  dup1\n  dataOffset(sub_0)\n  0x00\n  codecopy\n  0x00\n  return\nstop\n\nsub_0: assembly {\n        /* \"DataType.sol\":65:547  contract DataType {... */\n      mstore(0x40, 0x80)\n      callvalue\n      dup1\n      iszero\n      tag_1\n      jumpi\n      0x00\n      dup1\n      revert\n    tag_1:\n      pop\n      jumpi(tag_2, lt(calldatasize, 0x04))\n      shr(0xe0, calldataload(0x00))\n      dup1\n      0x7e4e14cc\n      gt\n      tag_10\n      jumpi\n      dup1\n      0x7e4e14cc\n      eq\n      tag_6\n      jumpi\n      dup1\n      0x8e93b09e\n      eq\n      tag_7\n      jumpi\n      dup1\n      0xc3da42b8\n      eq\n      tag_8\n      jumpi\n      dup1\n      0xf8840d2d\n      eq\n      tag_9\n      jumpi\n      jump(tag_2)\n    tag_10:\n      dup1\n      0x0dbe671f\n      eq\n      tag_3\n      jumpi\n      dup1\n      0x4df7e3d0\n      eq\n      tag_4\n      jumpi\n      dup1\n      0x7a4c2571\n      eq\n      tag_5\n      jumpi\n    tag_2:\n      0x00\n      dup1\n      revert\n        /* \"DataType.sol\":410:439  address public a = msg.sender */\n    tag_3:\n      tag_11\n      tag_12\n      jump\t// in\n    tag_11:\n      mload(0x40)\n      tag_13\n      swap2\n      swap1\n      tag_14\n      jump\t// in\n    tag_13:\n      mload(0x40)\n      dup1\n      swap2\n      sub\n      swap1\n      return\n        /* \"DataType.sol\":445:506  address public b = 0x5B38Da6a701c568545dCfcB03FcB875f56beddC4 */\n    tag_4:\n      tag_15\n      tag_16\n      jump\t// in\n    tag_15:\n      mload(0x40)\n      tag_17\n      swap2\n      swap1\n      tag_14\n      jump\t// in\n    tag_17:\n      mload(0x40)\n      dup1\n      swap2\n      sub\n      swap1\n      return\n        /* \"DataType.sol\":215:249  int public maxInt = type(int8).max */\n    tag_5:\n      tag_18\n      tag_19\n      jump\t// in\n    tag_18:\n      mload(0x40)\n      tag_20\n      swap2\n      swap1\n      tag_21\n      jump\t// in\n    tag_20:\n      mload(0x40)\n      dup1\n      swap2\n      sub\n      swap1\n      return\n        /* \"DataType.sol\":175:209  int public minInt = type(int8).min */\n    tag_6:\n      tag_22\n      tag_23\n      jump\t// in\n    tag_22:\n      mload(0x40)\n      tag_24\n      swap2\n      swap1\n      tag_21\n      jump\t// in\n    tag_24:\n      mload(0x40)\n      dup1\n      swap2\n      sub\n      swap1\n      return\n        /* \"DataType.sol\":287:324  uint public minUInt = type(uint8).min */\n    tag_7:\n      tag_25\n      tag_26\n      jump\t// in\n    tag_25:\n      mload(0x40)\n      tag_27\n      swap2\n      swap1\n      tag_28\n      jump\t// in\n    tag_27:\n      mload(0x40)\n      dup1\n      swap2\n      sub\n      swap1\n      return\n        /* \"DataType.sol\":512:544  address public c = address(this) */\n    tag_8:\n      tag_29\n      tag_30\n      jump\t// in\n    tag_29:\n      mload(0x40)\n      tag_31\n      swap2\n      swap1\n      tag_14\n      jump\t// in\n    tag_31:\n      mload(0x40)\n      dup1\n      swap2\n      sub\n      swap1\n      return\n        /* \"DataType.sol\":330:367  uint public maxUInt = type(uint8).max */\n    tag_9:\n      tag_32\n      tag_33\n      jump\t// in\n    tag_32:\n      mload(0x40)\n      tag_34\n      swap2\n      swap1\n      tag_28\n      jump\t// in\n    tag_34:\n      mload(0x40)\n      dup1\n      swap2\n      sub\n      swap1\n      return\n        /* \"DataType.sol\":410:439  address public a = msg.sender */\n    tag_12:\n      0x07\n      0x00\n      swap1\n      sload\n      swap1\n      0x0100\n      exp\n      swap1\n      div\n      0xffffffffffffffffffffffffffffffffffffffff\n      and\n      dup2\n      jump\t// out\n        /* \"DataType.sol\":445:506  address public b = 0x5B38Da6a701c568545dCfcB03FcB875f56beddC4 */\n    tag_16:\n      0x08\n      0x00\n      swap1\n      sload\n      swap1\n      0x0100\n      exp\n      swap1\n      div\n      0xffffffffffffffffffffffffffffffffffffffff\n      and\n      dup2\n      jump\t// out\n        /* \"DataType.sol\":215:249  int public maxInt = type(int8).max */\n    tag_19:\n      sload(0x04)\n      dup2\n      jump\t// out\n        /* \"DataType.sol\":175:209  int public minInt = type(int8).min */\n    tag_23:\n      sload(0x03)\n      dup2\n      jump\t// out\n        /* \"DataType.sol\":287:324  uint public minUInt = type(uint8).min */\n    tag_26:\n      sload(0x05)\n      dup2\n      jump\t// out\n        /* \"DataType.sol\":512:544  address public c = address(this) */\n    tag_30:\n      0x09\n      0x00\n      swap1\n      sload\n      swap1\n      0x0100\n      exp\n      swap1\n      div\n      0xffffffffffffffffffffffffffffffffffffffff\n      and\n      dup2\n      jump\t// out\n        /* \"DataType.sol\":330:367  uint public maxUInt = type(uint8).max */\n    tag_33:\n      sload(0x06)\n      dup2\n      jump\t// out\n        /* \"#utility.yul\":7:125   */\n    tag_36:\n        /* \"#utility.yul\":94:118   */\n      tag_38\n        /* \"#utility.yul\":112:117   */\n      dup2\n        /* \"#utility.yul\":94:118   */\n      tag_39\n      jump\t// in\n    tag_38:\n        /* \"#utility.yul\":89:92   */\n      dup3\n        /* \"#utility.yul\":82:119   */\n      mstore\n        /* \"#utility.yul\":7:125   */\n      pop\n      pop\n      jump\t// out\n        /* \"#utility.yul\":131:246   */\n    tag_40:\n        /* \"#utility.yul\":216:239   */\n      tag_42\n        /* \"#utility.yul\":233:238   */\n      dup2\n        /* \"#utility.yul\":216:239   */\n      tag_43\n      jump\t// in\n    tag_42:\n        /* \"#utility.yul\":211:214   */\n      dup3\n        /* \"#utility.yul\":204:240   */\n      mstore\n        /* \"#utility.yul\":131:246   */\n      pop\n      pop\n      jump\t// out\n        /* \"#utility.yul\":252:370   */\n    tag_44:\n        /* \"#utility.yul\":339:363   */\n      tag_46\n        /* \"#utility.yul\":357:362   */\n      dup2\n        /* \"#utility.yul\":339:363   */\n      tag_47\n      jump\t// in\n    tag_46:\n        /* \"#utility.yul\":334:337   */\n      dup3\n        /* \"#utility.yul\":327:364   */\n      mstore\n        /* \"#utility.yul\":252:370   */\n      pop\n      pop\n      jump\t// out\n        /* \"#utility.yul\":376:598   */\n    tag_14:\n        /* \"#utility.yul\":469:473   */\n      0x00\n        /* \"#utility.yul\":507:509   */\n      0x20\n        /* \"#utility.yul\":496:505   */\n      dup3\n        /* \"#utility.yul\":492:510   */\n      add\n        /* \"#utility.yul\":484:510   */\n      swap1\n      pop\n        /* \"#utility.yul\":520:591   */\n      tag_49\n        /* \"#utility.yul\":588:589   */\n      0x00\n        /* \"#utility.yul\":577:586   */\n      dup4\n        /* \"#utility.yul\":573:590   */\n      add\n        /* \"#utility.yul\":564:570   */\n      dup5\n        /* \"#utility.yul\":520:591   */\n      tag_36\n      jump\t// in\n    tag_49:\n        /* \"#utility.yul\":376:598   */\n      swap3\n      swap2\n      pop\n      pop\n      jump\t// out\n        /* \"#utility.yul\":604:822   */\n    tag_21:\n        /* \"#utility.yul\":695:699   */\n      0x00\n        /* \"#utility.yul\":733:735   */\n      0x20\n        /* \"#utility.yul\":722:731   */\n      dup3\n        /* \"#utility.yul\":718:736   */\n      add\n        /* \"#utility.yul\":710:736   */\n      swap1\n      pop\n        /* \"#utility.yul\":746:815   */\n      tag_51\n        /* \"#utility.yul\":812:813   */\n      0x00\n        /* \"#utility.yul\":801:810   */\n      dup4\n        /* \"#utility.yul\":797:814   */\n      add\n        /* \"#utility.yul\":788:794   */\n      dup5\n        /* \"#utility.yul\":746:815   */\n      tag_40\n      jump\t// in\n    tag_51:\n        /* \"#utility.yul\":604:822   */\n      swap3\n      swap2\n      pop\n      pop\n      jump\t// out\n        /* \"#utility.yul\":828:1050   */\n    tag_28:\n        /* \"#utility.yul\":921:925   */\n      0x00\n        /* \"#utility.yul\":959:961   */\n      0x20\n        /* \"#utility.yul\":948:957   */\n      dup3\n        /* \"#utility.yul\":944:962   */\n      add\n        /* \"#utility.yul\":936:962   */\n      swap1\n      pop\n        /* \"#utility.yul\":972:1043   */\n      tag_53\n        /* \"#utility.yul\":1040:1041   */\n      0x00\n        /* \"#utility.yul\":1029:1038   */\n      dup4\n        /* \"#utility.yul\":1025:1042   */\n      add\n        /* \"#utility.yul\":1016:1022   */\n      dup5\n        /* \"#utility.yul\":972:1043   */\n      tag_44\n      jump\t// in\n    tag_53:\n        /* \"#utility.yul\":828:1050   */\n      swap3\n      swap2\n      pop\n      pop\n      jump\t// out\n        /* \"#utility.yul\":1056:1152   */\n    tag_39:\n        /* \"#utility.yul\":1093:1100   */\n      0x00\n        /* \"#utility.yul\":1122:1146   */\n      tag_55\n        /* \"#utility.yul\":1140:1145   */\n      dup3\n        /* \"#utility.yul\":1122:1146   */\n      tag_56\n      jump\t// in\n    tag_55:\n        /* \"#utility.yul\":1111:1146   */\n      swap1\n      pop\n        /* \"#utility.yul\":1056:1152   */\n      swap2\n      swap1\n      pop\n      jump\t// out\n        /* \"#utility.yul\":1158:1234   */\n    tag_43:\n        /* \"#utility.yul\":1194:1201   */\n      0x00\n        /* \"#utility.yul\":1223:1228   */\n      dup2\n        /* \"#utility.yul\":1212:1228   */\n      swap1\n      pop\n        /* \"#utility.yul\":1158:1234   */\n      swap2\n      swap1\n      pop\n      jump\t// out\n        /* \"#utility.yul\":1240:1366   */\n    tag_56:\n        /* \"#utility.yul\":1277:1284   */\n      0x00\n        /* \"#utility.yul\":1317:1359   */\n      0xffffffffffffffffffffffffffffffffffffffff\n        /* \"#utility.yul\":1310:1315   */\n      dup3\n        /* \"#utility.yul\":1306:1360   */\n      and\n        /* \"#utility.yul\":1295:1360   */\n      swap1\n      pop\n        /* \"#utility.yul\":1240:1366   */\n      swap2\n      swap1\n      pop\n      jump\t// out\n        /* \"#utility.yul\":1372:1449   */\n    tag_47:\n        /* \"#utility.yul\":1409:1416   */\n      0x00\n        /* \"#utility.yul\":1438:1443   */\n      dup2\n        /* \"#utility.yul\":1427:1443   */\n      swap1\n      pop\n        /* \"#utility.yul\":1372:1449   */\n      swap2\n      swap1\n      pop\n      jump\t// out\n\n    auxdata: 0xa2646970667358221220e77f677c84e68bbff6788058081e7a34ca1ef2c10b580276a4fa61774de1b87764736f6c63430008070033\n}\n",
				"bytecode": {
					"linkReferences": {},
					"object": "60806040527fffffffffffffffffffffffffffffffffffffffffffffffffffffffffffffff9c600055600a60015560ff600260006101000a81548160ff021916908360ff1602179055507fffffffffffffffffffffffffffffffffffffffffffffffffffffffffffffff8060000b600355607f60000b600455600060ff1660055560ff801660065533600760006101000a81548173ffffffffffffffffffffffffffffffffffffffff021916908373ffffffffffffffffffffffffffffffffffffffff160217905550735b38da6a701c568545dcfcb03fcb875f56beddc4600860006101000a81548173ffffffffffffffffffffffffffffffffffffffff021916908373ffffffffffffffffffffffffffffffffffffffff16021790555030600960006101000a81548173ffffffffffffffffffffffffffffffffffffffff021916908373ffffffffffffffffffffffffffffffffffffffff1602179055506102d88061016d6000396000f3fe608060405234801561001057600080fd5b506004361061007d5760003560e01c80637e4e14cc1161005b5780637e4e14cc146100dc5780638e93b09e146100fa578063c3da42b814610118578063f8840d2d146101365761007d565b80630dbe671f146100825780634df7e3d0146100a05780637a4c2571146100be575b600080fd5b61008a610154565b604051610097919061020b565b60405180910390f35b6100a861017a565b6040516100b5919061020b565b60405180910390f35b6100c66101a0565b6040516100d39190610226565b60405180910390f35b6100e46101a6565b6040516100f19190610226565b60405180910390f35b6101026101ac565b60405161010f9190610241565b60405180910390f35b6101206101b2565b60405161012d919061020b565b60405180910390f35b61013e6101d8565b60405161014b9190610241565b60405180910390f35b600760009054906101000a900473ffffffffffffffffffffffffffffffffffffffff1681565b600860009054906101000a900473ffffffffffffffffffffffffffffffffffffffff1681565b60045481565b60035481565b60055481565b600960009054906101000a900473ffffffffffffffffffffffffffffffffffffffff1681565b60065481565b6101e78161025c565b82525050565b6101f68161026e565b82525050565b61020581610298565b82525050565b600060208201905061022060008301846101de565b92915050565b600060208201905061023b60008301846101ed565b92915050565b600060208201905061025660008301846101fc565b92915050565b600061026782610278565b9050919050565b6000819050919050565b600073ffffffffffffffffffffffffffffffffffffffff82169050919050565b600081905091905056fea2646970667358221220e77f677c84e68bbff6788058081e7a34ca1ef2c10b580276a4fa61774de1b87764736f6c63430008070033",
					"opcodes": "PUSH1 0x80 PUSH1 0x40 MSTORE PUSH32 0xFFFFFFFFFFFFFFFFFFFFFFFFFFFFFFFFFFFFFFFFFFFFFFFFFFFFFFFFFFFFFF9C PUSH1 0x0 SSTORE PUSH1 0xA PUSH1 0x1 SSTORE PUSH1 0xFF PUSH1 0x2 PUSH1 0x0 PUSH2 0x100 EXP DUP2 SLOAD DUP2 PUSH1 0xFF MUL NOT AND SWAP1 DUP4 PUSH1 0xFF AND MUL OR SWAP1 SSTORE POP PUSH32 0xFFFFFFFFFFFFFFFFFFFFFFFFFFFFFFFFFFFFFFFFFFFFFFFFFFFFFFFFFFFFFF80 PUSH1 0x0 SIGNEXTEND PUSH1 0x3 SSTORE PUSH1 0x7F PUSH1 0x0 SIGNEXTEND PUSH1 0x4 SSTORE PUSH1 0x0 PUSH1 0xFF AND PUSH1 0x5 SSTORE PUSH1 0xFF DUP1 AND PUSH1 0x6 SSTORE CALLER PUSH1 0x7 PUSH1 0x0 PUSH2 0x100 EXP DUP2 SLOAD DUP2 PUSH20 0xFFFFFFFFFFFFFFFFFFFFFFFFFFFFFFFFFFFFFFFF MUL NOT AND SWAP1 DUP4 PUSH20 0xFFFFFFFFFFFFFFFFFFFFFFFFFFFFFFFFFFFFFFFF AND MUL OR SWAP1 SSTORE POP PUSH20 0x5B38DA6A701C568545DCFCB03FCB875F56BEDDC4 PUSH1 0x8 PUSH1 0x0 PUSH2 0x100 EXP DUP2 SLOAD DUP2 PUSH20 0xFFFFFFFFFFFFFFFFFFFFFFFFFFFFFFFFFFFFFFFF MUL NOT AND SWAP1 DUP4 PUSH20 0xFFFFFFFFFFFFFFFFFFFFFFFFFFFFFFFFFFFFFFFF AND MUL OR SWAP1 SSTORE POP ADDRESS PUSH1 0x9 PUSH1 0x0 PUSH2 0x100 EXP DUP2 SLOAD DUP2 PUSH20 0xFFFFFFFFFFFFFFFFFFFFFFFFFFFFFFFFFFFFFFFF MUL NOT AND SWAP1 DUP4 PUSH20 0xFFFFFFFFFFFFFFFFFFFFFFFFFFFFFFFFFFFFFFFF AND MUL OR SWAP1 SSTORE POP PUSH2 0x2D8 DUP1 PUSH2 0x16D PUSH1 0x0 CODECOPY PUSH1 0x0 RETURN INVALID PUSH1 0x80 PUSH1 0x40 MSTORE CALLVALUE DUP1 ISZERO PUSH2 0x10 JUMPI PUSH1 0x0 DUP1 REVERT JUMPDEST POP PUSH1 0x4 CALLDATASIZE LT PUSH2 0x7D JUMPI PUSH1 0x0 CALLDATALOAD PUSH1 0xE0 SHR DUP1 PUSH4 0x7E4E14CC GT PUSH2 0x5B JUMPI DUP1 PUSH4 0x7E4E14CC EQ PUSH2 0xDC JUMPI DUP1 PUSH4 0x8E93B09E EQ PUSH2 0xFA JUMPI DUP1 PUSH4 0xC3DA42B8 EQ PUSH2 0x118 JUMPI DUP1 PUSH4 0xF8840D2D EQ PUSH2 0x136 JUMPI PUSH2 0x7D JUMP JUMPDEST DUP1 PUSH4 0xDBE671F EQ PUSH2 0x82 JUMPI DUP1 PUSH4 0x4DF7E3D0 EQ PUSH2 0xA0 JUMPI DUP1 PUSH4 0x7A4C2571 EQ PUSH2 0xBE JUMPI JUMPDEST PUSH1 0x0 DUP1 REVERT JUMPDEST PUSH2 0x8A PUSH2 0x154 JUMP JUMPDEST PUSH1 0x40 MLOAD PUSH2 0x97 SWAP2 SWAP1 PUSH2 0x20B JUMP JUMPDEST PUSH1 0x40 MLOAD DUP1 SWAP2 SUB SWAP1 RETURN JUMPDEST PUSH2 0xA8 PUSH2 0x17A JUMP JUMPDEST PUSH1 0x40 MLOAD PUSH2 0xB5 SWAP2 SWAP1 PUSH2 0x20B JUMP JUMPDEST PUSH1 0x40 MLOAD DUP1 SWAP2 SUB SWAP1 RETURN JUMPDEST PUSH2 0xC6 PUSH2 0x1A0 JUMP JUMPDEST PUSH1 0x40 MLOAD PUSH2 0xD3 SWAP2 SWAP1 PUSH2 0x226 JUMP JUMPDEST PUSH1 0x40 MLOAD DUP1 SWAP2 SUB SWAP1 RETURN JUMPDEST PUSH2 0xE4 PUSH2 0x1A6 JUMP JUMPDEST PUSH1 0x40 MLOAD PUSH2 0xF1 SWAP2 SWAP1 PUSH2 0x226 JUMP JUMPDEST PUSH1 0x40 MLOAD DUP1 SWAP2 SUB SWAP1 RETURN JUMPDEST PUSH2 0x102 PUSH2 0x1AC JUMP JUMPDEST PUSH1 0x40 MLOAD PUSH2 0x10F SWAP2 SWAP1 PUSH2 0x241 JUMP JUMPDEST PUSH1 0x40 MLOAD DUP1 SWAP2 SUB SWAP1 RETURN JUMPDEST PUSH2 0x120 PUSH2 0x1B2 JUMP JUMPDEST PUSH1 0x40 MLOAD PUSH2 0x12D SWAP2 SWAP1 PUSH2 0x20B JUMP JUMPDEST PUSH1 0x40 MLOAD DUP1 SWAP2 SUB SWAP1 RETURN JUMPDEST PUSH2 0x13E PUSH2 0x1D8 JUMP JUMPDEST PUSH1 0x40 MLOAD PUSH2 0x14B SWAP2 SWAP1 PUSH2 0x241 JUMP JUMPDEST PUSH1 0x40 MLOAD DUP1 SWAP2 SUB SWAP1 RETURN JUMPDEST PUSH1 0x7 PUSH1 0x0 SWAP1 SLOAD SWAP1 PUSH2 0x100 EXP SWAP1 DIV PUSH20 0xFFFFFFFFFFFFFFFFFFFFFFFFFFFFFFFFFFFFFFFF AND DUP2 JUMP JUMPDEST PUSH1 0x8 PUSH1 0x0 SWAP1 SLOAD SWAP1 PUSH2 0x100 EXP SWAP1 DIV PUSH20 0xFFFFFFFFFFFFFFFFFFFFFFFFFFFFFFFFFFFFFFFF AND DUP2 JUMP JUMPDEST PUSH1 0x4 SLOAD DUP2 JUMP JUMPDEST PUSH1 0x3 SLOAD DUP2 JUMP JUMPDEST PUSH1 0x5 SLOAD DUP2 JUMP JUMPDEST PUSH1 0x9 PUSH1 0x0 SWAP1 SLOAD SWAP1 PUSH2 0x100 EXP SWAP1 DIV PUSH20 0xFFFFFFFFFFFFFFFFFFFFFFFFFFFFFFFFFFFFFFFF AND DUP2 JUMP JUMPDEST PUSH1 0x6 SLOAD DUP2 JUMP JUMPDEST PUSH2 0x1E7 DUP2 PUSH2 0x25C JUMP JUMPDEST DUP3 MSTORE POP POP JUMP JUMPDEST PUSH2 0x1F6 DUP2 PUSH2 0x26E JUMP JUMPDEST DUP3 MSTORE POP POP JUMP JUMPDEST PUSH2 0x205 DUP2 PUSH2 0x298 JUMP JUMPDEST DUP3 MSTORE POP POP JUMP JUMPDEST PUSH1 0x0 PUSH1 0x20 DUP3 ADD SWAP1 POP PUSH2 0x220 PUSH1 0x0 DUP4 ADD DUP5 PUSH2 0x1DE JUMP JUMPDEST SWAP3 SWAP2 POP POP JUMP JUMPDEST PUSH1 0x0 PUSH1 0x20 DUP3 ADD SWAP1 POP PUSH2 0x23B PUSH1 0x0 DUP4 ADD DUP5 PUSH2 0x1ED JUMP JUMPDEST SWAP3 SWAP2 POP POP JUMP JUMPDEST PUSH1 0x0 PUSH1 0x20 DUP3 ADD SWAP1 POP PUSH2 0x256 PUSH1 0x0 DUP4 ADD DUP5 PUSH2 0x1FC JUMP JUMPDEST SWAP3 SWAP2 POP POP JUMP JUMPDEST PUSH1 0x0 PUSH2 0x267 DUP3 PUSH2 0x278 JUMP JUMPDEST SWAP1 POP SWAP2 SWAP1 POP JUMP JUMPDEST PUSH1 0x0 DUP2 SWAP1 POP SWAP2 SWAP1 POP JUMP JUMPDEST PUSH1 0x0 PUSH20 0xFFFFFFFFFFFFFFFFFFFFFFFFFFFFFFFFFFFFFFFF DUP3 AND SWAP1 POP SWAP2 SWAP1 POP JUMP JUMPDEST PUSH1 0x0 DUP2 SWAP1 POP SWAP2 SWAP1 POP JUMP INVALID LOG2 PUSH5 0x6970667358 0x22 SLT KECCAK256 0xE7 PUSH32 0x677C84E68BBFF6788058081E7A34CA1EF2C10B580276A4FA61774DE1B8776473 PUSH16 0x6C634300080700330000000000000000 "
				},
				"gasEstimates": {
					"creation": {
						"codeDepositCost": "145600",
						"executionCost": "212796",
						"totalCost": "358396"
					},
					"external": {
						"a()": "2515",
						"b()": "2537",
						"c()": "2558",
						"maxInt()": "2474",
						"maxUInt()": "2495",
						"minInt()": "2429",
						"minUInt()": "2451"
					}
				},
				"methodIdentifiers": {
					"a()": "0dbe671f",
					"b()": "4df7e3d0",
					"c()": "c3da42b8",
					"maxInt()": "7a4c2571",
					"maxUInt()": "f8840d2d",
					"minInt()": "7e4e14cc",
					"minUInt()": "8e93b09e"
				}
			},
			"storageLayout": {
				"storage": [
					{
						"astId": 5,
						"contract": "DataType.sol:DataType",
						"label": "x",
						"offset": 0,
						"slot": "0",
						"type": "t_int256"
					},
					{
						"astId": 8,
						"contract": "DataType.sol:DataType",
						"label": "y",
						"offset": 0,
						"slot": "1",
						"type": "t_uint256"
					},
					{
						"astId": 11,
						"contract": "DataType.sol:DataType",
						"label": "z",
						"offset": 0,
						"slot": "2",
						"type": "t_uint8"
					},
					{
						"astId": 18,
						"contract": "DataType.sol:DataType",
						"label": "minInt",
						"offset": 0,
						"slot": "3",
						"type": "t_int256"
					},
					{
						"astId": 25,
						"contract": "DataType.sol:DataType",
						"label": "maxInt",
						"offset": 0,
						"slot": "4",
						"type": "t_int256"
					},
					{
						"astId": 32,
						"contract": "DataType.sol:DataType",
						"label": "minUInt",
						"offset": 0,
						"slot": "5",
						"type": "t_uint256"
					},
					{
						"astId": 39,
						"contract": "DataType.sol:DataType",
						"label": "maxUInt",
						"offset": 0,
						"slot": "6",
						"type": "t_uint256"
					},
					{
						"astId": 47,
						"contract": "DataType.sol:DataType",
						"label": "a",
						"offset": 0,
						"slot": "7",
						"type": "t_address"
					},
					{
						"astId": 50,
						"contract": "DataType.sol:DataType",
						"label": "b",
						"offset": 0,
						"slot": "8",
						"type": "t_address"
					},
					{
						"astId": 56,
						"contract": "DataType.sol:DataType",
						"label": "c",
						"offset": 0,
						"slot": "9",
						"type": "t_address"
					}
				],
				"types": {
					"t_address": {
						"encoding": "inplace",
						"label": "address",
						"numberOfBytes": "20"
					},
					"t_int256": {
						"encoding": "inplace",
						"label": "int256",
						"numberOfBytes": "32"
					},
					"t_uint256": {
						"encoding": "inplace",
						"label": "uint256",
						"numberOfBytes": "32"
					},
					"t_uint8": {
						"encoding": "inplace",
						"label": "uint8",
						"numberOfBytes": "1"
					}
				}
			},
			"userdoc": {
				"kind": "user",
				"methods": {},
				"version": 1
			}
		}
	}
}